:100000000C94EE010C9416020C9416020C94160239
:100010000C9416020C9416020C9416020C94160200
:100020000C9416020C9416020C9416020C946204A2
:100030000C9416020C9416020C9416020C941602E0
:100040000C9418040C9416020C9416020C941602CC
:100050000C9416020C9416020C9416020C941602C0
:100060000C9416020C9416020101FF030101F70320
:100070004500680100006C006800000000002400DA
:1000800027002A0000000000250028002B000500A2
:10009000893008023802497868140000506F6E6792
:1000A00020666F72203220706C61796572730A204D
:1000B00042593A20526F6B204B6F7300506F6E673E
:1000C000205475746F7269616C0005006801380115
:1000D0000000F6E8DBCFC3B8AEA49B928A827B74A3
:1000E0006E68625C57524E4945413E3A3734312E74
:1000F0002C29272523210A0A153A49676E6F726554
:10010000006D560A0A504C45415345205455524EF5
:10011000204F464620004C4F5720424154544552F0
:100120005921200003053F213F1208120A100A0E30
:100130001C0E0C1E0C141A14161F161E131E1E1B4A
:100140001E1E1F1E3F213F3A2F3A173D173F213FEA
:10015000181F02040A041F0E04040E1F0A1F0A0EB1
:100160000E1F04110E2E252E2F2A2E262929021F9E
:1001700002081F08150E04040E150E15151B151B7D
:10018000040604040C040000000017000300031F11
:100190000A1F16371A1904130A153A000300000E35
:1001A00011110E000A040A040E04003000040404B5
:1001B0000010001804031F111F121F101D15171126
:1001C000151F07041F17151D1F151D01011F1F15E2
:1001D0001F17151F000A00003200040A110A0A0A3C
:1001E000110A040115020E11171E051E1F150A0E15
:1001F000110A1F110E1F15111F05010E111D1F04DD
:100200001F111F1108100F1F041B1F10101F061FA6
:100210001E040F0E110E1F09060E112E1F051A12B5
:100220001509011F011F101F0F180F1F0C1F1B04A2
:100230001B031C03191513001F11030418111F00C1
:100240000201022020200001020C121E1F120C0CC1
:1002500012120C121F0C1A14041E05242A1E1F024F
:100260001C141D1020201D1F0814111F101E041E19
:100270001E021C0C120C3E0A040C123E1E04021438
:10028000160A020F120E101E0E100E1E081E120C61
:100290001226281E322A26041E21001F00211E04B9
:1002A0000102013F213F172B152010204C4F4144E4
:1002B000455200172B16201314000A4E6F2053448A
:1002C0002063617264206F720A6E6F204C4F41444C
:1002D00045522E4845580A0A153A45786974001D5A
:1002E00020466C617368696E670A20206C6F6164D8
:1002F00065722E2E2E0A0A444F4E27542054555212
:100300004E204F4646210000000000230026002911
:1003100000040404040404040402020202020203AE
:1003200003030303030102040810204080010204B8
:10033000081020010204081020000000080002013B
:100340000000030407000000000000000005003862
:1003500001680100001753440016137800161314A7
:10036000001510200015201000540A03E181867F3B
:100370003E186D830F0F0E0183866033186DC3190D
:100380008F1803C38E6033186DE330CF1803C39EFC
:10039000603630CDE360CF3006C79E7E3E30CDB3B1
:1003A00060CF300CC6F6603330D9B660CF33CFCCD7
:1003B000F66061B0DB1E60CF30D86CE6C061B0DBA8
:1003C0001E618F19986CC6C063B19B0E330F0FB0BE
:1003D00078C6FF7E1F1B061E0F00C61311241FBE0A
:1003E000CFEFD8E0DEBFCDBF11E0A0E0B1E0EEE49A
:1003F000FCE202C005900D92A232B107D9F723E0CA
:10040000A2E2B1E001C01D92A73CB207E1F711E002
:10041000CEEED1E004C02197FE010E941A16CD3E17
:10042000D107C9F70E94440F0C9425160C940000C4
:10043000CF92DF92EF92FF920F931F93CF93DF93B0
:100440006C017A018B01C0E0D0E0CE15DF0589F0A8
:10045000D8016D918D01D601ED91FC910190F08153
:10046000E02DC6010995892B11F47E0102C0219669
:10047000ECCFC701DF91CF911F910F91FF90EF90CB
:10048000DF90CF900895089580E090E008950E9455
:100490002016DC01ED91FC910190F081E02D099492
:1004A0006115710579F0FB0101900020E9F73197A2
:1004B000AF01461B570BDC01ED91FC910280F381EB
:1004C000E02D099480E090E008954F925F926F9242
:1004D0007F92EF92FF920F931F93CF93DF93CDB74D
:1004E000DEB7A1970FB6F894DEBF0FBECDBF7C017B
:1004F000FA01CB0119A2223008F42AE08E010F5D27
:100500001F4F422E512C612C712CBF01A30192016F
:100510000E947B14F901CA01015011096A3014F4D8
:10052000605D01C0695CD8016C93232B242B252BC3
:1005300061F7B801C7010E945002A1960FB6F89466
:10054000DEBF0FBECDBFDF91CF911F910F91FF9006
:10055000EF907F906F905F904F900895833081F07F
:1005600028F4813099F08230A1F008958730A9F005
:100570008830B9F08430D1F4809180008F7D03C041
:10058000809180008F7780938000089584B58F7765
:1005900002C084B58F7D84BD08958091B0008F77AF
:1005A00003C08091B0008F7D8093B00008951F93A9
:1005B000CF93DF93282F30E0F901E75CFC4F849163
:1005C000F901EB5DFC4FD491F901EF5EFC4FC49152
:1005D000CC23C9F0162F81110E94AE02EC2FF0E05F
:1005E000EE0FFF1FEC57FF4FA591B4918FB7F89412
:1005F000111105C09C91ED2FE095E92302C0EC910B
:10060000ED2BEC938FBFDF91CF911F910895CF9386
:10061000DF9390E0FC01EB5DFC4F2491FC01EF5E69
:10062000FC4F8491882361F190E0880F991FFC01B1
:10063000E658FF4FC591D491FC01EC57FF4FA591AF
:10064000B491611109C09FB7F894888120958223E5
:100650008883EC912E230BC0623061F49FB7F8942D
:100660003881822F809583238883EC912E2B2C93C5
:100670009FBF06C08FB7F894E8812E2B28838FBFC9
:10068000DF91CF9108951F93CF93DF93182FEB0144
:1006900061E00E940703209711F460E004C0CF3F9F
:1006A000D10539F461E0812FDF91CF911F910C9436
:1006B000D702E12FF0E0E75CFC4FE491E330F9F082
:1006C00048F4E130B9F0E230A1F584B5806284BD30
:1006D000C8BD34C0E730E9F0E83019F1E43049F53D
:1006E00080918000806280938000D0938B00C093C3
:1006F0008A0024C084B5806884BDC7BD1FC08091B6
:100700008000806880938000D0938900C093880027
:1007100015C08091B00080688093B000C093B30092
:100720000DC08091B00080628093B000C093B4008F
:1007300005C0C038D1050CF0B5CFAFCFDF91CF9158
:100740001F9108958E3008F08E50877080648093DA
:100750007C0080917A00806480937A0080917A0096
:1007600086FDFCCF809178002091790090E0922B5B
:1007700008953FB7F8948091240190912501A091AC
:100780002601B091270126B5A89B05C02F3F19F07F
:100790000196A11DB11D3FBFBA2FA92F982F882701
:1007A000820F911DA11DB11DBC01CD0142E0660F5C
:1007B000771F881F991F4A95D1F708958F929F92AE
:1007C000AF92BF92CF92DF92EF92FF926B017C01CA
:1007D0000E94B9034B015C01C114D104E104F1048E
:1007E000F1F00E94B903DC01CB0188199909AA092B
:1007F000BB09883E9340A105B10570F321E0C21A00
:10080000D108E108F10888EE880E83E0981EA11C4B
:10081000B11CC114D104E104F10419F7DDCFFF903C
:10082000EF90DF90CF90BF90AF909F908F90089502
:100830001F920F920FB60F9211242F933F938F9315
:100840009F93AF93BF9380913C0190913D01A09104
:100850003E01B0913F013091230123E0230F2D375A
:1008600020F40196A11DB11D05C026E8230F0296B4
:10087000A11DB11D2093230180933C0190933D0164
:10088000A0933E01B0933F018091240190912501F6
:10089000A0912601B09127010196A11DB11D809361
:1008A000240190932501A0932601B0932701BF91C5
:1008B000AF919F918F913F912F910F900FBE0F900D
:1008C0001F9018951F920F920FB60F9211242F931D
:1008D0006F937F938F939F9360913901662359F1B2
:1008E000809122018F5F8093220190913A018917B4
:1008F00010F12091370181E02827209337011092D1
:10090000220180913B01882369F08091000193E4EA
:10091000899F802D1124895B809300010E94E61538
:1009200090933801222329F0809138018093B400FC
:1009300002C080E0FBCF9F918F917F916F912F91AB
:100940000F900FBE0F901F901895FC0161110DC004
:10095000178A158A14A213A2108E109238011092D1
:100960003901109237011092B4000895EF92FF926E
:100970000F931F93CF93DF931F92CDB7DEB77C0108
:100980008B01411105C060E049830E94A5044981A3
:1009900050E0FA01EE0FFF1FEE0DFF1D16870587D1
:1009A000DA011996AA0FBB1FAE0DBF1D1D921C9236
:1009B000F701E40FF51F81E0818389E0868B118EBA
:1009C000138E158E0F90DF91CF911F910F91FF9095
:1009D000EF90089540E060E770E00C94B604FC01ED
:1009E000643508F053C0403308F050C090A1742F14
:1009F000759575957595262F062E000C330B542F83
:100A000057709230A1F4F901E05CFE4F84E5780262
:100A1000E00DF11D1124808190E0052E02C0959516
:100A200087950A94E2F78095982F91700AC09330C9
:100A300041F484858170462740954170841303C03A
:100A400014C0911112C084E57802200D311D1124CB
:100A5000F901E05CFE4F81E090E001C0880F5A95FB
:100A6000EAF780959081892310C084E57802200DF3
:100A7000311D1124F901E05CFE4F81E090E001C0DE
:100A8000880F5A95EAF79081892B80830895BF9249
:100A9000CF92DF92EF92FF920F931F93CF93DF934A
:100AA0001F92CDB7DEB77C01D62EC42E002E000CCF
:100AB000110B040F111D47FD1A954C2D0C2C000C29
:100AC000550B401751077CF4B12CB21654F46B2D22
:100AD0006D0D4C2DC70129830E94EF04B394298129
:100AE000F4CFC394EACF0F90DF91CF911F910F9174
:100AF000FF90EF90DF90CF90BF9008956F927F921C
:100B00008F929F92AF92BF92CF92DF92EF92FF921D
:100B10000F931F93CF93DF93EC016A3019F42D816B
:100B20009885A1C06D3009F4A4C01885BA84D98411
:100B300088A083E58D150CF47FC08FE28B150CF433
:100B40007BC08C8190E00197189F9001199F300D18
:100B50001124C9018D0D911DD7FC9A9518161906FF
:100B60000CF06AC08D81819FC00111248B0D911DF5
:100B7000B7FC9A95181619060CF05EC09D2CCD2C6A
:100B8000E62EF12CEC2DED190E2E000CFF0B8C81B6
:100B900090E0E817F9070CF04EC00197E817F90745
:100BA00079F0E89E9001E99E300DF89E300D1124F9
:100BB000E20FF31F8E8D9F8DE80FF91F749001C017
:100BC000712C6B2CAB2C2A2D2B19022E000C330B05
:100BD0008D8190E0281739075CF570FE10C0113048
:100BE00031F44A2D6C2DCE010E94EF041DC0012F5F
:100BF000212F462D692DCE010E94470515C089A1E0
:100C000098A1891789F088A3113031F44A2D6C2DF1
:100C1000CE010E94EF0407C0012F212F462D692D20
:100C2000CE010E94470588A27694A394610ECBCF93
:100C3000C394910EA7CF88A228853C818985329FD5
:100C4000800D112489879F81992399F0082E000C2B
:100C5000990B44E550E0239F40195109112448178E
:100C600059073CF49D818A85299F800D11248A872C
:100C7000198681E090E0DF91CF911F910F91FF9055
:100C8000EF90DF90CF90BF90AF909F908F907F902C
:100C90006F900895DF92EF92FF920F931F93CF937F
:100CA000DF931F92CDB7DEB78C01D62EF42EE12C48
:100CB000E21654F44E2D4F0D6D2DC80129830E946C
:100CC000EF04E3942981F4CF0F90DF91CF911F912E
:100CD0000F91FF90EF90DF9008958F929F92AF92C7
:100CE000BF92CF92DF92EF92FF920F931F93CF9319
:100CF000DF936C01B62EA42EC22F11E0121BF22E30
:100D0000F194FF0CD1E0802F8170882E9924939468
:100D10009E0C02708FEF8D0F8C17C4F517FD04C069
:100D2000C150F394F3941F0D8D2F880F8F5F180F10
:100D3000882099F02C2F220F290D4A2D4C1B6D2F46
:100D40006B0DC6010E944A0623E02E0D4A2D4D1B55
:100D50006C2F6B0DC6010E944A06002399F02C2FC0
:100D6000220F290D4A2D4C1B6B2D6D1BC6010E94B5
:100D70004A0623E02E0D4A2D4D1B6B2D6C1BC60120
:100D80000E944A06DF5FE394E394C4CFDF91CF91E2
:100D90001F910F91FF90EF90DF90CF90BF90AF9099
:100DA0009F908F9008954F925F926F927F928F9253
:100DB0009F92AF92BF92CF92DF92EF92FF920F93EA
:100DC0001F93CF93DF9300D000D01F92CDB7DEB733
:100DD0004091C0035091C1036091C2037091C3035D
:100DE0002FB7F89480913C0190913D01A0913E0174
:100DF000B0913F012FBF481B590B6A0B7B0B8091B1
:100E0000BF0390E0A0E0B0E00091BB031091BC03F1
:100E10002091BD033091BE0384179507A607B7073D
:100E200030F4011511052105310509F03EC3012BF0
:100E3000022B032B09F037C38091570381508E3F5B
:100E400018F580915603813021F580916A038F5FF8
:100E500060916B0387FD09C0082E000C990B70E0B0
:100E60006F5F7F4F0E94F215682F60936A0383EBD8
:100E700092E09093C5038093C40388E48093C603F3
:100E800085E693E00E94EA048091570381508E3FEB
:100E900070F480915503813009F0B3C386EA92E083
:100EA0009093C5038093C40388E48093C60380E0D5
:100EB0000E94500C80916603882309F4ADC0809194
:100EC0007A038111A9C08091720390917303E0911C
:100ED0007703F0917803EE0FFF1FE80FF91F45919C
:100EE00054914115510501F520917603222331F0EB
:100EF0001092780310927703FC0114C010926603DD
:100F000080916503882341F080E00E94500CE091BD
:100F10007703F09178032FC060E085E693E00E94AC
:100F2000A5047AC0459154919A0136952795369536
:100F3000279540FF51C0CA0116E0969587951A95EE
:100F4000E1F78F71952F96959695969590512F7004
:100F5000223071F1F8F4211117C08B3008F08AE0CB
:100F600080937B03E0917703F09178033196F093BF
:100F70007803E0937703EE0FFF1F80917203909147
:100F80007303E80FF91FCECF213061F760E00E94B4
:100F9000910CE8CF2330B1F0243021F72091690380
:100FA000829F802D11248093820390938303DACF54
:100FB00020916903829F802D112480937E0390935A
:100FC0007F03D0CF20916903829F802D11248093CD
:100FD000800390938103C6CF2F7320937903809170
:100FE0006903859F802D112480937A0310928A03D0
:100FF000109289031092880381E080937C03809390
:10100000370110927D0380917703909178030196C8
:10101000909378038093770380917C03882309F46D
:10102000F3C080917A03811106C060E085E693E009
:101030000E94A504E9C0815080937A0380918A03BD
:10104000811148C020918803309189032F5F3F4F61
:10105000C901880F991FE0918403F0918503E80F7F
:10106000F91F65917491862F877080938B03AB0174
:10107000E3E056954795EA95E1F7CA01969587957D
:10108000972F9695969590938C038F739091690303
:10109000899F802D112480938A03417040933B01E6
:1010A00030938903209388038091860390E028176A
:1010B000390780F020918703222339F0821B9109A0
:1010C000909389038093880305C060E085E693E0F0
:1010D0000E94A50480918A03815080938A038091A5
:1010E0007D0321E0280F20937D0340917903309107
:1010F0008C03340F80917103380F30936703609134
:101100008003662371F070E0822F022E000C990B91
:101110000E94F21580918103869F300D1124309337
:1011200067038091670390E0849664E270E00E9418
:10113000F2158093670330917B03309368036091CD
:101140007E03662381F0062E000C770B822F022E81
:10115000000C990B0E94F21580917F03869F300D41
:10116000112430936803609182036623A1F0822FDB
:10117000220F990B70E00E94F215CB0162E070E043
:101180000E94F2152091830390916803289F900D8F
:10119000112490936803809168034F3341F08A30A3
:1011A0000CF089E087FD80E08093680302C0109214
:1011B0006803F894E0916703F0E0EE52FF4FE4918A
:1011C000E0933A013091680320918D03320390013E
:1011D000112440918B034203C001439F900D1124C1
:1011E00000906A0302C0880F991F0A94E2F797FFE4
:1011F00002C081589F4F880F892F881F990B8093B9
:1012000039018093380178948091C603882309F4CA
:1012100096C08C3020F49CE0C92EC81A01C0C12CA5
:10122000DD24D394D09296031092AE031092AF03B4
:10123000E09093033DE2B32E1B2D1E191C0D03E01D
:101240000E0D2EE4412F63E08EE893E00E944705E7
:101250004CEFF42EFE0C1D5FEF2C01E023E0412F3C
:1012600060E58EE893E00E946D0602E023E0412FE6
:1012700063E08EE893E00E946D06D092AE03D092B8
:10128000AF030091930313E0100FEB2CE01AEC0C6A
:1012900023E04E2D622F8EE893E02D830E94EF0411
:1012A0002D812F5F2135A9F71E0DFF24FA94F10E31
:1012B00023E04F2D622F8EE893E02D830E94EF04F0
:1012C0002D812F5F2135A9F7035033E0E30E202F46
:1012D0004E2D60E08EE893E00E944A06202F4E2DAE
:1012E00063E58EE893E00E944A0641E06E2D83E0BC
:1012F0000E94CC0C42E06E2D80E50E94CC0C145074
:1013000044E0612F80E50E94CC0C48E0612F83E02F
:101310000E94CC0C84E08093970380919303C81AB9
:101320008C2D815D809398038091C4039091C503B7
:101330000E94EA0B8091C60381508093C60380917E
:101340005C0390915D03892B09F485C011E0109333
:10135000AE031092AF039091920385E5891B8093B1
:1013600097031092980360915903613009F454C0B7
:1013700030F080915803653008F066C061C060E0CD
:1013800085E693E00E94A5041092660310939603ED
:10139000E4E2F1E0E491EF5FE0939203E5E2F1E053
:1013A000E491EF5FE093930386E291E09093AD03C5
:1013B0008093AC0310925D0310925C03109294032F
:1013C00018EA0E94D3068823E1F386E191E00E94A7
:1013D000EA0B40915A0350915B0360E070E02AE011
:1013E0008EE893E00E94650281E091E00E94EA0BA2
:1013F000412F42954F7050E060E070E08EE893E03E
:101400000E944A0D86EF90E00E94EA0B80915503FE
:10141000813009F0FCC01FC08091B1039091B203EC
:10142000A091B303B091B4038F709927AA27BB276B
:101430000897A105B10510F467E009C068E707C087
:10144000882349F06B5F03C0882329F06FE28EE8A0
:1014500093E00E9449020E94AA0B8091940381119B
:101460000EC088EF91E0E0E4F1E0DF019C011D9205
:1014700021503040E1F710929703109298030E9498
:10148000B9036093BB037093BC038093BD03909337
:10149000BE032091B7033091B803621B730B7093A6
:1014A000B6036093B50380E0CCC02FB7F894809169
:1014B0003C0190913D01A0913E01B0913F012FBFB1
:1014C0002091BF03820F911DA11DB11D8093C00308
:1014D0009093C103A093C203B093C3038091B1035F
:1014E0009091B203A091B303B091B4030196A11DF2
:1014F000B11D8093B1039093B203A093B303B09353
:10150000B4031092BB031092BC031092BD0310925F
:10151000BE030E94B9036093B7037093B80380932E
:10152000B9039093BA0380914103909142032FE055
:10153000289F8001299F100D112485E10E94A2039C
:10154000800F911F24E0969587952A95E1F7909357
:1015500042038093410320914003222309F44BC0AE
:1015600060914403262F30E040E050E029833A8325
:101570004B835C83C0904503D12CE12CF12C40912E
:101580004803509149034A01A12CB12C20914603F4
:10159000309147032901612C712C8217930728F0A1
:1015A0009C014817590708F49A01C901A0E0B0E06E
:1015B0009C01AD01241935094609570969817A81D1
:1015C0008B819C816C197D098E099F090E94D6151B
:1015D000A501940124193509460957090E944914A7
:1015E000C20ED31EE41EF51EC09243036C2D70E0A4
:1015F00085E00E9443030E94370B0E947C0D81E02E
:1016000020C0893209F053CC0E941B0C50CC1150E1
:1016100009F0D7CE60E070E085E00E94430383B715
:10162000817F846083BF83B7816083BF83B781601C
:1016300083BF889583B78E7F83BF83B78E7F83BF39
:10164000C0CE0F900F900F900F900F90DF91CF9121
:101650001F910F91FF90EF90DF90CF90BF90AF90D0
:101660009F908F907F906F905F904F900895CF9252
:10167000DF92EF92FF920F931F93CF93DF93CAE411
:10168000D3E001E513E0FF24FA9497E0E92EE00EA1
:1016900062E088810E940703288130E0F901E75C5D
:1016A000FC4F8491F901EB5DFC4FC490F901EF5EB2
:1016B000FC4FD490DD2071F081110E94AE02ED2D1F
:1016C000F0E0EE0FFF1FE95FFC4FA591B491EC91A4
:1016D000EC21B1F4F80180818F5F808360E0888124
:1016E0000E94070321960F5F1F4FE012D1CFDF91B9
:1016F000CF911F910F91FF90EF90DF90CF900895C1
:10170000F8018081882371F3F8018F3F11F4108272
:10171000E5CFF082E3CFCF93C82FF89460E08091BB
:101720009D030E94D70280919E0318161CF460E06E
:101730000E94D702CEBD00000DB407FEFDCF8EB5CE
:1017400080919E0318161CF461E00E94D7027894E1
:10175000CF9108950F931F93CF9380919A038F5F3A
:1017600080939A0300E411E0C0E08C2F80640E9413
:101770008B0B80E80E948B0B61E080919D030E949F
:10178000D70280919E0318161CF460E00E94D702D5
:1017900080E090E0F801E80FF91F20812EBD0000E5
:1017A0000DB407FEFDCF2EB501968435910591F756
:1017B00080919E0318161CF461E00E94D702CF5F4F
:1017C0000C5A1F4FC63089F680E4CF911F910F91BC
:1017D0000C948B0B0F931F93CF93DF938C01C0E07E
:1017E000D0E0F801EC0FFD1F6491662371F0E091E9
:1017F0008E03F0918F030190F081E02D8EE893E04D
:101800000995892B11F02196ECCFCE01DF91CF9174
:101810001F910F910895CF93DF930E94EA0BEC0183
:1018200067E171E08EE893E00E9450028C0F9D1FEB
:10183000DF91CF91089588EF91E0E0E4F1E0DF01DE
:101840009C011D9221503040E1F7109297031092B5
:1018500098038FED92E00E94EA0B0E94AA0B8CB5D0
:1018600083608CBD8DB58E7F8DBD8AE191E0EEEFFA
:10187000FFE30995109294038AEB92E00E940B0C0F
:101880000E94AA0B0E94370B80915503813039F0DA
:1018900062E370E080E090E00E94DE03F3CF089501
:1018A000CF93DF93482F50E0EA01C05CDC4F9DA14D
:1018B0009923A1F19EA1911131C09EA5FA01EE0FCD
:1018C000FF1FE95BFC4F35A126A1E32FF22FE90FA3
:1018D000F11DE90FF11D259134912F3F9FEF39073D
:1018E00011F41DA21BC039AB440F551FFA01E65B72
:1018F000FC4F3327220F331F05A0F6A1E02DE20F86
:10190000F31F65917491811105C040E085E693E075
:101910000E94B60429968DA18F5F8DA3DF91CF9190
:10192000089570E0DB01AA0FBB1FA05CBC4FD496EA
:101930002C91D497D5969C91D597E22FF92FE80F4B
:10194000F11DE80FF11D259134915F9696963C9319
:101950002E939597F9018591949190916903989FA1
:10196000802D1124605C7C4FFB01B19685A3F901A9
:10197000A591B4914B2F50E0E82FF0E04E175F0790
:1019800020F4F90125913491832FFB01B296899FB0
:10199000802D112485A30895AF92BF92CF92DF923C
:1019A000EF92FF920F931F93CF93DF93182F062F81
:1019B000C1E0D3E08AEFD82E9EEFE92E842F847009
:1019C000C82E842F8270B82E842F8870A82E417064
:1019D000F42E8C2F880F8F5FE80ECC2081F04D2FD6
:1019E000400F6C2F610F8EE893E00E94EF044C2FA4
:1019F000400F6D2F610F8EE893E00E94EF04BB2033
:101A000081F0402F4D1B6C2F610F8EE893E00E94F8
:101A1000EF04402F4C1B6D2F610F8EE893E00E9466
:101A2000EF04AA2081F04C2F400F612F6D1B8EE830
:101A300093E00E94EF044D2F400F612F6C1B8EE846
:101A400093E00E94EF04FF2081F0402F4C1B612F98
:101A50006D1B8EE893E00E94EF04402F4D1B612F19
:101A60006C1B8EE893E00E94EF04CD1744F4E7FC72
:101A700004C0D150D394D394ED0CCF5FAACFDF91A3
:101A8000CF911F910F91FF90EF90DF90CF90BF907B
:101A9000AF900895CF92DF92EF92FF920F931F9332
:101AA000CF93DF9377FF1DC06A017B01EC016DE2EC
:101AB0000E9449028C0144275527BA014C195D093F
:101AC0006E097F092AE0CE010E946502800F911FF6
:101AD000DF91CF911F910F91FF90EF90DF90CF900A
:101AE00008952AE0DF91CF911F910F91FF90EF9021
:101AF000DF90CF900C94650280915C0390915D0320
:101B0000892BB1F1809164038F7169F584E10E94A2
:101B1000A203BC01990F880B990B0E94DD1426EEDD
:101B20003FE34EEC50E40E9441150E94AC149B012F
:101B300070935B0360935A03672B91F084E080936A
:101B40005903ECE5F3E080E041915191241735070A
:101B500018F48093590308958F5F8430A9F703C068
:101B60008FEF80935903809164038F5F80936403A8
:101B700008953F924F925F926F927F928F929F92C1
:101B8000AF92BF92CF92DF92EF92FF920F931F938B
:101B9000CF93DF93EC0181E080939603109295033D
:101BA00010929403109258038093AE038093AF0376
:101BB0003AE6432E33E0532EDD24D3942CE0C22E9C
:101BC0000E94D3068823E1F3FE018491E9E6F3E065
:101BD000A490F20184900091AE030A2C000CBB0883
:101BE0001A141B0404F110929703C0929803CE01BB
:101BF0000E94EA0B80919203982F990F890F81958B
:101C00008D5A8093970380919303982F990F890F92
:101C10008195835D809398038091B10384FFA4C074
:101C200085E693E0A3C01814F4F6482D41330CF078
:101C300040E38A2DF5E5AF16B1040CF084E5F09091
:101C40009A0397E0A90EB11C93E0B594A7949A95D6
:101C5000E1F710E020E431E091E06BE673E0842EE0
:101C6000440F9908412F50E0481559050CF0BBCF9F
:101C7000FB01E4900130B9F4D90140E8542F5E2112
:101C800019F05C91592B5C9350E05595479541159F
:101C9000510519F43196E49040E811965A2F521BE1
:101CA000581760F358C001111AC0792E7094FB01C7
:101CB000D90140E8542F5E2119F05C9157215C93C3
:101CC00050E0559547954115510519F43196E4902A
:101CD00040E811965A2F521B581760F33CC003304E
:101CE00019F5692E6094FB01D90140E8722E3A2E55
:101CF000321A542F5E2141F03F245C9130FE02C025
:101D0000592B01C056215C9350E0559547954115DC
:101D1000510519F43196E49040E811965A2F57195D
:101D2000581728F3FD2417C0FB01D90140E8542FB0
:101D30005E2119F05C9159275C9350E055954795C9
:101D40004115510519F43196E49040E811965A2F47
:101D5000521B581760F3990F19F42C5A3F4F91E01A
:101D60001F5F6A0D7B1D7ECF81E693E00E940B0C06
:101D700080919203982F990F890F81958D5A8093A6
:101D80009703809198038F5F8093980380916A03F3
:101D9000882319F08DE593E002C089E593E00E9465
:101DA0000B0C80919203982F990F890F81958D5A72
:101DB00080939703809198038F5F8093980385E5C4
:101DC00093E00E940B0C809156038130B1F4809116
:101DD0006A038F5F60916B0387FD09C0082E000CBA
:101DE000990B70E06F5F7F4F0E94F215682F609330
:101DF0006A0385E693E00E94EA04809155038130EE
:101E0000A9F08091B003482F50E060E070E00091AD
:101E1000B1031091B2032091B3033091B4030417BE
:101E200015072607370740F18F3F31F18FEF809379
:101E3000B00360E085E693E00E94A504109266037B
:101E400040E06DE473E085E693E00E94B60481E033
:101E500080935803DF91CF911F910F91FF90EF90E6
:101E6000DF90CF90BF90AF909F908F907F906F90BA
:101E70005F904F903F90089580915703813009F013
:101E80009FCE0E941B0C9ACE789484B5826084BD4C
:101E900084B5816084BD85B5826085BD85B581606E
:101EA00085BD80916E00816080936E0010928100EC
:101EB00080918100826080938100809181008160A7
:101EC0008093810080918000816080938000809168
:101ED000B10084608093B1008091B00081608093F4
:101EE000B00080917A00846080937A0080917A00BB
:101EF000826080937A0080917A00816080937A007A
:101F000080917A00806880937A001092C10082E309
:101F10008093BF0381E090E0A0E0B0E08093BB033A
:101F20009093BC03A093BD03B093BE038FEF809347
:101F3000B003E0E8F7E7259134912130304C09F007
:101F400049C0E6E9F7E7E491E0939903E7E9F7E7A9
:101F5000E491E0934403E8E9F7E7E491E093450373
:101F6000E9E9F7E7859194919093470380934603BD
:101F7000EBE9F7E7859194919093490380934803A7
:101F800087E080936B03EEE9F7E7E491E0936A035F
:101F9000EFE9F7E7E491E093B003E0EAF7E7859132
:101FA000949190935D0380935C03E2EAF7E7859157
:101FB000949190935F0380935E03E4EAF7E7859141
:101FC00094919093610380936003E6EAF7E785912B
:101FD00094912CC09CE390939903109244038093B6
:101FE000450380E293E0909347038093460384ED9A
:101FF00093E0909349038093480387E080936B03B9
:1020000080936A038CEA9DE090935D0380935C0368
:102010008EED9DE090935F0380935E0384E79EE0E6
:1020200090936103809360038CE39FE0909363033C
:1020300080936203C1E0C09340036FEF70E085E0DE
:102040000E94430388E080934A0389E080934B0316
:1020500087E080934C0386E080934D03D4E0D093D7
:102060004E0382E080934F0381E1809350030E94EE
:10207000370B8CE39FE090935B0380935A03D093DC
:102080005903C09364038BE080939C038DE080939D
:102090009B0380E180939D038EE080939F038FE0FC
:1020A00080939E03C0939603C093AE031092AF0338
:1020B000C0939503E4E2F1E0E491EF5FE0939203D3
:1020C000E5E2F1E0E491EF5FE093930386E291E0D3
:1020D0009093AD038093AC03CFB7F894809128011F
:1020E000811127C0EBE1F3E08491EFE2F3E09491FA
:1020F000E82FF0E0EE0FFF1FE658FF4FA591B491D7
:10210000EC91E92321F461E08AE00E94D70261E0CA
:102110008AE00E9407038CB580618CBD8CB5806419
:102120008CBD61E08DE00E94070361E08BE00E94BE
:102130000703809128018F5F80932801CFBF8CB562
:102140008F7D8CBD8CB58C7F81608CBD8DB58160A1
:102150008DBD8CB58C608CBD61E080919C030E942C
:10216000070361E080919B030E94070361E0809177
:102170009D030E94070380919F0318161CF461E0E1
:102180000E94070380919E0318161CF461E00E94D0
:10219000070380919F03181674F460E00E94D70231
:1021A0006AE070E080E090E00E94DE0361E08091F0
:1021B0009F030E94D70280919B03082E000C990B6D
:1021C000FC01EF5EFC4FE491F0E0EE0FFF1FEC57D7
:1021D000FF4F259134913093A3032093A203FC0178
:1021E000EB5DFC4FE491E093A90380919C03082EE2
:1021F000000C990BFC01EF5EFC4FE491F0E0EE0F58
:10220000FF1FEC57FF4F259134913093A10320938A
:10221000A003FC01EB5DFC4FE491E093A8038091E7
:102220009E03082E000C990BFC01EF5EFC4FE4911D
:10223000F0E0EE0FFF1FEC57FF4F259134913093E4
:10224000A5032093A403FC01EB5DFC4FE491E09314
:10225000AA0380919D03082E000C990BFC01EF5EF0
:10226000FC4FE491F0E0EE0FFF1FEC57FF4F25917C
:1022700034913093A7032093A603FC01EB5DFC4F40
:10228000E491E093AB0381E20E948B0B84E10E9416
:102290008B0B8091990387FF03C08FE7809399038D
:1022A0008091990380680E948B0B80E20E948B0BC7
:1022B0008CE00E948B0B0E94AA0B81E08093690343
:1022C00084E080938D0386E790E09093750380937C
:1022D000740360E080E00E94910C61E070E083E0B4
:1022E0000E9443038091B100887F81608093B10098
:1022F000F894109280001092810010928500109244
:10230000840088E191E09093890080938800809117
:10231000810088608093810080918100816080933A
:10232000810080916F00826080936F0078940E949A
:102330007C0D80915603813019F410926A030BC012
:10234000809159038823C9F340E06EE870E085E688
:1023500093E00E94B6048091B003882321F08CE9B9
:1023600090E00E94B90D80905A0390905B03809496
:102370009094A12CB12C0E94B9032B013C010E9426
:10238000B903A30192012095309540955095609531
:102390007095809590950E94D6159B01AC01C50162
:1023A000B4010E94D6152B013C018091410390910C
:1023B00042034C01A12CB12C0E94B903860E971E3A
:1023C000A81EB91EC501B401640D751D861D971D9B
:1023D000611571058105910511F00E94401410925C
:1023E000580382E0809396039CE2492E512C612C85
:1023F000712C2DEF222E33243A9433E0832E912C2E
:1024000044E0C42ED12C5CE2A52EB12C88E0F82E3D
:102410000E94D306882309F479C180915203815028
:102420008E3F68F4809105019091060182309105FC
:102430000CF474C10297909306018093050180917A
:10244000540381508E3F68F48091050190910601FC
:102450008F3191050CF065C102969093060180932F
:1024600005018091550381508E3F68F480913501BC
:1024700090913601823091050CF456C102979093E9
:102480003601809335018091560381508E3F68F468
:1024900080913501909136018F3191050CF047C143
:1024A00002969093360180933501C0910301D0913B
:1024B000040100913301109134010C0F1D1F109382
:1024C0003401009333018091010190910201209128
:1024D000310130913201280F391F3093320120939E
:1024E00031012D3231057CF09195819591099093C0
:1024F000020180930101B0923201A092310185E680
:1025000093E00E94EA048091310190913201049796
:102510009CF480910101909102019195819591091E
:102520009093020180930101D0923201C092310157
:1025300085E693E00E94EA040730110594F42091A7
:102540003101309132018091050190910601AC0179
:10255000405F5F4F4217530724F0821793070CF434
:10256000E9C080913301909134018E34910594F04B
:1025700020913101309132018091350190913601E5
:10258000AC01405F5F4F4217530724F08217930757
:102590000CF4E4C000E123E04091050160E08EE826
:1025A00093E00E94470523E04091350161E58EE804
:1025B00093E00E94470510913101C0913301D09101
:1025C00034014CEF410F29E06C2F8EE893E00E941C
:1025D0004A06E12C03E024E0412F6C2F8EE893E0C3
:1025E0000E946D0610E004E022E0412F69E28EE8CF
:1025F00093E00E944705185F1033A9F701E024E536
:1026000040E060E08EE893E00E94470524E54FE259
:1026100060E08EE893E00E944705CC3FDF4FBCF4BA
:1026200080912F0190913001909334018093330178
:10263000909204018092030180912B0190912C01D2
:10264000019690932C0180932B0121E001C020E0A2
:10265000809133019091340189359105B4F08091D6
:102660002D0190912E01909334018093330130928B
:102670000401209203018091290190912A01019681
:1026800090932A018093290102C0222389F00E949D
:102690003B14A30192010E9449147093320160938C
:1026A000310140E06AEC70E085E693E00E94B604F8
:1026B00095E190939703F0929803409129015091EE
:1026C0002A01052E000C660B770B8EE893E00E9422
:1026D0004A0D89E380939703F092980340912B0170
:1026E00050912C01052E000C660B770B8EE893E0C1
:1026F0000E944A0D80915703813041F48091B003CC
:10270000882321F08CEB90E00E94B90D80E090E0EE
:10271000892B09F47DCE0E94000078CE80E090E005
:102720008ACE80E290E099CE80E090E0A8CE80E270
:1027300090E0B7CED195C195D109D0930401C09353
:10274000030180912F019091300190933401809387
:10275000330185E693E00E94EA0403CF80910301F0
:102760009091040191958195910990930401809332
:10277000030180912D0190912E019093340180935B
:10278000330185E693E00E94EA0404CF109291039E
:10279000109290038FE091E090938F0380938E03CB
:1027A00020910501309106013093360120933501C7
:1027B0008CE490E0909334018093330130933201A4
:1027C0002093310128E030E03093300120932F0135
:1027D00090932E0180932D0108958F929F92AF9236
:1027E000BF92CF92DF92EF92FF92CF93DF93EC01F3
:1027F000688179818A819B816115710581059105C7
:1028000021F464E279ED8BE597E02DE133EF41E0CF
:1028100050E00E94491449015A019B01AC01A7EA0A
:10282000B1E40E9468146B017C01ACEEB4EFA50129
:1028300094010E947614DC01CB018C0D9D1DAE1D10
:10284000BF1DB7FF03C00197A109B04888839983D2
:10285000AA83BB83BC01CD019F77DF91CF91FF900D
:10286000EF90DF90CF90BF90AF909F908F900895A2
:102870000E94ED13089587E091E00E94ED13089502
:1028800060930701709308018093090190930A01F6
:102890000895052E97FB1EF400940E94601457FDC6
:1028A00007D00E947B1407FC03D04EF40C946014F4
:1028B00050954095309521953F4F4F4F5F4F08956C
:1028C00090958095709561957F4F8F4F9F4F08959C
:1028D0000E949D14A59F900DB49F900DA49F800D04
:1028E000911D11240895B7FF0C9468140E94681478
:1028F000821B930B0895A1E21A2EAA1BBB1BFD019C
:102900000DC0AA1FBB1FEE1FFF1FA217B307E407CE
:10291000F50720F0A21BB30BE40BF50B661F771F26
:10292000881F991F1A9469F7609570958095909506
:102930009B01AC01BD01CF010895A29FB001B39FDF
:10294000C001A39F700D811D1124911DB29F700DB8
:10295000811D1124911D08950E94201588F09F5714
:1029600098F0B92F9927B751B0F0E1F0660F771FB3
:10297000881F991F1AF0BA95C9F714C0B13091F0A9
:102980000E943A15B1E008950C943A15672F782FFC
:102990008827B85F39F0B93FCCF38695779567956E
:1029A000B395D9F73EF490958095709561957F4FDA
:1029B0008F4F9F4F0895E89409C097FB3EF4909580
:1029C0008095709561957F4F8F4F9F4F9923A9F008
:1029D000F92F96E9BB279395F69587957795679597
:1029E000B795F111F8CFFAF4BB0F11F460FF1BC0DB
:1029F0006F5F7F4F8F4F9F4F16C0882311F096E96E
:102A000011C0772321F09EE8872F762F05C066231B
:102A100071F096E8862F70E060E02AF09A95660FD4
:102A2000771F881FDAF7880F9695879597F908958D
:102A300057FD9058440F551F59F05F3F71F047956F
:102A4000880F97FB991F61F09F3F79F08795089554
:102A5000121613061406551FF2CF4695F1DF08C073
:102A6000161617061806991FF1CF86957105610590
:102A700008940895E894BB2766277727CB0197F938
:102A800008950E9454150C94C5150E94B71538F08E
:102A90000E94BE1520F0952311F00C94AE150C94F5
:102AA000B41511240C943B150E94181570F3959FD2
:102AB000C1F3950F50E0551F629FF001729FBB2735
:102AC000F00DB11D639FAA27F00DB11DAA1F649FD1
:102AD0006627B00DA11D661F829F2227B00DA11D84
:102AE000621F739FB00DA11D621F839FA00D611D0A
:102AF000221F749F3327A00D611D231F849F600D2B
:102B0000211D822F762F6A2F11249F5750409AF053
:102B1000F1F088234AF0EE0FFF1FBB1F661F771FDF
:102B2000881F91505040A9F79E3F510580F00C94AA
:102B3000AE150C943B155F3FE4F3983ED4F38695B5
:102B400077956795B795F795E7959F5FC1F7FE2B4A
:102B5000880F911D9695879597F9089597F99F6726
:102B600080E870E060E008959FEF80EC0895002415
:102B70000A941616170618060906089500240A94E2
:102B800012161306140605060895092E0394000C68
:102B900011F4882352F0BB0F40F4BF2B11F460FFF7
:102BA00004C06F5F7F4F8F4F9F4F0895DB018F935E
:102BB0009F930E946814BF91AF91A29F800D911DB9
:102BC000A39F900DB29F900D11240895991B79E059
:102BD00004C0991F961708F0961B881F7A95C9F7AD
:102BE0008095089597FB072E16F4009407D077FD83
:102BF00009D00E94061607FC05D03EF490958195F9
:102C00009F4F0895709561957F4F0895AA1BBB1B38
:102C100051E107C0AA1FBB1FA617B70710F0A61BDC
:102C2000B70B881F991F5A95A9F780959095BC01FD
:102C3000CD010895EE0FFF1F0590F491E02D09944A
:0E2C400081E090E0F8940C942516F894FFCFF4
:102C4E000103000300100001000000000000007EE0
:102C5E00051802440243020D0A004C4F41444552EE
:022C6E00000064
:00000001FF
