:100000000C94DA010C9402020C9402020C94020289
:100010000C9402020C9402020C9402020C94020250
:100020000C9402020C9402020C9402020C9425041B
:100030000C9402020C9402020C9402020C94020230
:100040000C94BB030C9402020C9402020C94020266
:100050000C9402020C9402020C9402020C94020210
:100060000C9402020C9402020101FF030101F70348
:100070004500680100006C006800000000002400DA
:1000800027002A0000000000250028002B000500A2
:1000900089300802380249786814000005003801E8
:1000A000680100001753440016137800161314005B
:1000B0001510200015201000540A03E181867F3EB0
:1000C000186D830F0F0E0183866033186DC3198F6F
:1000D0001803C38E6033186DE330CF1803C39E60DE
:1000E0003630CDE360CF3006C79E7E3E30CDB36064
:1000F000CF300CC6F6603330D9B660CF33CFCCF6F4
:100100006061B0DB1E60CF30D86CE6C061B0DB1E32
:10011000618F19986CC6C063B19B0E330F0FB07816
:10012000C6FF7E1F1B061E0F506F6E67205475742E
:100130006F7269616C00F6E8DBCFC3B8AEA49B9226
:100140008A827B746E68625C57524E4945413E3AE2
:100150003734312E2C29272523210A0A153A4967DD
:100160006E6F7265006D560A0A504C45415345202A
:100170005455524E204F464620004C4F5720424186
:10018000545445525921200003053F213F120812C3
:100190000A100A0E1C0E0C1E0C141A14161F161E22
:1001A000131E1E1B1E1E1F1E3F213F3A2F3A173DD6
:1001B000173F213F181F02040A041F0E04040E1FDC
:1001C0000A1F0A0E0E1F04110E2E252E2F2A2E2670
:1001D0002929021F02081F08150E04040E150E150A
:1001E000151B151B040604040C0400000000170076
:1001F0000300031F0A1F16371A1904130A153A00C1
:100200000300000E11110E000A040A040E0400304F
:10021000000404040010001804031F111F121F1013
:100220001D151711151F07041F17151D1F151D017B
:10023000011F1F151F17151F000A00003200040AB6
:10024000110A0A0A110A040115020E11171E051ED1
:100250001F150A0E110A1F110E1F15111F05010E81
:10026000111D1F041F111F1108100F1F041B1F1049
:10027000101F061F1E040F0E110E1F09060E112E51
:100280001F051A121509011F011F101F0F180F1F3C
:100290000C1F1B041B031C03191513001F1103045F
:1002A00018111F000201022020200001020C121E62
:1002B0001F120C0C12120C121F0C1A14041E05240F
:1002C0002A1E1F021C141D1020201D1F0814111FA0
:1002D000101E041E1E021C0C120C3E0A040C123EC0
:1002E0001E040214160A020F120E101E0E100E1E0D
:1002F000081E120C1226281E322A26041E21001F58
:1003000000211E040102013F213F172B1520102060
:100310004C4F4144455200172B16201314000A4E2F
:100320006F2053442063617264206F720A6E6F20E5
:100330004C4F414445522E4845580A0A153A4578D3
:100340006974001D20466C617368696E670A20201D
:100350006C6F616465722E2E2E0A0A444F4E27542C
:10036000205455524E204F464621000000000023E5
:100370000026002900040404040404040402020208
:1003800002020203030303030301020408102040D6
:10039000800102040810200102040810200000005F
:1003A0000800020100000304070000000000000034
:1003B0000000121311241FBECFEFD8E0DEBFCDBF67
:1003C00011E0A0E0B1E0E2EDFAE202C005900D928A
:1003D000A232B107D9F723E0A2E2B1E001C01D9239
:1003E000AF3BB207E1F711E0CAEDD1E004C02197BD
:1003F000FE010E945C15C93DD107C9F70E94900D0E
:100400000C9467150C940000CF92DF92EF92FF924C
:100410000F931F93CF93DF936C017A018B01C0E0A0
:10042000D0E0CE15DF0589F0D8016D918D01D601A0
:10043000ED91FC910190F081E02DC6010995892B89
:1004400011F47E0102C02196ECCFC701DF91CF915C
:100450001F910F91FF90EF90DF90CF9008958091C2
:100460002F01882319F08091300101C080E0809332
:10047000B4000895089580E090E008950E94621508
:10048000FC0161110DC0178A158A14A213A2108EE7
:10049000109230011092310110922F010C942F0212
:1004A0000895833081F028F4813099F08230A1F0F2
:1004B00008958730A9F08830B9F08430D1F4809164
:1004C00080008F7D03C0809180008F7780938000B3
:1004D000089584B58F7702C084B58F7D84BD08955B
:1004E0008091B0008F7703C08091B0008F7D8093A2
:1004F000B00008951F93CF93DF93282F30E0F901C8
:10050000E356FC4F8491F901E757FC4FD491F90170
:10051000EB58FC4FC491CC23C9F0162F81110E94D7
:100520005102EC2FF0E0EE0FFF1FEC57FF4FA591AB
:10053000B4918FB7F894111105C09C91ED2FE095FF
:10054000E92302C0EC91ED2BEC938FBFDF91CF91AB
:100550001F910895CF93DF9390E0FC01E757FC4F84
:100560002491FC01EB58FC4F8491882361F190E0C9
:10057000880F991FFC01E658FF4FC591D491FC01EB
:10058000EC57FF4FA591B491611109C09FB7F89442
:100590008881209582238883EC912E230BC06230C2
:1005A00061F49FB7F8943881822F809583238883E4
:1005B000EC912E2B2C939FBF06C08FB7F894E88147
:1005C0002E2B28838FBFDF91CF9108951F93CF9358
:1005D000DF93182FEB0161E00E94AA02209711F42B
:1005E00060E004C0CF3FD10539F461E0812FDF9195
:1005F000CF911F910C947A02E12FF0E0E356FC4F6B
:10060000E491E330F9F048F4E130B9F0E230A1F5DB
:1006100084B5806284BDC8BD34C0E730E9F0E830FD
:1006200019F1E43049F58091800080628093800068
:10063000D0938B00C0938A0024C084B5806884BDA9
:10064000C7BD1FC080918000806880938000D093D8
:100650008900C093880015C08091B00080688093A5
:10066000B000C093B3000DC08091B0008062809351
:10067000B000C093B40005C0C038D1050CF0B5CFB0
:10068000AFCFDF91CF911F9108958E3008F08E503B
:100690008770806480937C0080917A00806480936E
:1006A0007A0080917A0086FDFCCF809178002091BD
:1006B000790090E0922B08953FB7F894809124013F
:1006C00090912501A0912601B091270126B5A89B04
:1006D00005C02F3F19F00196A11DB11D3FBFBA2FD4
:1006E000A92F982F8827820F911DA11DB11DBC0134
:1006F000CD0142E0660F771F881F991F4A95D1F7F9
:1007000008958F929F92AF92BF92CF92DF92EF9215
:10071000FF926B017C010E945C034B015C01C114E0
:10072000D104E104F104F1F00E945C03DC01CB018F
:1007300088199909AA09BB09883E9340A105B1050A
:1007400070F321E0C21AD108E108F10888EE880EA2
:1007500083E0981EA11CB11CC114D104E104F10472
:1007600019F7DDCFFF90EF90DF90CF90BF90AF9063
:100770009F908F9008951F920F920FB60F921124A1
:100780002F933F938F939F93AF93BF9380913401A7
:1007900090913501A0913601B0913701309123013C
:1007A00023E0230F2D3720F40196A11DB11D05C0B4
:1007B00026E8230F0296A11DB11D209323018093EB
:1007C000340190933501A0933601B09337018091A5
:1007D000240190912501A0912601B0912701019655
:1007E000A11DB11D8093240190932501A0932601A2
:1007F000B0932701BF91AF919F918F913F912F911E
:100800000F900FBE0F901F901895CF93DF93EC01C0
:100810001F8A1D8A1CA21BA2188E109230011092F2
:10082000310110922F010E942F0280E790E09E87F5
:100830008D871B8A1A8A81E0898389E08E8B198EC5
:100840001B8E1D8EDF91CF9108951F920F920FB6D0
:100850000F9211242F933F934F935F936F937F9346
:100860008F939F93AF93BF93EF93FF936091310169
:10087000662321F1809122018F5F80932201909164
:1008800032018917D8F090912F0181E08927809358
:100890002F011092220180913301882369F0809109
:1008A000000193E4899F802D1124895B80930001CE
:1008B0000E942815909330010E942F02FF91EF9122
:1008C000BF91AF919F918F917F916F915F914F9168
:1008D0003F912F910F900FBE0F901F901895FC0124
:1008E000643508F053C0403308F050C090A1742F15
:1008F000759575957595262F062E000C330B542F84
:1009000057709230A1F4F901E85CFE4F84E578025B
:10091000E00DF11D1124808190E0052E02C0959517
:1009200087950A94E2F78095982F91700AC09330CA
:1009300041F484858170462740954170841303C03B
:1009400014C0911112C084E57802200D311D1124CC
:10095000F901E85CFE4F81E090E001C0880F5A95F4
:10096000EAF780959081892310C084E57802200DF4
:10097000311D1124F901E85CFE4F81E090E001C0D7
:10098000880F5A95EAF79081892B80830895BF924A
:10099000CF92DF92EF92FF920F931F93CF93DF934B
:1009A0001F92CDB7DEB77C01D62EC42E002E000CD0
:1009B000110B040F111D47FD1A954C2D0C2C000C2A
:1009C000550B401751077CF4B12CB21654F46B2D23
:1009D0006D0D4C2DC70129830E946F04B3942981AA
:1009E000F4CFC394EACF0F90DF91CF911F910F9175
:1009F000FF90EF90DF90CF90BF9008956F927F921D
:100A00008F929F92AF92BF92CF92DF92EF92FF921E
:100A10000F931F93CF93DF93EC016A3019F42D816C
:100A20009885A1C06D3009F4A4C01885BA84D98412
:100A300088A083E58D150CF47FC08FE28B150CF434
:100A40007BC08C8190E00197189F9001199F300D19
:100A50001124C9018D0D911DD7FC9A951816190600
:100A60000CF06AC08D81819FC00111248B0D911DF6
:100A7000B7FC9A95181619060CF05EC09D2CCD2C6B
:100A8000E62EF12CEC2DED190E2E000CFF0B8C81B7
:100A900090E0E817F9070CF04EC00197E817F90746
:100AA00079F0E89E9001E99E300DF89E300D1124FA
:100AB000E20FF31F8E8D9F8DE80FF91F749001C018
:100AC000712C6B2CAB2C2A2D2B19022E000C330B06
:100AD0008D8190E0281739075CF570FE10C0113049
:100AE00031F44A2D6C2DCE010E946F041DC0012FE0
:100AF000212F462D692DCE010E94C70415C089A162
:100B000098A1891789F088A3113031F44A2D6C2DF2
:100B1000CE010E946F0407C0012F212F462D692DA1
:100B2000CE010E94C70488A27694A394610ECBCF15
:100B3000C394910EA7CF88A228853C818985329FD6
:100B4000800D112489879F81992399F0082E000C2C
:100B5000990B44E550E0239F40195109112448178F
:100B600059073CF49D818A85299F800D11248A872D
:100B7000198681E090E0DF91CF911F910F91FF9056
:100B8000EF90DF90CF90BF90AF909F908F907F902D
:100B90006F900895DF92EF92FF920F931F93CF9380
:100BA000DF931F92CDB7DEB78C01D62EF42EE12C49
:100BB000E21654F44E2D4F0D6D2DC80129830E946D
:100BC0006F04E3942981F4CF0F90DF91CF911F91AF
:100BD0000F91FF90EF90DF9008958F929F92AF92C8
:100BE000BF92CF92DF92EF92FF920F931F93CF931A
:100BF000DF936C01B62EA42EC22F11E0121BF22E31
:100C0000F194FF0CD1E0802F8170882E9924939469
:100C10009E0C02708FEF8D0F8C17C4F517FD04C06A
:100C2000C150F394F3941F0D8D2F880F8F5F180F11
:100C3000882099F02C2F220F290D4A2D4C1B6D2F47
:100C40006B0DC6010E94CA0523E02E0D4A2D4D1BD7
:100C50006C2F6B0DC6010E94CA05002399F02C2F42
:100C6000220F290D4A2D4C1B6B2D6D1BC6010E94B6
:100C7000CA0523E02E0D4A2D4D1B6B2D6C1BC601A2
:100C80000E94CA05DF5FE394E394C4CFDF91CF9164
:100C90001F910F91FF90EF90DF90CF90BF90AF909A
:100CA0009F908F9008954F925F926F927F928F9254
:100CB0009F92AF92BF92CF92DF92EF92FF920F93EB
:100CC0001F93CF93DF9300D000D01F92CDB7DEB734
:100CD0004091B8035091B9036091BA037091BB037E
:100CE0002FB7F8948091340190913501A09136018D
:100CF000B09137012FBF481B590B6A0B7B0B8091BA
:100D0000B70390E0A0E0B0E00091B3031091B4030A
:100D10002091B5033091B60384179507A607B7074E
:100D200030F4011511052105310509F039C3012BF6
:100D3000022B032B09F032C380914F0381508E3F69
:100D400018F580914E03813021F5809162038F5F09
:100D50006091630387FD09C0082E000C990B70E0B9
:100D60006F5F7F4F0E943415682F6093620387E1A5
:100D700093E09093BD038093BC0388E48093BE030B
:100D80008DE593E00E94050480914F0381508E3FD2
:100D900070F480914D03813009F0AEC38AE093E096
:100DA0009093BD038093BC0388E48093BE0380E0EE
:100DB0000E94E10B80915E03882309F4ADC080910D
:100DC00072038111A9C080916A0390916B03E09135
:100DD0006F03F0917003EE0FFF1FE80FF91F4591AD
:100DE00054914115510501F520916E03222331F0F4
:100DF0001092700310926F03FC0114C010925E03F6
:100E000080915D03882341F080E00E94E10BE09136
:100E10006F03F09170032FC060E08DE593E00E94B6
:100E200040027AC0459154919A013695279536959E
:100E3000279540FF51C0CA0116E0969587951A95EF
:100E4000E1F78F71952F96959695969590512F7005
:100E5000223071F1F8F4211117C08B3008F08AE0CC
:100E600080937303E0916F03F09170033196F093D8
:100E70007003E0936F03EE0FFF1F80916A03909160
:100E80006B03E80FF91FCECF213061F760E00E94BD
:100E90004E0CE8CF2330B1F0243021F720916103CC
:100EA000829F802D112480937A0390937B03DACF65
:100EB00020916103829F802D11248093760390936B
:100EC0007703D0CF20916103829F802D11248093DE
:100ED000780390937903C6CF2F7320937103809189
:100EE0006103859F802D11248093720310928203E9
:100EF000109281031092800381E0809374038093A9
:100F00002F011092750380916F03909170030196E9
:100F10009093700380936F0380917403882309F486
:100F2000F3C080917203811106C060E08DE593E00B
:100F30000E944002E9C08150809372038091820335
:100F4000811148C020918003309181032F5F3F4F72
:100F5000C901880F991FE0917C03F0917D03E80F90
:100F6000F91F65917491862F877080938303AB017D
:100F7000E3E056954795EA95E1F7CA01969587957E
:100F8000972F96959695909384038F739091610314
:100F9000899F802D112480938203417040933301F7
:100FA000309381032093800380917E0390E0281783
:100FB000390780F020917F03222339F0821B9109A9
:100FC000909381038093800305C060E08DE593E0FA
:100FD0000E9440028091820381508093820380911D
:100FE000750321E0280F2093750340917103309120
:100FF0008403340F80916903380F30935F0360914D
:101000007803662371F070E0822F022E000C990B9A
:101010000E94341580917903869F300D11243093FE
:101020005F0380915F0390E0849664E270E00E9429
:10103000341580935F0330917303309360036091A4
:101040007603662381F0062E000C770B822F022E8A
:10105000000C990B0E94341580917703869F300D08
:1010600011243093600360917A036623A1F0822FEC
:10107000220F990B70E00E943415CB0162E070E002
:101080000E94341520917B0390916003289F900D5E
:10109000112490936003809160034F3341F08A30B4
:1010A0000CF089E087FD80E08093600302C010921D
:1010B0006003F894E0915F03F0E0EA5CFE4FE49196
:1010C000E093320130916003209185033203900157
:1010D0001124409183034203C001439F900D1124CA
:1010E0000090620302C0880F991F0A94E2F797FFED
:1010F00002C081589F4F880F892F881F990B8093BA
:1011000031018093300178948091BE03882309F4E3
:1011100096C08C3020F49CE0C92EC81A01C0C12CA6
:10112000DD24D394D0928E031092A6031092A703CD
:10113000E0908B033DE2B32E1B2D1E191C0D03E026
:101140000E0D2EE4412F63E086E893E00E94C70471
:101150004CEFF42EFE0C1D5FEF2C01E023E0412F3D
:1011600060E586E893E00E94ED0502E023E0412F70
:1011700063E086E893E00E94ED05D092A603D0924A
:10118000A70300918B0313E0100FEB2CE01AEC0C7B
:1011900023E04E2D622F86E893E02D830E946F049A
:1011A0002D812F5F2135A9F71E0DFF24FA94F10E32
:1011B00023E04F2D622F86E893E02D830E946F0479
:1011C0002D812F5F2135A9F7035033E0E30E202F47
:1011D0004E2D60E086E893E00E94CA05202F4E2D38
:1011E00063E586E893E00E94CA0541E06E2D83E046
:1011F0000E94890C42E06E2D80E50E94890C1450FB
:1012000044E0612F80E50E94890C48E0612F83E073
:101210000E94890C84E080938F0380918B03C81A0D
:101220008C2D815D809390038091BC039091BD03D0
:101230000E947D0B8091BE0381508093BE038091FC
:10124000540390915503892B09F480C011E0109349
:10125000A6031092A70390918A0385E5891B8093CA
:101260008F031092900380915103813009F451C093
:1012700030F090915003853008F063C05EC060E0AC
:101280008DE593E00E94400210925E0310938E035E
:10129000E8E8F1E0E491EF5FE0938A03E9E8F1E048
:1012A000E491EF5FE0938B038AE891E09093A503CC
:1012B0008093A403109255031092540310928C0350
:1012C00018EA0E9453068823E1F38AE791E00E941E
:1012D0007D0B609152037091530380E090E04AE0EF
:1012E0000E94070D85E691E00E947D0B612F6295BB
:1012F0006F7070E080E090E04AE00E94070D8AE5A0
:1013000091E00E947D0B80914D03813009F0FAC07D
:101310001DC08091A9039091AA03A091AB03B09145
:10132000AC038F709927AA27BB270897A105B105A1
:1013300010F487E009C088E707C0992339F08B5F74
:1013400003C0992319F08FE20E94480D0E943D0BC3
:1013500080918C0381110EC088EF91E0E8E3F1E009
:10136000DF019C011D9221503040E1F710928F0364
:10137000109290030E945C036093B3037093B403D4
:101380008093B5039093B6032091AF033091B003DF
:10139000621B730B7093AE036093AD0380E0CCC00F
:1013A0002FB7F8948091340190913501A0913601C6
:1013B000B09137012FBF2091B703820F911DA11D5E
:1013C000B11D8093B8039093B903A093BA03B0936F
:1013D000BB038091A9039091AA03A091AB03B091A4
:1013E000AC030196A11DB11D8093A9039093AA039C
:1013F000A093AB03B093AC031092B3031092B40369
:101400001092B5031092B6030E945C036093AF0381
:101410007093B0038093B1039093B203809139032A
:1014200090913A032FE0289F8001299F100D1124ED
:1014300085E10E944503800F911F24E096958795D2
:101440002A95E1F790933A0380933903209138036A
:10145000222309F44BC060913C03262F30E040E08A
:1014600050E029833A834B835C83C0903D03D12CA9
:10147000E12CF12C40914003509141034A01A12CF1
:10148000B12C20913E0330913F032901612C712C36
:101490008217930728F09C014817590708F49A010E
:1014A000C901A0E0B0E09C01AD012419350946094D
:1014B000570969817A818B819C816C197D098E091C
:1014C0009F090E941815A5019401241935094609A0
:1014D00057090E948B13C20ED31EE41EF51EC09244
:1014E0003B036C2D70E085E00E94E6020E94CA0A70
:1014F0000E94530D81E020C0893209F058CC0E942F
:10150000AC0B55CC115009F0DCCE60E070E085E00A
:101510000E94E60283B7817F846083BF83B78160C6
:1015200083BF83B7816083BF889583B78E7F83BF76
:1015300083B78E7F83BFC5CE0F900F900F900F9013
:101540000F90DF91CF911F910F91FF90EF90DF905F
:10155000CF90BF90AF909F908F907F906F905F9053
:101560004F900895BC01009791F0FC01019000207C
:10157000E9F73197AF01481B590BE0918603F091D1
:1015800087030280F381E02D86E893E0099480E0F0
:1015900090E00895CF92DF92EF92FF920F931F9306
:1015A000CF93DF93C2E4D3E009E413E0FF24FA947D
:1015B00097E0E92EE00E62E088810E94AA0228816D
:1015C00030E0F901E356FC4F8491F901E757FC4FF5
:1015D000C490F901EB58FC4FD490DD2071F08111DB
:1015E0000E945102ED2DF0E0EE0FFF1FE559FC4F78
:1015F000A591B491EC91EC21B1F4F80180818F5F59
:10160000808360E088810E94AA0221960F5F1F4FAD
:10161000E012D1CFDF91CF911F910F91FF90EF900A
:10162000DF90CF900895F8018081882371F3F8014D
:101630008F3F11F41082E5CFF082E3CFCF93C82F14
:10164000F89460E0809195030E947A02809196035D
:1016500018161CF460E00E947A02CEBD00000DB4A2
:1016600007FEFDCF8EB58091960318161CF461E03D
:101670000E947A027894CF9108950F931F93CF938D
:10168000809192038F5F8093920308E311E0C0E0A2
:101690008C2F80640E941E0B80E80E941E0B61E06C
:1016A000809195030E947A028091960318161CF48B
:1016B00060E00E947A0280E090E0F801E80FF91FF4
:1016C00020812EBD00000DB407FEFDCF2EB5019682
:1016D0008435910591F78091960318161CF461E00A
:1016E0000E947A02CF5F0C5A1F4FC63089F680E401
:1016F000CF911F910F910C941E0B0F931F93CF93BB
:10170000DF938C01C0E0D0E0F801EC0FFD1F649185
:10171000662371F0E0918603F09187030190F081D8
:10172000E02D86E893E00995892B11F02196ECCF06
:10173000CE01DF91CF911F910F910895CF93DF9349
:101740000E947D0BEC0187E191E00E94B20A8C0FB0
:101750009D1FDF91CF91089588EF91E0E8E3F1E0DC
:10176000DF019C011D9221503040E1F710928F0360
:101770001092900383E493E00E947D0B0E943D0B46
:101780008CB583608CBD8DB58E7F8DBD8AE191E077
:10179000EEEFFFE3099510928C038EE193E00E9437
:1017A0009E0B0E943D0B0E94CA0A80914D0381301E
:1017B00039F062E370E080E090E00E948103F3CFB3
:1017C0000895AF92BF92CF92DF92EF92FF920F9364
:1017D0001F93CF93DF93C82ED12CE601C85CDC4F5A
:1017E0009DA1992309F44FC07E019FEFE91AF90AE0
:1017F000F70195A1911147C09EA58601000F111F09
:10180000085C1C4FF80134A525A5E32FF22FE90F42
:10181000F11DE90FF11D259134912F3FFFEF3F0797
:1018200011F41DA230C039ABF601EE0FFF1FEE5BC5
:10183000FC4F3327220F331F05A0F6A1E02DE20F46
:10184000F31FA590B49081111AC060E08DE593E07C
:101850000E944002F801B3AAA2AAF601EE0FFF1FF0
:10186000E65BFC4F16A215A281E0F70185A389E093
:101870008BAF1EAEFE017B9615A2329615A229965D
:101880008DA18F5F8DA3DF91CF911F910F91FF905D
:10189000EF90DF90CF90BF90AF90089570E0DB01A4
:1018A000AA0FBB1FA85CBC4FD4962C91D497D59699
:1018B0009C91D597E22FF92FE80FF11DE80FF11D4C
:1018C000259134915F9696963C932E939597F901C6
:1018D0008591949190916103989F802D1124685C6B
:1018E0007C4FFB01B19685A3F901A591B4914B2FD3
:1018F00050E0E82FF0E04E175F0720F4F901259142
:101900003491832FFB01B296899F802D112485A3EA
:101910000895AF92BF92CF92DF92EF92FF920F9312
:101920001F93CF93DF93182F062FC1E0D3E08AEFE8
:10193000D82E9EEFE92E842F8470C82E842F8270BB
:10194000B82E842F8870A82E4170F42E8C2F880F0B
:101950008F5FE80ECC2081F04D2F400F6C2F610F70
:1019600086E893E00E946F044C2F400F6D2F610FAB
:1019700086E893E00E946F04BB2081F0402F4D1B4E
:101980006C2F610F86E893E00E946F04402F4C1B80
:101990006D2F610F86E893E00E946F04AA2081F00A
:1019A0004C2F400F612F6D1B86E893E00E946F045F
:1019B0004D2F400F612F6C1B86E893E00E946F044F
:1019C000FF2081F0402F4C1B612F6D1B86E893E0B8
:1019D0000E946F04402F4D1B612F6C1B86E893E023
:1019E0000E946F04CD1744F4E7FC04C0D150D39497
:1019F000D394ED0CCF5FAACFDF91CF911F910F91C0
:101A0000FF90EF90DF90CF90BF90AF9008958F92AE
:101A10009F92AF92BF920F931F93CF93DF93CDB757
:101A2000DEB7A1970FB6F894DEBF0FBECDBF19A2E7
:101A3000423008F44AE08E010F5D1F4F842E912C36
:101A4000A12CB12CA50194010E94BD13E62FB90170
:101A5000CA0101501109EA3014F4E05D01C0E95CEB
:101A6000D801EC93232B242B252B61F7C8010E946E
:101A7000B20AA1960FB6F894DEBF0FBECDBFDF91BC
:101A8000CF911F910F91BF90AF909F908F9008952D
:101A9000E0918603F09187030190F081E02D682F9B
:101AA00086E893E009948091540390915503892B23
:101AB000B1F180915C038F7169F584E10E94450367
:101AC000BC01990F880B990B0E941F1426EE3FE36F
:101AD0004EEC50E40E9483140E94EE139B0170931D
:101AE000530360935203672B91F084E0809351037A
:101AF000E4E5F3E080E0419151912417350718F4B3
:101B00008093510308958F5F8430A9F703C08FEF4E
:101B10008093510380915C038F5F80935C030895F1
:101B2000789484B5826084BD84B5816084BD85B5B8
:101B3000826085BD85B5816085BD80916E008160C4
:101B400080936E001092810080918100826080936A
:101B5000810080918100816080938100809180006C
:101B60008160809380008091B10084608093B10097
:101B70008091B00081608093B00080917A00846091
:101B800080937A0080917A00826080937A008091BD
:101B90007A00816080937A0080917A0080688093D7
:101BA0007A001092C10082E38093B70381E090E055
:101BB000A0E0B0E08093B3039093B403A093B50387
:101BC000B093B6038FEF8093A803E0E8F7E7259181
:101BD00034912130304C09F049C0E6E9F7E7E4914F
:101BE000E0939103E7E9F7E7E491E0933C03E8E948
:101BF000F7E7E491E0933D03E9E9F7E785919491F4
:101C000090933F0380933E03EBE9F7E7859194912E
:101C1000909341038093400387E080936303EEE950
:101C2000F7E7E491E0936203EFE9F7E7E491E093EB
:101C3000A803E0EAF7E78591949190935503809388
:101C40005403E2EAF7E785919491909357038093C8
:101C50005603E4EAF7E785919491909359038093B2
:101C60005803E6EAF7E7859194912CC09CE39093A2
:101C7000910310923C0380933D0380E293E09093A4
:101C80003F0380933E0384ED93E090934103809360
:101C9000400387E080936303809362038CEA9DE0B6
:101CA00090935503809354038EED9DE090935703DA
:101CB0008093560384E79EE09093590380935803E2
:101CC0008CE39FE090935B0380935A03C1E0C09341
:101CD00038036FEF70E085E00E94E60288E08093B1
:101CE000420389E08093430387E08093440386E0C6
:101CF00080934503D4E0D093460382E0809347036A
:101D000081E1809348030E94CA0A8CE39FE090938C
:101D1000530380935203D0935103C0935C038BE031
:101D2000809394038DE08093930380E180939503E7
:101D30008EE0809397038FE080939603C0938E0389
:101D4000C093A6031092A703C0938D03E8E8F1E0C7
:101D5000E491EF5FE0938A03E9E8F1E0E491EF5F5B
:101D6000E0938B038AE891E09093A5038093A4030A
:101D7000CFB7F89480912801811127C0EFE7F3E0F5
:101D80008491E3E9F3E09491E82FF0E0EE0FFF1F78
:101D9000E658FF4FA591B491EC91E92321F461E05D
:101DA0008AE00E947A0261E08AE00E94AA028CB571
:101DB00080618CBD8CB580648CBD61E08DE00E943B
:101DC000AA0261E08BE00E94AA02809128018F5F45
:101DD00080932801CFBF8CB58F7D8CBD8CB58C7F57
:101DE00081608CBD8DB581608DBD8CB58C608CBDE6
:101DF00061E0809194030E94AA0261E080919303C4
:101E00000E94AA0261E0809195030E94AA0280913B
:101E1000970318161CF461E00E94AA0280919603B1
:101E200018161CF461E00E94AA028091970318160C
:101E300074F460E00E947A026AE070E080E090E072
:101E40000E94810361E0809197030E947A02809151
:101E50009303082E000C990BFC01EB58FC4FE49106
:101E6000F0E0EE0FFF1FEC57FF4F259134913093B8
:101E70009B0320939A03FC01E757FC4FE491E09306
:101E8000A10380919403082E000C990BFC01EB58E0
:101E9000FC4FE491F0E0EE0FFF1FEC57FF4F259150
:101EA00034913093990320939803FC01E757FC4F3A
:101EB000E491E093A00380919603082E000C990B07
:101EC000FC01EB58FC4FE491F0E0EE0FFF1FEC57E4
:101ED000FF4F2591349130939D0320939C03FC0187
:101EE000E757FC4FE491E093A20380919503082EFD
:101EF000000C990BFC01EB58FC4FE491F0E0EE0F65
:101F0000FF1FEC57FF4F2591349130939F0320938F
:101F10009E03FC01E757FC4FE491E093A30381E2A9
:101F20000E941E0B84E10E941E0B8091910387FF8B
:101F300003C08FE7809391038091910380680E9492
:101F40001E0B80E20E941E0B8CE00E941E0B0E9462
:101F50003D0BC1E0C093610384E08093850386E775
:101F600090E090936D0380936C0360E080E00E94AA
:101F70004E0C61E070E083E00E94E6028091B100C7
:101F8000887F81608093B100F89410928000109255
:101F90008100109285001092840088E191E0909376
:101FA00089008093880080918100886080938100FF
:101FB0008091810081608093810080916F008260B8
:101FC00080936F0078940E94530D80914E0381306E
:101FD00019F4109262031EC0809151038823C9F343
:101FE00060E08DE593E00E9440028EE890E09093DF
:101FF0006B0380936A031092700310926F03C09377
:102000005E0389E080937303109276031092780345
:1020100010927A038091A803882309F48AC181E091
:1020200080938E0310928D0310928C0310925003B4
:102030008093A6038093A70338EB432E30E0532E02
:1020400049EB842E40E0942EC1E0DCE00E94530670
:102050008823E1F3E8E2F1E08491F2018491F40154
:10206000A4900091A603082E000C990B6C01F7E0D8
:10207000CF0ED11CD7FE04C06C012EE0C20ED11CC5
:1020800023E0D594C7942A95E1F7181619060CF1A8
:1020900010928F03D093900388E291E00E947D0B11
:1020A00080918A03982F990F890F81958D5A80937B
:1020B0008F0380918B03982F990F890F8195835DF2
:1020C000809390038091A90384FF9BC084EB90E0F0
:1020D0009AC01A14ECF64A2D41330CF040E38535D2
:1020E000910514F084E590E0F090920310E028E36D
:1020F00031E091E06AEB70E0A42E440FBB08DD24D0
:10210000412F50E04A155B051CF6FB01E4900130BD
:10211000B9F4D90140E85E2D542319F05C91592B94
:102120005C9350E0559547954115510519F431964A
:10213000E49040E811965A2F521B581760F358C08C
:1021400001111AC0792E7094FB01D90140E85E2D6F
:10215000542319F05C9157215C9350E055954795B5
:102160004115510519F43196E49040E811965A2F23
:10217000521B581760F33CC0033019F5692E609468
:10218000FB01D90140E8722E3A2E321A5E2D5423FB
:1021900041F03F245C9130FE02C0592B01C0562112
:1021A0005C9350E0559547954115510519F43196CA
:1021B000E49040E811965A2F5719581728F3FC2637
:1021C00017C0FB01D90140E8542F5E2119F05C9142
:1021D00059275C9350E0559547954115510519F4E1
:1021E0003196E49040E811965A2F521B581760F32D
:1021F000990F19F42C5A3F4F91E01F5F6C0D7D1D14
:102200007FCF80EB90E00E949E0B80918A03982FF5
:10221000990F890F81958D5A80938F038091900338
:102220008F5F8093900380916203882319F08CEA7A
:1022300090E002C088EA90E00E949E0B80918A03A1
:10224000982F990F890F81958D5A80938F038091D4
:1022500090038F5F8093900384EA90E00E949E0B2E
:1022600080914E038130B1F4809162038F5F609161
:10227000630387FD09C0082E000C990B70E06F5FA7
:102280007F4F0E943415682F609362038DE593E0C1
:102290000E94050480914D038130B9F08091A8031C
:1022A000482F50E060E070E00091A9031091AA036C
:1022B0002091AB033091AC030417150726073707AD
:1022C00008F478C18F3F09F475C18FEF8093A8039C
:1022D00060E08DE593E00E94400210925E03109250
:1022E0007403109272031092810310928003109273
:1022F0007503109230011092310110922F010E944B
:102300002F028CE990E090936B0380936A03109204
:10231000700310926F0381E080935E0399E09093C5
:102320007303109276031092780310927A038093CD
:102330005003C0905203D0905303C094D094E12C2A
:10234000F12C0E945C034B015C010E945C03A5011F
:1023500094012095309540955095609570958095A5
:1023600090950E9418159B01AC01C701B6010E940F
:1023700018154B015C018091390390913A036C016F
:10238000E12CF12C0E945C03C60ED71EE81EF91E3C
:10239000C701B601680D791D8A1D9B1D6115710568
:1023A0008105910511F00E9482131092500382E082
:1023B00080938E0380E0C82E80E0D82ECAE4D0E05F
:1023C00097E0A92EB12C2AE2822E912C0E9453066E
:1023D000882309F4E8C080914A0381508E3F68F455
:1023E0008091050190910601823091050CF4EAC0BC
:1023F0000297909306018093050180914C038150D0
:102400008E3F68F480910501909106018F3191050E
:102410000CF0DBC002969093060180930501809139
:102420004D0381508E3F68F480912D0190912E01D3
:10243000823091050CF4CCC0029790932E018093CA
:102440002D0180914E0381508E3F68F480912D01C3
:1024500090912E018F3191050CF0BDC002969093A2
:102460002E0180932D010091030110910401E09051
:102470002901F0902A01E00EF11EF0922A01E0926B
:102480002901809101019091020120912B0130914D
:102490002C01280F391F30932C0120932B012B3254
:1024A00031057CF09195819591099093020180937B
:1024B000010190922C0180922B018DE593E00E9406
:1024C000050480912B0190912C018A3F9F4F9CF431
:1024D00080910101909102019195819591099093CC
:1024E00002018093010110922C0110922B018DE5C5
:1024F00093E00E9405042AEFE2162FEFF2069CF407
:10250000809105019091060120912B0130912C01C1
:10251000AC01495F5F4F421753072CF0079728170C
:1025200039070CF05BC08091290190912A018C340D
:1025300091059CF080912D0190912E0120912B010D
:1025400030912C01AC01495F5F4F421753072CF0CB
:102550000797281739070CF051C000E123E040919C
:10256000050160E086E893E00E94C70423E0409103
:102570002D0161E586E893E00E94C704F0902B01ED
:10258000109129014AEF4F0D2DE0612F86E893E06D
:102590000E94CA05E12C03E026E04F2D612F86E85A
:1025A00093E00E94ED05C114D10409F40FCF0E94FD
:1025B00000000CCF80914F03813009F047CD0E947D
:1025C000AC0B42CD80E090E014CF80E290E023CFCE
:1025D00080E090E032CF80E290E041CF119501950C
:1025E00011091093040100930301B0922A01A092F3
:1025F00029018DE593E00E94050495CF80910301A8
:102600009091040191958195910990930401809393
:102610000301D0932A01C09329018DE593E00E9424
:1026200005049BCF10928903109288038FE091E0FC
:102630009093870380938603809105019091060112
:1026400090932E0180932D012AE430E030932A01EB
:102650002093290190932C0180932B0108958F9250
:102660009F92AF92BF92CF92DF92EF92FF92CF9361
:10267000DF93EC01688179818A819B816115710505
:102680008105910521F464E279ED8BE597E02DE178
:1026900033EF41E050E00E948B1349015A019B0146
:1026A000AC01A7EAB1E40E94AA136B017C01ACEE75
:1026B000B4EFA50194010E94B813DC01CB018C0D8D
:1026C0009D1DAE1DBF1DB7FF03C00197A109B048F6
:1026D00088839983AA83BB83BC01CD019F77DF9157
:1026E000CF91FF90EF90DF90CF90BF90AF909F90F1
:1026F0008F9008950E942F13089587E091E00E9423
:102700002F130895609307017093080180930901C6
:1027100090930A010895052E97FB1EF400940E94E1
:10272000A21357FD07D00E94BD1307FC03D04EF43F
:102730000C94A21350954095309521953F4F4F4FE3
:102740005F4F089590958095709561957F4F8F4F5D
:102750009F4F08950E94DF13A59F900DB49F900D89
:10276000A49F800D911D11240895B7FF0C94AA1306
:102770000E94AA13821B930B0895A1E21A2EAA1B92
:10278000BB1BFD010DC0AA1FBB1FEE1FFF1FA21721
:10279000B307E407F50720F0A21BB30BE40BF50B1E
:1027A000661F771F881F991F1A9469F760957095A7
:1027B000809590959B01AC01BD01CF010895A29F2A
:1027C000B001B39FC001A39F700D811D1124911D05
:1027D000B29F700D811D1124911D08950E946214F5
:1027E00088F09F5798F0B92F9927B751B0F0E1F0D2
:1027F000660F771F881F991F1AF0BA95C9F714C082
:10280000B13091F00E947C14B1E008950C947C14D6
:10281000672F782F8827B85F39F0B93FCCF38695BA
:1028200077956795B395D9F73EF490958095709517
:1028300061957F4F8F4F9F4F0895E89409C097FB94
:102840003EF490958095709561957F4F8F4F9F4F87
:102850009923A9F0F92F96E9BB279395F6958795CB
:1028600077956795B795F111F8CFFAF4BB0F11F48E
:1028700060FF1BC06F5F7F4F8F4F9F4F16C0882335
:1028800011F096E911C0772321F09EE8872F762F6B
:1028900005C0662371F096E8862F70E060E02AF0AC
:1028A0009A95660F771F881FDAF7880F9695879598
:1028B00097F9089557FD9058440F551F59F05F3F01
:1028C00071F04795880F97FB991F61F09F3F79F052
:1028D00087950895121613061406551FF2CF4695D4
:1028E000F1DF08C0161617061806991FF1CF869556
:1028F0007105610508940895E894BB27662777273A
:10290000CB0197F908950E9496140C9407150E9424
:10291000F91438F00E94001520F0952311F00C9462
:10292000F0140C94F61411240C947D140E945A1483
:1029300070F3959FC1F3950F50E0551F629FF00112
:10294000729FBB27F00DB11D639FAA27F00DB11D2B
:10295000AA1F649F6627B00DA11D661F829F2227B4
:10296000B00DA11D621F739FB00DA11D621F839F3B
:10297000A00D611D221F749F3327A00D611D231F11
:10298000849F600D211D822F762F6A2F11249F575F
:1029900050409AF0F1F088234AF0EE0FFF1FBB1F62
:1029A000661F771F881F91505040A9F79E3F510521
:1029B00080F00C94F0140C947D145F3FE4F3983E87
:1029C000D4F3869577956795B795F795E7959F5FCB
:1029D000C1F7FE2B880F911D9695879597F908955D
:1029E00097F99F6780E870E060E008959FEF80ECC2
:1029F000089500240A941616170618060906089565
:102A000000240A9412161306140605060895092ECA
:102A10000394000C11F4882352F0BB0F40F4BF2B39
:102A200011F460FF04C06F5F7F4F8F4F9F4F089579
:102A3000DB018F939F930E94AA13BF91AF91A29F36
:102A4000800D911DA39F900DB29F900D11240895AC
:102A5000991B79E004C0991F961708F0961B881FF0
:102A60007A95C9F78095089597FB072E16F4009480
:102A700007D077FD09D00E94481507FC05D03EF429
:102A8000909581959F4F0895709561957F4F08951A
:102A9000AA1BBB1B51E107C0AA1FBB1FA617B70784
:102AA00010F0A61BB70B881F991F5A95A9F78095A0
:102AB0009095BC01CD010895EE0FFF1F0590F49194
:102AC000E02D099481E090E0F8940C946715F89457
:022AD000FFCF36
:102AD200010300030010000100000000000000FEDE
:102AE2000404023B023A020D0A004C4F4144455293
:022AF2000000E2
:00000001FF
