:100000000C9460020C9488020C9488020C94880270
:100010000C9488020C9488020C9488020C94880238
:100020000C9488020C9488020C9488020C94D404DA
:100030000C9488020C9488020C9488020C94880218
:100040000C948A040C9488020C9488020C94880204
:100050000C9488020C9488020C9488020C948802F8
:100060000C9488020C9488020101FF030101F7033C
:10007000506F6E6720666F72203220706C617965F8
:1000800072730A2042593A20526F6B204B6F7300F3
:10009000401E000000000000000000000000000002
:1000A0000000000000000000000000000000000050
:1000B0000000000000000000000003FFFF0000003F
:1000C000000002000100000000000200010000002A
:1000D000000002000100000000000200010000001A
:1000E000000002000100000000000200010000000A
:1000F00000000200010000000000020001000000FA
:100100000000020001000000000003FFFF000000EB
:1001100000000200000000000000020001FFE7FCF8
:10012000FF800200010024048080020001002404FA
:100130008080020001002404808002000100240469
:100140008080020001002404808002000100240459
:100150008080020001FFE404FF8000000000000036
:10016000008000000000000000800000000000008F
:10017000008000000000000000800000000000007F
:10018000FF80004500680100006C0068000000006E
:1001900000240027002A0000000000250028002B72
:1001A000000500893008023802497868140000050B
:1001B00000680138010000050038016801000017DF
:1001C0005344001613780016131400151020001560
:1001D000201000540A03E181867F3E186D830F0FC3
:1001E0000E0183866033186DC3198F1803C38E60A8
:1001F00033186DE330CF1803C39E603630CDE36013
:10020000CF3006C79E7E3E30CDB360CF300CC6F6F1
:10021000603330D9B660CF33CFCCF66061B0DB1E2F
:1002200060CF30D86CE6C061B0DB1E618F19986C6E
:10023000C6C063B19B0E330F0FB078C6FF7E1F1B85
:10024000061E0FF6E8DBCFC3B8AEA49B928A827B72
:10025000746E68625C57524E4945413E3A373431BC
:100260002E2C29272523210A0A153A49676E6F7219
:1002700065006D560A0A504C45415345205455526D
:100280004E204F464620004C4F5720424154544583
:10029000525921200003053F213F1208120A100A7B
:1002A0000E1C0E0C1E0C141A14161F161E131E1EE6
:1002B0001B1E1E1F1E3F213F3A2F3A173D173F219D
:1002C0003F181F02040A041F0E04040E1F0A1F0A0F
:1002D0000E0E1F04110E2E252E2F2A2E262929023E
:1002E0001F02081F08150E04040E150E15151B1508
:1002F0001B040604040C04000000001700030003A4
:100300001F0A1F16371A1904130A153A00030000B2
:100310000E11110E000A040A040E04003000040439
:10032000040010001804031F111F121F101D1517C1
:1003300011151F07041F17151D1F151D01011F1F74
:10034000151F17151F000A00003200040A110A0ABF
:100350000A110A040115020E11171E051E1F150AA7
:100360000E110A1F110E1F15111F05010E111D1F61
:10037000041F111F1108100F1F041B1F10101F0650
:100380001F1E040F0E110E1F09060E112E1F051A37
:10039000121509011F011F101F0F180F1F0C1F1B23
:1003A000041B031C03191513001F11030418111F4C
:1003B000000201022020200001020C121E1F120C5C
:1003C0000C12120C121F0C1A14041E05242A1E1FD4
:1003D000021C141D1020201D1F0814111F101E04C4
:1003E0001E1E021C0C120C3E0A040C123E1E0402BD
:1003F00014160A020F120E101E0E100E1E081E12E8
:100400000C1226281E322A26041E21001F00211E3F
:10041000040102013F213F172B152010204C4F41B2
:1004200044455200172B16201314000A4E6F205318
:10043000442063617264206F720A6E6F204C4F41DA
:100440004445522E4845580A0A153A4578697400C1
:100450001D20466C617368696E670A20206C6F61AD
:100460006465722E2E2E0A0A444F4E27542054558E
:10047000524E204F46462100000000002300260077
:100480002900040404040404040402020202020217
:100490000303030303030102040810204080010248
:1004A00004081020010204081020000000080002C7
:1004B0000100000304070000000000000000A31476
:1004C00011241FBECFEFD8E0DEBFCDBF11E0A0E00A
:1004D000B1E0E8E0FEE202C005900D92A232B10761
:1004E000D9F723E0A2E2B1E001C01D92A73CB20718
:1004F000E1F712E0C0E6D2E004C02197FE010E94BD
:10050000F716CF35D107C9F70E946C100C9402176B
:100510000C940000CF92DF92EF92FF920F931F9303
:10052000CF93DF936C017A018B01C0E0D0E0CE1550
:10053000DF0589F0D8016D918D01D601ED91FC9117
:100540000190F081E02DC6010995892B11F47E01FF
:1005500002C02196ECCFC701DF91CF911F910F917F
:10056000FF90EF90DF90CF900895089580E090E0A5
:1005700008950E94FD16DC01ED91FC910190F0813F
:10058000E02D09946115710579F0FB0101900020BF
:10059000E9F73197AF01461B570BDC01ED91FC9158
:1005A0000280F381E02D099480E090E008954F925D
:1005B0005F926F927F92EF92FF920F931F93CF9370
:1005C000DF93CDB7DEB7A1970FB6F894DEBF0FBEAD
:1005D000CDBF7C01FA01CB0119A2223008F42AE038
:1005E0008E010F5D1F4F422E512C612C712CBF01CB
:1005F000A30192010E945815F901CA010150110985
:100600006A3014F4605D01C0695CD8016C93232BDF
:10061000242B252B61F7B801C7010E94C202A196C5
:100620000FB6F894DEBF0FBECDBFDF91CF911F9103
:100630000F91FF90EF907F906F905F904F90089593
:10064000833081F028F4813099F08230A1F0089550
:100650008730A9F08830B9F08430D1F480918000DF
:100660008F7D03C0809180008F77809380000895F4
:1006700084B58F7702C084B58F7D84BD0895809145
:10068000B0008F7703C08091B0008F7D8093B00061
:1006900008951F93CF93DF93282F30E0F901E6559B
:1006A000FB4F8491F901EA56FB4FD491F901EE57C3
:1006B000FB4FC491CC23C9F0162F81110E94200357
:1006C000EC2FF0E0EE0FFF1FE956FE4FA591B4911D
:1006D0008FB7F894111105C09C91ED2FE095E92397
:1006E00002C0EC91ED2BEC938FBFDF91CF911F9166
:1006F0000895CF93DF9390E0FC01EA56FB4F2491DD
:10070000FC01EE57FB4F8491882361F190E0880F44
:10071000991FFC01E357FE4FC591D491FC01E956A6
:10072000FE4FA591B491611109C09FB7F8948881DB
:10073000209582238883EC912E230BC0623061F4D4
:100740009FB7F8943881822F809583238883EC911A
:100750002E2B2C939FBF06C08FB7F894E8812E2BC9
:1007600028838FBFDF91CF9108951F93CF93DF939D
:10077000182FEB0161E00E947903209711F460E0EB
:1007800004C0CF3FD10539F461E0812FDF91CF91D3
:100790001F910C944903E12FF0E0E655FB4FE491E3
:1007A000E330F9F048F4E130B9F0E230A1F584B576
:1007B000806284BDC8BD34C0E730E9F0E83019F18B
:1007C000E43049F580918000806280938000D0936E
:1007D0008B00C0938A0024C084B5806884BDC7BDE7
:1007E0001FC080918000806880938000D093890032
:1007F000C093880015C08091B00080688093B000DD
:10080000C093B3000DC08091B00080628093B000AF
:10081000C093B40005C0C038D1050CF0B5CFAFCF40
:10082000DF91CF911F9108958E3008F08E50877020
:10083000806480937C0080917A00806480937A0049
:1008400080917A0086FDFCCF80917800209179001C
:1008500090E0922B08953FB7F894809124019091F5
:100860002501A0912601B091270126B5A89B05C0BE
:100870002F3F19F00196A11DB11D3FBFBA2FA92F1F
:10088000982F8827820F911DA11DB11DBC01CD019C
:1008900042E0660F771F881F991F4A95D1F7089588
:1008A0008F929F92AF92BF92CF92DF92EF92FF9280
:1008B0006B017C010E942B044B015C01C114D1042B
:1008C000E104F104F1F00E942B04DC01CB01881952
:1008D0009909AA09BB09883E9340A105B10570F3A7
:1008E00021E0C21AD108E108F10888EE880E83E001
:1008F000981EA11CB11CC114D104E104F10419F724
:10090000DDCFFF90EF90DF90CF90BF90AF909F90A2
:100910008F9008951F920F920FB60F9211242F936C
:100920003F938F939F93AF93BF9380913C0190919E
:100930003D01A0913E01B0913F013091230123E0A0
:10094000230F2D3720F40196A11DB11D05C026E807
:10095000230F0296A11DB11D2093230180933C011A
:1009600090933D01A0933E01B0933F0180912401FB
:1009700090912501A0912601B09127010196A11D1A
:10098000B11D8093240190932501A0932601B0937B
:100990002701BF91AF919F918F913F912F910F9020
:1009A0000FBE0F901F9018951F920F920FB60F92C7
:1009B00011242F936F937F938F939F9360913901AD
:1009C000662359F1809122018F5F809322019091DB
:1009D0003A01891710F12091370181E028272093EF
:1009E00037011092220180913B01882369F08091A8
:1009F000000193E4899F802D1124895B809300017D
:100A00000E94C31690933801222329F08091380167
:100A10008093B40002C080E0FBCF9F918F917F91C3
:100A20006F912F910F900FBE0F901F901895FC01A2
:100A300061110DC0178A158A14A213A2108E10928C
:100A4000380110923901109237011092B4000895C4
:100A5000EF92FF920F931F93CF93DF931F92CDB727
:100A6000DEB77C018B01411105C060E049830E9423
:100A70001705498150E0FA01EE0FFF1FEE0DFF1D33
:100A800016870587DA011996AA0FBB1FAE0DBF1D89
:100A90001D921C92F701E40FF51F81E0818389E02C
:100AA000868B118E138E158E0F90DF91CF911F9133
:100AB0000F91FF90EF90089540E063E871E00C948F
:100AC00028058F929F92AF92BF92EF92FF920F9361
:100AD0001F93CF93DF93EC018B0181E0809396030A
:100AE0001092950310929403109258038093AE03D2
:100AF0008093AF038CE0F82E0E9489088823E1F3ED
:100B0000FE018491882319F0E090930301C0E12C49
:100B100063ED71E080E00E94ED0C0115110529F0F4
:100B2000B8018CE08E0D0E94ED0C10929703F092AC
:100B30009803CE010E949D0E80919203982F990FE9
:100B4000890F81958D5A8093970380919303982FF5
:100B5000990F890F8195835D809398038091B103EC
:100B600084FF03C08FEC91E002C08BEC91E00E9407
:100B7000BE0E80919203982F990F890F81958D5AFF
:100B800080939703809198038F5F8093980380915F
:100B90006A03882319F087EC91E002C083EC91E0AE
:100BA0000E94BE0E80919203982F990F890F819514
:100BB0008D5A80939703809198038F5F8093980359
:100BC0008FEB91E00E94BE0E809156038130B9F404
:100BD00080916A038F5F20916B0387FD0AC0082E06
:100BE000000C990B30E0B9016F5F7F4F0E94CF1668
:100BF000282F20936A0385E693E00E945C0580918C
:100C000055038130A9F08091B003482F50E060E097
:100C100070E08090B1039090B203A090B303B090C5
:100C2000B40384169506A606B70608F18F3FF9F0BF
:100C30008FEF8093B00360E085E693E00E94170594
:100C40001092660340E067EB71E085E693E00E9456
:100C5000280581E080935803DF91CF911F910F9178
:100C6000FF90EF90BF90AF909F908F9008958091EC
:100C70005703813009F040CF0E94CE0E3DCF8F92B6
:100C80009F92AF92BF92CF92DF92EF92FF928091AC
:100C9000B003882331F060E970E082E891E00E94BF
:100CA00061058091B003882331F060E070E080E757
:100CB00090E00E946105C0905A03D0905B03C094FD
:100CC000D094E12CF12C0E942B044B015C010E947A
:100CD0002B04A50194012095309540955095609581
:100CE0007095809590950E94B3169B01AC01C70149
:100CF000B6010E94B3164B015C01809141039091B3
:100D000042036C01E12CF12C0E942B04C60ED71E6D
:100D1000E81EF91EC701B601680D791D8A1D9B1DCD
:100D2000611571058105910511F00E941D15109244
:100D3000580382E080939603FF90EF90DF90CF906E
:100D4000BF90AF909F908F900895FC01643508F09C
:100D500053C0403308F050C090A1742F759575951D
:100D60007595262F062E000C330B542F577092309A
:100D7000A1F4F901E05CFE4F84E57802E00DF11D7D
:100D80001124808190E0052E02C0959587950A94E4
:100D9000E2F78095982F91700AC0933041F48485D2
:100DA0008170462740954170841303C014C091118F
:100DB00012C084E57802200D311D1124F901E05C98
:100DC000FE4F81E090E001C0880F5A95EAF78095C8
:100DD0009081892310C084E57802200D311D1124F3
:100DE000F901E05CFE4F81E090E001C0880F5A9568
:100DF000EAF79081892B80830895BF92CF92DF928A
:100E0000EF92FF920F931F93CF93DF931F92CDB773
:100E1000DEB77C01D62EC42E002E000C110B040F61
:100E2000111D47FD1A954C2D0C2C000C550B40172D
:100E300051077CF4B12CB21654F46B2D6D0D4C2D72
:100E4000C70129830E94A506B3942981F4CFC394D6
:100E5000EACF0F90DF91CF911F910F91FF90EF900C
:100E6000DF90CF90BF9008956F927F928F929F9264
:100E7000AF92BF92CF92DF92EF92FF920F931F93A8
:100E8000CF93DF93EC016A3019F42D819885A1C0CE
:100E90006D3009F4A4C01885BA84D98488A083E58C
:100EA0008D150CF47FC08FE28B150CF47BC08C8108
:100EB00090E00197189F9001199F300D1124C901EE
:100EC0008D0D911DD7FC9A95181619060CF06AC065
:100ED0008D81819FC00111248B0D911DB7FC9A95C6
:100EE000181619060CF05EC09D2CCD2CE62EF12CA8
:100EF000EC2DED190E2E000CFF0B8C8190E0E81705
:100F0000F9070CF04EC00197E817F90779F0E89E51
:100F10009001E99E300DF89E300D1124E20FF31F71
:100F20008E8D9F8DE80FF91F749001C0712C6B2C72
:100F3000AB2C2A2D2B19022E000C330B8D8190E047
:100F4000281739075CF570FE10C0113031F44A2DB6
:100F50006C2DCE010E94A5061DC0012F212F462D0C
:100F6000692DCE010E94FD0615C089A198A189179F
:100F700089F088A3113031F44A2D6C2DCE010E94E6
:100F8000A50607C0012F212F462D692DCE010E94F5
:100F9000FD0688A27694A394610ECBCFC394910EE4
:100FA000A7CF88A228853C818985329F800D112496
:100FB00089879F81992399F0082E000C990B44E5AD
:100FC00050E0239F401951091124481759073CF458
:100FD0009D818A85299F800D11248A87198681E049
:100FE00090E0DF91CF911F910F91FF90EF90DF90F4
:100FF000CF90BF90AF909F908F907F906F9008950B
:10100000DF92EF92FF920F931F93CF93DF931F9284
:10101000CDB7DEB78C01D62EF42EE12CE21654F4B7
:101020004E2D4F0D6D2DC80129830E94A506E39416
:101030002981F4CF0F90DF91CF911F910F91FF90F5
:10104000EF90DF9008958F929F92AF92BF92CF92D0
:10105000DF92EF92FF920F931F93CF93DF936C0178
:10106000B62EA42EC22F11E0121BF22EF194FF0C0B
:10107000D1E0802F8170882E992493949E0C027069
:101080008FEF8D0F8C17C4F517FD04C0C150F3947A
:10109000F3941F0D8D2F880F8F5F180F882099F004
:1010A0002C2F220F290D4A2D4C1B6D2F6B0DC601C5
:1010B0000E94000823E02E0D4A2D4D1B6C2F6B0D56
:1010C000C6010E940008002399F02C2F220F290D41
:1010D0004A2D4C1B6B2D6D1BC6010E94000823E09E
:1010E0002E0D4A2D4D1B6B2D6C1BC6010E94000856
:1010F000DF5FE394E394C4CFDF91CF911F910F9111
:10110000FF90EF90DF90CF90BF90AF909F908F9027
:1011100008954F925F926F927F928F929F92AF92BB
:10112000BF92CF92DF92EF92FF920F931F93CF93D4
:10113000DF9300D000D01F92CDB7DEB74091C0033F
:101140005091C1036091C2037091C3032FB7F8940B
:1011500080913C0190913D01A0913E01B0913F01F1
:101160002FBF481B590B6A0B7B0B8091BF0390E08C
:10117000A0E0B0E00091BB031091BC032091BD033F
:101180003091BE0384179507A607B70730F4011501
:1011900011052105310509F03EC3012B022B032B5C
:1011A00009F037C38091570381508E3F18F5809125
:1011B0005603813021F580916A038F5F60916B0344
:1011C00087FD09C0082E000C990B70E06F5F7F4F00
:1011D0000E94CF16682F60936A0384E294E0909394
:1011E000C5038093C40388E48093C60385E693E037
:1011F0000E945C058091570381508E3F70F480916E
:101200005503813009F0B3C387E194E09093C5039F
:101210008093C40388E48093C60380E00E94030F98
:1012200080916603882309F4ADC080917A0381110F
:10123000A9C08091720390917303E0917703F091BC
:101240007803EE0FFF1FE80FF91F459154914115E8
:10125000510501F520917603222331F01092780395
:1012600010927703FC0114C010926603809165030D
:10127000882341F080E00E94030FE0917703F09112
:1012800078032FC060E085E693E00E9417057AC0DE
:10129000459154919A01369527953695279540FFAB
:1012A00051C0CA0116E0969587951A95E1F78F719E
:1012B000952F96959695969590512F70223071F1B5
:1012C000F8F4211117C08B3008F08AE080937B037B
:1012D000E0917703F09178033196F0937803E093EF
:1012E0007703EE0FFF1F8091720390917303E80F55
:1012F000F91FCECF213061F760E00E94440FE8CFA4
:101300002330B1F0243021F720916903829F802D92
:1013100011248093820390938303DACF2091690391
:10132000829F802D112480937E0390937F03D0CFE2
:1013300020916903829F802D1124809380039093D4
:101340008103C6CF2F732093790380916903859F12
:10135000802D112480937A0310928A0310928903BE
:101360001092880381E080937C0380933701109270
:101370007D03809177039091780301969093780391
:101380008093770380917C03882309F4F3C08091D4
:101390007A03811106C060E085E693E00E9417059C
:1013A000E9C0815080937A0380918A03811148C0FB
:1013B00020918803309189032F5F3F4FC901880F27
:1013C000991FE0918403F0918503E80FF91F65915F
:1013D0007491862F877080938B03AB01E3E0569561
:1013E0004795EA95E1F7CA0196958795972F9695C7
:1013F000969590938C038F7390916903899F802DAC
:10140000112480938A03417040933B0130938903F8
:10141000209388038091860390E02817390780F095
:1014200020918703222339F0821B9109909389032D
:101430008093880305C060E085E693E00E9417056D
:1014400080918A03815080938A0380917D0321E0FB
:10145000280F20937D034091790330918C03340F42
:1014600080917103380F3093670360918003662386
:1014700071F070E0822F022E000C990B0E94CF16A3
:1014800080918103869F300D1124309367038091F2
:10149000670390E0849664E270E00E94CF16809328
:1014A000670330917B033093680360917E0366236A
:1014B00081F0062E000C770B822F022E000C990B68
:1014C0000E94CF1680917F03869F300D11243093A8
:1014D0006803609182036623A1F0822F220F990B8B
:1014E00070E00E94CF16CB0162E070E00E94CF1640
:1014F0002091830390916803289F900D112490936D
:101500006803809168034F3341F08A300CF089E022
:1015100087FD80E08093680302C010926803F8940E
:10152000E0916703F0E0ED5BFD4FE491E0933A0159
:101530003091680320918D03320390011124409172
:101540008B034203C001439F900D112400906A0356
:1015500002C0880F991F0A94E2F797FF02C08158D2
:101560009F4F880F892F881F990B80933901809393
:10157000380178948091C603882309F496C08C3092
:1015800020F49CE0C92EC81A01C0C12CDD24D394DC
:10159000D09296031092AE031092AF03E0909303A3
:1015A0003DE2B32E1B2D1E191C0D03E00E0D2EE483
:1015B000412F63E08EE893E00E94FD064CEFF42E8D
:1015C000FE0C1D5FEF2C01E023E0412F60E58EE86B
:1015D00093E00E94230802E023E0412F63E08EE8BD
:1015E00093E00E942308D092AE03D092AF03009103
:1015F000930313E0100FEB2CE01AEC0C23E04E2DBC
:10160000622F8EE893E02D830E94A5062D812F5F27
:101610002135A9F71E0DFF24FA94F10E23E04F2D7A
:10162000622F8EE893E02D830E94A5062D812F5F07
:101630002135A9F7035033E0E30E202F4E2D60E053
:101640008EE893E00E940008202F4E2D63E58EE87F
:1016500093E00E94000841E06E2D83E00E947F0F1E
:1016600042E06E2D80E50E947F0F145044E0612F10
:1016700080E50E947F0F48E0612F83E00E947F0F8A
:1016800084E08093970380919303C81A8C2D815D29
:10169000809398038091C4039091C5030E949D0E8E
:1016A0008091C60381508093C60380915C03909122
:1016B0005D03892B09F485C011E01093AE031092ED
:1016C000AF039091920385E5891B80939703109255
:1016D000980360915903613009F454C030F080914F
:1016E0005803653008F066C061C060E085E693E0AD
:1016F0000E9417051092660310939603E5E9F2E045
:10170000E491EF5FE0939203E6E9F2E0E491EF5FAA
:10171000E093930387E992E09093AD038093AC0349
:1017200010925D0310925C031092940318EA0E94D9
:1017300089088823E1F387E892E00E949D0E40919A
:101740005A0350915B0360E070E02AE08EE893E07A
:101750000E94D70282E792E00E949D0E412F42959F
:101760004F7050E060E070E08EE893E00E94FD0F63
:1017700087E692E00E949D0E80915503813009F02A
:10178000FCC01FC08091B1039091B203A091B3033C
:10179000B091B4038F709927AA27BB270897A1059A
:1017A000B10510F467E009C068E707C0882349F075
:1017B0006B5F03C0882329F06FE28EE893E00E94FC
:1017C000BB020E945D0E8091940381110EC088EFD0
:1017D00091E0E0E4F1E0DF019C011D9221503040F6
:1017E000E1F710929703109298030E942B046093E4
:1017F000BB037093BC038093BD039093BE03209101
:10180000B7033091B803621B730B7093B6036093F8
:10181000B50380E0CCC02FB7F89480913C01909143
:101820003D01A0913E01B0913F012FBF2091BF0328
:10183000820F911DA11DB11D8093C0039093C10320
:10184000A093C203B093C3038091B1039091B203FC
:10185000A091B303B091B4030196A11DB11D809373
:10186000B1039093B203A093B303B093B403109267
:10187000BB031092BC031092BD031092BE030E94E2
:101880002B046093B7037093B8038093B9039093CC
:10189000BA0380914103909142032FE0289F800179
:1018A000299F100D112485E10E941404800F911FBF
:1018B00024E0969587952A95E1F7909342038093CB
:1018C000410320914003222309F44BC0609144035B
:1018D000262F30E040E050E029833A834B835C833D
:1018E000C0904503D12CE12CF12C4091480350913C
:1018F00049034A01A12CB12C2091460330914703A2
:101900002901612C712C8217930728F09C0148173C
:10191000590708F49A01C901A0E0B0E09C01AD01AB
:10192000241935094609570969817A818B819C817F
:101930006C197D098E099F090E94B316A5019401B7
:1019400024193509460957090E942615C20ED31ECF
:10195000E41EF51EC09243036C2D70E085E00E94EA
:10196000B5030E94EA0D0E942F1081E020C0893249
:1019700009F053CC0E94CE0E50CC115009F0D7CEB6
:1019800060E070E085E00E94B50383B7817F8460EA
:1019900083BF83B7816083BF83B7816083BF88952E
:1019A00083B78E7F83BF83B78E7F83BFC0CE0F90F8
:1019B0000F900F900F900F90DF91CF911F910F918B
:1019C000FF90EF90DF90CF90BF90AF909F908F905F
:1019D0007F906F905F904F9008958F929F92AF92FB
:1019E000BF92CF92DF92EF92FF920F931F93CF930C
:1019F000DF93FB0124913196C490F090AE03022E48
:101A0000000C330B121613060CF0D7C080330CF009
:101A1000D4C0482F082E000C550BFA01EC0DF11D17
:101A2000C7FCFA951E161F060CF0C7C06E5F7F4FED
:101A3000D901179693E0B595A7959A95E1F787FF99
:101A40000BC0C80EA49FC001A59F900DB49F900D20
:101A50001124681B790B80E04C2D0C2C000C550BCD
:101A6000480F511D87FD5A95413351051CF090E3F5
:101A7000C92EC81A2535310514F024E530E010913F
:101A80009A031827982F977031E001C0330F9A9569
:101A9000EAF7859585958595F4E58F02C0011124B7
:101AA000805C9E4F00E00C2C000CDD08BB24B3943E
:101AB000402F50E04C155D050CF07FC0FB01E49019
:101AC000F1E0FF1218C0FB01EC0140E8542F5E2149
:101AD00019F05881532B588350E05595479541157F
:101AE000510519F43196E49040E821965C2F581B7B
:101AF000521760F359C0F1101AC0A32EA094FB0135
:101B0000EC0140E8542F5E2119F058815A21588386
:101B100050E0559547954115510519F43196E490DB
:101B200040E821965C2F581B521760F33DC043E0FC
:101B3000F41223C0932E9094FB01EC0140E8A82EF0
:101B40008C2E881A542F5E2141F08126588180FE08
:101B500002C0532B01C05921588350E05595479539
:101B60004115510519F43196E49040E821965C2F17
:101B70005A19521728F31B2517C0FB01EC0140E846
:101B8000542F5E2119F058815327588350E0559502
:101B900047954115510519F43196E49040E8219696
:101BA0005C2F581B521760F3330F19F48C5A9F4F58
:101BB00031E00F5F6A0F7B1F7BCFDF91CF911F91C9
:101BC0000F91FF90EF90DF90CF90BF90AF909F90DC
:101BD0008F900895CF92DF92EF92FF920F931F9311
:101BE000CF93DF93CAE4D3E001E513E0FF24FA9436
:101BF00097E0E92EE00E62E088810E947903288157
:101C000030E0F901E655FB4F8491F901EA56FB4FAC
:101C1000C490F901EE57FB4FD490DD2071F0811193
:101C20000E942003ED2DF0E0EE0FFF1FE858FB4F60
:101C3000A591B491EC91EC21B1F4F80180818F5F12
:101C4000808360E088810E94790321960F5F1F4F97
:101C5000E012D1CFDF91CF911F910F91FF90EF90C4
:101C6000DF90CF900895F8018081882371F3F80107
:101C70008F3F11F41082E5CFF082E3CFCF93C82FCE
:101C8000F89460E080919D030E94490380919E0337
:101C900018161CF460E00E944903CEBD00000DB48C
:101CA00007FEFDCF8EB580919E0318161CF461E0EF
:101CB0000E9449037894CF9108950F931F93CF9377
:101CC00080919A038F5F80939A0300E411E0C0E053
:101CD0008C2F80640E943E0E80E80E943E0E61E0E0
:101CE00080919D030E94490380919E0318161CF465
:101CF00060E00E94490380E090E0F801E80FF91FDE
:101D000020812EBD00000DB407FEFDCF2EB501963B
:101D10008435910591F780919E0318161CF461E0BB
:101D20000E944903CF5F0C5A1F4FC63089F680E4EA
:101D3000CF911F910F910C943E0E0F931F93CF9351
:101D4000DF938C01C0E0D0E0F801EC0FFD1F64913F
:101D5000662371F0E0918E03F0918F030190F08182
:101D6000E02D8EE893E00995892B11F02196ECCFB8
:101D7000CE01DF91CF911F910F910895CF93DF9303
:101D80000E949D0EEC0167E171E08EE893E00E94F5
:101D9000C2028C0F9D1FDF91CF91089588EF91E0D3
:101DA000E0E4F1E0DF019C011D9221503040E1F7B9
:101DB000109297031092980380E594E00E949D0E84
:101DC0000E945D0E8CB583608CBD8DB58E7F8DBD00
:101DD0008AE191E0EEEFFFE30995109294038BE224
:101DE00094E00E94BE0E0E945D0E0E94EA0D80915A
:101DF0005503813039F062E370E080E090E00E94AA
:101E00005004F3CF0895CF93DF93482F50E0EA01B9
:101E1000C05CDC4F9DA19923A1F19EA1911131C01D
:101E20009EA5FA01EE0FFF1FE95BFC4F35A126A12D
:101E3000E32FF22FE90FF11DE90FF11D25913491E8
:101E40002F3F9FEF390711F41DA21BC039AB440F80
:101E5000551FFA01E65BFC4F3327220F331F05A005
:101E6000F6A1E02DE20FF31F65917491811105C079
:101E700040E085E693E00E94280529968DA18F5FBA
:101E80008DA3DF91CF91089570E0DB01AA0FBB1FF6
:101E9000A05CBC4FD4962C91D497D5969C91D597A5
:101EA000E22FF92FE80FF11DE80FF11D2591349174
:101EB0005F9696963C932E939597F9018591949110
:101EC00090916903989F802D1124605C7C4FFB01E9
:101ED000B19685A3F901A591B4914B2F50E0E82F5D
:101EE000F0E04E175F0720F4F90125913491832F1C
:101EF000FB01B296899F802D112485A30895AF928E
:101F0000BF92CF92DF92EF92FF920F931F93CF93E6
:101F1000DF93182F062FC1E0D3E08AEFD82E9EEF73
:101F2000E92E842F8470C82E842F8270B82E842FBF
:101F30008870A82E4170F42E8C2F880F8F5FE80ECA
:101F4000CC2081F04D2F400F6C2F610F8EE893E075
:101F50000E94A5064C2F400F6D2F610F8EE893E075
:101F60000E94A506BB2081F0402F4D1B6C2F610FF6
:101F70008EE893E00E94A506402F4C1B6D2F610F49
:101F80008EE893E00E94A506AA2081F04C2F400F16
:101F9000612F6D1B8EE893E00E94A5064D2F400F28
:101FA000612F6C1B8EE893E00E94A506FF2081F054
:101FB000402F4C1B612F6D1B8EE893E00E94A506FD
:101FC000402F4D1B612F6C1B8EE893E00E94A506ED
:101FD000CD1744F4E7FC04C0D150D394D394ED0C56
:101FE000CF5FAACFDF91CF911F910F91FF90EF901C
:101FF000DF90CF90BF90AF900895CF92DF92EF9295
:10200000FF920F931F93CF93DF9377FF1DC06A0159
:102010007B01EC016DE20E94BB028C014427552735
:10202000BA014C195D096E097F092AE0CE010E94B0
:10203000D702800F911FDF91CF911F910F91FF90D9
:10204000EF90DF90CF9008952AE0DF91CF911F911C
:102050000F91FF90EF90DF90CF900C94D70280917A
:102060005C0390915D03892BB1F1809164038F71C2
:1020700069F584E10E941404BC01990F880B990B47
:102080000E94BA1526EE3FE34EEC50E40E941E1665
:102090000E9489159B0170935B0360935A03672B21
:1020A00091F084E080935903ECE5F3E080E0419106
:1020B00051912417350718F48093590308958F5FC1
:1020C0008430A9F703C08FEF809359038091640394
:1020D0008F5F809364030895789484B5826084BD93
:1020E00084B5816084BD85B5826085BD85B581601C
:1020F00085BD80916E00816080936E00109281009A
:102100008091810082608093810080918100816054
:102110008093810080918000816080938000809115
:10212000B10084608093B1008091B00081608093A1
:10213000B00080917A00846080937A0080917A0068
:10214000826080937A0080917A00816080937A0027
:1021500080917A00806880937A001092C10082E3B7
:102160008093BF0381E090E0A0E0B0E08093BB03E8
:102170009093BC03A093BD03B093BE038FEF8093F5
:10218000B003E0E8F7E7259134912130304C09F0B5
:1021900049C0E6E9F7E7E491E0939903E7E9F7E757
:1021A000E491E0934403E8E9F7E7E491E093450321
:1021B000E9E9F7E78591949190934703809346036B
:1021C000EBE9F7E785919491909349038093480355
:1021D00087E080936B03EEE9F7E7E491E0936A030D
:1021E000EFE9F7E7E491E093B003E0EAF7E78591E0
:1021F000949190935D0380935C03E2EAF7E7859105
:10220000949190935F0380935E03E4EAF7E78591EE
:1022100094919093610380936003E6EAF7E78591D8
:1022200094912CC09CE39093990310924403809363
:10223000450380E293E0909347038093460384ED47
:1022400093E0909349038093480387E080936B0366
:1022500080936A038CEA9DE090935D0380935C0316
:102260008EED9DE090935F0380935E0384E79EE094
:1022700090936103809360038CE39FE090936303EA
:1022800080936203C1E0C09340036FEF70E085E08C
:102290000E94B50388E080934A0389E080934B0352
:1022A00087E080934C0386E080934D03D4E0D09385
:1022B0004E0382E080934F0381E1809350030E949C
:1022C000EA0D8CE39FE090935B0380935A03D093D5
:1022D0005903C09364038BE080939C038DE080934B
:1022E0009B0380E180939D038EE080939F038FE0AA
:1022F00080939E03C0939603C093AE031092AF03E6
:10230000C0939503E5E9F2E0E491EF5FE093920377
:10231000E6E9F2E0E491EF5FE093930387E992E06E
:102320009093AD038093AC03CFB7F89480912801CC
:10233000811127C0ECE8F4E08491E0EAF4E09491A4
:10234000E82FF0E0EE0FFF1FE357FE4FA591B49189
:10235000EC91E92321F461E08AE00E94490361E005
:102360008AE00E9479038CB580618CBD8CB5806455
:102370008CBD61E08DE00E94790361E08BE00E94FA
:102380007903809128018F5F80932801CFBF8CB59E
:102390008F7D8CBD8CB58C7F81608CBD8DB581604F
:1023A0008DBD8CB58C608CBD61E080919C030E94DA
:1023B000790361E080919B030E94790361E0809141
:1023C0009D030E94790380919F0318161CF461E01D
:1023D0000E94790380919E0318161CF461E00E940C
:1023E000790380919F03181674F460E00E944903FA
:1023F0006AE070E080E090E00E94500461E080912B
:102400009F030E94490380919B03082E000C990BA7
:10241000FC01EE57FB4FE491F0E0EE0FFF1FE95691
:10242000FE4F259134913093A3032093A203FC0126
:10243000EA56FB4FE491E093A90380919C03082E98
:10244000000C990BFC01EE57FB4FE491F0E0EE0F0E
:10245000FF1FE956FE4F259134913093A10320933D
:10246000A003FC01EA56FB4FE491E093A80380919E
:102470009E03082E000C990BFC01EE57FB4FE491D4
:10248000F0E0EE0FFF1FE956FE4F25913491309397
:10249000A5032093A403FC01EA56FB4FE491E093CB
:1024A000AA0380919D03082E000C990BFC01EE57A6
:1024B000FB4FE491F0E0EE0FFF1FE956FE4F259130
:1024C00034913093A7032093A603FC01EA56FB4FF7
:1024D000E491E093AB0381E20E943E0E84E10E940E
:1024E0003E0E8091990387FF03C08FE78093990385
:1024F0008091990380680E943E0E80E20E943E0E09
:102500008CE00E943E0E0E945D0E81E08093690384
:1025100084E080938D0389E891E090937503809324
:10252000740360E080E00E94440F61E070E083E0AB
:102530000E94B5038091B100887F81608093B100D3
:10254000F8941092800010928100109285001092F1
:10255000840088E191E090938900809388008091C5
:1025600081008860809381008091810081608093E8
:10257000810080916F00826080936F0078940E9448
:102580002F1080915603813019F410926A030BC00A
:10259000809159038823C9F340E061EA71E085E640
:1025A00093E00E9428050E943F069CE2492E512C90
:1025B000612C712C2DEF222E33243A9433E0832E9C
:1025C000912C44E0C42ED12C5CE2A52EB12C88E0E5
:1025D000F82E0E948908882309F472C18091520361
:1025E00081508E3F68F48091050190910601823000
:1025F00091050CF46DC1029790930601809305013B
:102600008091540381508E3F68F480910501909130
:1026100006018F3191050CF05EC102969093060180
:10262000809305018091550381508E3F68F480911D
:10263000350190913601823091050CF44FC102971B
:1026400090933601809335018091560381508E3FDF
:1026500068F480913501909136018F3191050CF02D
:1026600040C102969093360180933501C0910301D9
:10267000D091040100913301109134010C0F1D1F02
:102680001093340100933301809101019091020174
:102690002091310130913201280F391F30933201DE
:1026A000209331012D3231057CF09195819591096E
:1026B0009093020180930101B0923201A092310106
:1026C00085E693E00E945C05809131019091320192
:1026D00004979CF48091010190910201919581955C
:1026E00091099093020180930101D0923201C0922E
:1026F000310185E693E00E945C050730110594F4F2
:1027000020913101309132018091050190910601B3
:10271000AC01405F5F4F4217530724F082179307C5
:102720000CF4E2C080913301909134018E34910514
:1027300094F02091310130913201809135019091D6
:102740003601AC01405F5F4F4217530724F08217F8
:1027500093070CF4DDC000E123E04091050160E047
:102760008EE893E00E94FD0623E04091350161E58B
:102770008EE893E00E94FD0610913101C091330173
:10278000D09134014CEF410F29E06C2F8EE893E09B
:102790000E940008E12C03E024E0412F6C2F8EE81A
:1027A00093E00E94230810E004E022E0412F69E258
:1027B0008EE893E00E94FD06185F1033A9F701E050
:1027C00024E540E060E08EE893E00E94FD0624E509
:1027D0004FE260E08EE893E00E94FD06CC3FDF4FC1
:1027E000BCF480912F01909130019093340180933B
:1027F0003301909204018092030180912B0190910A
:102800002C01019690932C0180932B0121E001C0B3
:1028100020E0809133019091340189359105B4F025
:1028200080912D0190912E0190933401809333017A
:1028300030920401209203018091290190912A0194
:10284000019690932A018093290102C0222389F0E6
:102850000E941815A30192010E942615709332015F
:102860006093310140E06FEA71E085E693E00E94F9
:10287000280595E190939703F092980340912901E0
:1028800050912A01052E000C660B770B8EE893E021
:102890000E94FD0F89E380939703F0929803409183
:1028A0002B0150912C01052E000C660B770B8EE846
:1028B00093E00E94FD0F80915703813009F440C0DE
:1028C00080E090E0892B09F484CE0E9400007FCE46
:1028D00080E090E091CE80E290E0A0CE80E090E0B9
:1028E000AFCE80E290E0BECED195C195D109D09314
:1028F0000401C093030180912F01909130019093C6
:1029000034018093330185E693E00E945C050ACF91
:102910008091030190910401919581959109909383
:1029200004018093030180912D0190912E019093D9
:1029300034018093330185E693E00E945C050BCF60
:102940000E943F06BDCF10929103109290038FE03A
:1029500091E090938F0380938E0320910501309135
:10296000060130933601209335018CE490E090937A
:10297000340180933301309332012093310128E0F8
:1029800030E03093300120932F0190932E018093FB
:102990002D0108958F929F92AF92BF92CF92DF92B6
:1029A000EF92FF92CF93DF93EC01688179818A8166
:1029B0009B81611571058105910521F464E279ED32
:1029C0008BE597E02DE133EF41E050E00E942615C2
:1029D00049015A019B01AC01A7EAB1E40E944515E7
:1029E0006B017C01ACEEB4EFA50194010E9453157C
:1029F000DC01CB018C0D9D1DAE1DBF1DB7FF03C0BB
:102A00000197A109B04888839983AA83BB83BC013D
:102A1000CD019F77DF91CF91FF90EF90DF90CF9026
:102A2000BF90AF909F908F9008950E94CA14089510
:102A300087E091E00E94CA140895609307017093A3
:102A400008018093090190930A010895052E97FBD0
:102A50001EF400940E943D1557FD07D00E945815A2
:102A600007FC03D04EF40C943D15509540953095DD
:102A700021953F4F4F4F5F4F0895909580957095EA
:102A800061957F4F8F4F9F4F08950E947A15A59FA4
:102A9000900DB49F900DA49F800D911D1124089559
:102AA000B7FF0C9445150E944515821B930B0895A2
:102AB000A1E21A2EAA1BBB1BFD010DC0AA1FBB1F42
:102AC000EE1FFF1FA217B307E407F50720F0A21BB4
:102AD000B30BE40BF50B661F771F881F991F1A9421
:102AE00069F760957095809590959B01AC01BD014B
:102AF000CF010895A29FB001B39FC001A39F700DA5
:102B0000811D1124911DB29F700D811D1124911DF5
:102B100008950E94FD1588F09F5798F0B92F9927C6
:102B2000B751B0F0E1F0660F771F881F991F1AF0B8
:102B3000BA95C9F714C0B13091F00E941716B1E0F0
:102B400008950C941716672F782F8827B85F39F0EF
:102B5000B93FCCF3869577956795B395D9F73EF451
:102B600090958095709561957F4F8F4F9F4F0895F9
:102B7000E89409C097FB3EF4909580957095619517
:102B80007F4F8F4F9F4F9923A9F0F92F96E9BB27CD
:102B90009395F695879577956795B795F111F8CF49
:102BA000FAF4BB0F11F460FF1BC06F5F7F4F8F4FB4
:102BB0009F4F16C0882311F096E911C0772321F0AA
:102BC0009EE8872F762F05C0662371F096E8862F42
:102BD00070E060E02AF09A95660F771F881FDAF799
:102BE000880F9695879597F9089557FD9058440F4B
:102BF000551F59F05F3F71F04795880F97FB991F5C
:102C000061F09F3F79F08795089512161306140618
:102C1000551FF2CF4695F1DF08C0161617061806A5
:102C2000991FF1CF86957105610508940895E89480
:102C3000BB2766277727CB0197F908950E943116A5
:102C40000C94A2160E94941638F00E949B1620F055
:102C5000952311F00C948B160C94911611240C945E
:102C600018160E94F51570F3959FC1F3950F50E06B
:102C7000551F629FF001729FBB27F00DB11D639F2E
:102C8000AA27F00DB11DAA1F649F6627B00DA11DD4
:102C9000661F829F2227B00DA11D621F739FB00D7A
:102CA000A11D621F839FA00D611D221F749F3327EA
:102CB000A00D611D231F849F600D211D822F762F83
:102CC0006A2F11249F5750409AF0F1F088234AF060
:102CD000EE0FFF1FBB1F661F771F881F91505040CC
:102CE000A9F79E3F510580F00C948B160C94181692
:102CF0005F3FE4F3983ED4F3869577956795B79553
:102D0000F795E7959F5FC1F7FE2B880F911D96956C
:102D1000879597F9089597F99F6780E870E060E0DC
:102D200008959FEF80EC089500240A941616170664
:102D300018060906089500240A94121613061406AC
:102D400005060895092E0394000C11F4882352F00F
:102D5000BB0F40F4BF2B11F460FF04C06F5F7F4FC7
:102D60008F4F9F4F0895DB018F939F930E944515CE
:102D7000BF91AF91A29F800D911DA39F900DB29F17
:102D8000900D11240895991B79E004C0991F96179E
:102D900008F0961B881F7A95C9F78095089597FBD0
:102DA000072E16F4009407D077FD09D00E94E31691
:102DB00007FC05D03EF4909581959F4F089570953E
:102DC00061957F4F0895AA1BBB1B51E107C0AA1F45
:102DD000BB1FA617B70710F0A61BB70B881F991FBC
:102DE0005A95A9F780959095BC01CD010895EE0FF5
:102DF000FF1F0590F491E02D099481E090E0F89494
:082E00000C940217F894FFCFB7
:102E0800010300030010000100000000000000346E
:102E1800078A02B602B5020D0A004C4F41444552DA
:022E28000000A8
:00000001FF
