:100000000C94DA010C9402020C9402020C94020289
:100010000C9402020C9402020C9402020C94020250
:100020000C9402020C9402020C9402020C94F4034D
:100030000C9402020C9402020C9402020C94020230
:100040000C949F030C9402020C9402020C94020282
:100050000C9402020C9402020C9402020C94020210
:100060000C9402020C9402020101FF030101F70348
:100070006C00680000000000240027002A00000037
:100080000000250028002B000500893008023802F6
:100090004978681400000500380168010000175312
:1000A00044001613780016131400151020001520B4
:1000B0001000540A03E181867F3E186D830F0F0EF6
:1000C0000183866033186DC3198F1803C38E6033A4
:1000D000186DE330CF1803C39E603630CDE360CF98
:1000E0003006C79E7E3E30CDB360CF300CC6F66082
:1000F0003330D9B660CF33CFCCF66061B0DB1E6051
:10010000CF30D86CE6C061B0DB1E618F19986CC629
:10011000C063B19B0E330F0FB078C6FF7E1F1B0666
:100120001E0F506F6E67205475746F7269616C009A
:10013000450068010000F6E8DBCFC3B8AEA49B928F
:100140008A827B746E68625C57524E4945413E3AE2
:100150003734312E2C29272523210A0A153A4967DD
:100160006E6F7265006D560A0A504C45415345202A
:100170005455524E204F464620004C4F5720424186
:10018000545445525921200003053F213F120812C3
:100190000A100A0E1C0E0C1E0C141A14161F161E22
:1001A000131E1E1B1E1E1F1E3F213F3A2F3A173DD6
:1001B000173F213F181F02040A041F0E04040E1FDC
:1001C0000A1F0A0E0E1F04110E2E252E2F2A2E2670
:1001D0002929021F02081F08150E04040E150E150A
:1001E000151B151B040604040C0400000000170076
:1001F0000300031F0A1F16371A1904130A153A00C1
:100200000300000E11110E000A040A040E0400304F
:10021000000404040010001804031F111F121F1013
:100220001D151711151F07041F17151D1F151D017B
:10023000011F1F151F17151F000A00003200040AB6
:10024000110A0A0A110A040115020E11171E051ED1
:100250001F150A0E110A1F110E1F15111F05010E81
:10026000111D1F041F111F1108100F1F041B1F1049
:10027000101F061F1E040F0E110E1F09060E112E51
:100280001F051A121509011F011F101F0F180F1F3C
:100290000C1F1B041B031C03191513001F1103045F
:1002A00018111F000201022020200001020C121E62
:1002B0001F120C0C12120C121F0C1A14041E05240F
:1002C0002A1E1F021C141D1020201D1F0814111FA0
:1002D000101E041E1E021C0C120C3E0A040C123EC0
:1002E0001E040214160A020F120E101E0E100E1E0D
:1002F000081E120C1226281E322A26041E21001F58
:1003000000211E040102013F213F172B1520102060
:100310004C4F4144455200172B16201314000A4E2F
:100320006F2053442063617264206F720A6E6F20E5
:100330004C4F414445522E4845580A0A153A4578D3
:100340006974001D20466C617368696E670A20201D
:100350006C6F616465722E2E2E0A0A444F4E27542C
:10036000205455524E204F464621000000000023E5
:100370000026002900040404040404040402020208
:1003800002020203030303030301020408102040D6
:10039000800102040810200102040810200000005F
:1003A0000800020100000304070000000000000034
:1003B0000000351211241FBECFEFD8E0DEBFCDBF45
:1003C00011E0A0E0B1E0E4E0F9E202C005900D9296
:1003D000AE31B107D9F723E0AEE1B1E001C01D9223
:1003E000A73BB207E1F711E0CAEDD1E004C02197C5
:1003F000FE010E947514C93DD107C9F70E94730D13
:100400000C9480140C940000CF92DF92EF92FF9234
:100410000F931F93CF93DF936C017A018B01C0E0A0
:10042000D0E0CE15DF0589F0D8016D918D01D601A0
:10043000ED91FC910190F081E02DC6010995892B89
:1004400011F47E0102C02196ECCFC701DF91CF915C
:100450001F910F91FF90EF90DF90CF900895089536
:1004600080E090E008950E947B14833081F028F4AE
:10047000813099F08230A1F008958730A9F088305A
:10048000B9F08430D1F4809180008F7D03C08091D9
:1004900080008F7780938000089584B58F7702C0A5
:1004A00084B58F7D84BD08958091B0008F7703C09F
:1004B0008091B0008F7D8093B00008951F93CF93FB
:1004C000DF93282F30E0F901E356FC4F8491F901C6
:1004D000E757FC4FD491F901EB58FC4FC491CC2362
:1004E000C9F0162F81110E943502EC2FF0E0EE0FBB
:1004F000FF1FE258FF4FA591B4918FB7F8941111E7
:1005000005C09C91ED2FE095E92302C0EC91ED2B05
:10051000EC938FBFDF91CF911F910895CF93DF931D
:1005200090E0FC01E757FC4F2491FC01EB58FC4F95
:100530008491882361F190E0880F991FFC01EC58A9
:10054000FF4FC591D491FC01E258FF4FA591B491A2
:10055000611109C09FB7F894888120958223888310
:10056000EC912E230BC0623061F49FB7F894388170
:10057000822F809583238883EC912E2B2C939FBF11
:1005800006C08FB7F894E8812E2B28838FBFDF91A8
:10059000CF9108951F93CF93DF93182FEB0161E064
:1005A0000E948E02209711F460E004C0CF3FD10575
:1005B00039F461E0812FDF91CF911F910C945E029D
:1005C000E12FF0E0E356FC4FE491E330F9F048F41A
:1005D000E130B9F0E230A1F584B5806284BDC8BDD8
:1005E00034C0E730E9F0E83019F1E43049F58091A2
:1005F0008000806280938000D0938B00C0938A003B
:1006000024C084B5806884BDC7BD1FC080918000B0
:10061000806880938000D0938900C093880015C0C3
:100620008091B00080688093B000C093B3000DC08B
:100630008091B00080628093B000C093B40005C088
:10064000C038D1050CF0B5CFAFCFDF91CF911F915E
:1006500008958E3008F08E508770806480937C00FF
:1006600080917A00806480937A0080917A0086FD80
:10067000FCCF809178002091790090E0922B089532
:100680003FB7F8948091200190912101A09122011F
:10069000B091230126B5A89B05C02F3F19F0019604
:1006A000A11DB11D3FBFBA2FA92F982F8827820FF8
:1006B000911DA11DB11DBC01CD0142E0660F771F48
:1006C000881F991F4A95D1F708958F929F92AF92F4
:1006D000BF92CF92DF92EF92FF926B017C010E945A
:1006E00040034B015C01C114D104E104F104F1F0B9
:1006F0000E944003DC01CB0188199909AA09BB09B2
:10070000883E9340A105B10570F321E0C21AD108DB
:10071000E108F10888EE880E83E0981EA11CB11C48
:10072000C114D104E104F10419F7DDCFFF90EF907B
:10073000DF90CF90BF90AF909F908F9008951F92C1
:100740000F920FB60F9211242F933F938F939F9385
:10075000AF93BF938091290190912A01A0912B0121
:10076000B0912C0130911F0123E0230F2D3720F48D
:100770000196A11DB11D05C026E8230F0296A11DFB
:10078000B11D20931F018093290190932A01A0930A
:100790002B01B0932C018091200190912101A09117
:1007A0002201B09123010196A11DB11D809320016A
:1007B00090932101A0932201B0932301BF91AF91A7
:1007C0009F918F913F912F910F900FBE0F901F908F
:1007D000189580912D03882319F080912F0301C073
:1007E00080E08093B40008951F920F920FB60F928D
:1007F00011242F933F934F935F936F937F938F9326
:100800009F93AF93BF93EF93FF9360912E03662363
:1008100021F180911E018F5F80931E01909127012D
:100820008917D8F090912D0381E0892780932D03BB
:1008300010921E0180912801882369F080910001A7
:1008400093E4899F802D1124895B809300010E948D
:10085000411490932F030E94E903FF91EF91BF9100
:10086000AF919F918F917F916F915F914F913F9148
:100870002F910F900FBE0F901F901895FC016435BB
:1008800008F053C0403308F050C090A1742F759504
:1008900075957595262F062E000C330B542F577027
:1008A0009230A1F4F901E35DFE4F84E57802E00D9A
:1008B000F11D1124808190E0052E02C09595879549
:1008C0000A94E2F78095982F91700AC0933041F412
:1008D00084858170462740954170841303C014C0FD
:1008E000911112C084E57802200D311D1124F90107
:1008F000E35DFE4F81E090E001C0880F5A95EAF772
:1009000080959081892310C084E57802200D311DE7
:100910001124F901E35DFE4F81E090E001C0880FF2
:100920005A95EAF79081892B80830895BF92CF92E0
:10093000DF92EF92FF920F931F93CF93DF931F925B
:10094000CDB7DEB77C01D62EC42E002E000C110BC5
:10095000040F111D47FD1A954C2D0C2C000C550B46
:10096000401751077CF4B12CB21654F46B2D6D0D69
:100970004C2DC70129830E943E04B3942981F4CFF2
:10098000C394EACF0F90DF91CF911F910F91FF9009
:10099000EF90DF90CF90BF9008956F927F928F92EB
:1009A0009F92AF92BF92CF92DF92EF92FF920F93FE
:1009B0001F93CF93DF93EC016A3019F42D81988552
:1009C000A1C06D3009F4A4C01885BA84D98488A068
:1009D00083E58D150CF47FC08FE28B150CF47BC082
:1009E0008C8190E00197189F9001199F300D112480
:1009F000C9018D0D911DD7FC9A95181619060CF09A
:100A00006AC08D81819FC00111248B0D911DB7FC9F
:100A10009A95181619060CF05EC09D2CCD2CE62E6A
:100A2000F12CEC2DED190E2E000CFF0B8C8190E0BB
:100A3000E817F9070CF04EC00197E817F90779F0AD
:100A4000E89E9001E99E300DF89E300D1124E20FD2
:100A5000F31F8E8D9F8DE80FF91F749001C0712CCC
:100A60006B2CAB2C2A2D2B19022E000C330B8D81F5
:100A700090E0281739075CF570FE10C0113031F492
:100A80004A2D6C2DCE010E943E041DC0012F212F46
:100A9000462D692DCE010E94960415C089A198A10A
:100AA000891789F088A3113031F44A2D6C2DCE01BD
:100AB0000E943E0407C0012F212F462D692DCE0133
:100AC0000E94960488A27694A394610ECBCFC3941F
:100AD000910EA7CF88A228853C818985329F800D01
:100AE000112489879F81992399F0082E000C990B76
:100AF00044E550E0239F4019510911244817590734
:100B00003CF49D818A85299F800D11248A8719864E
:100B100081E090E0DF91CF911F910F91FF90EF90D6
:100B2000DF90CF90BF90AF909F908F907F906F900D
:100B300008954F925F926F927F928F929F92AF92A1
:100B4000BF92CF92DF92EF92FF920F931F93CF93BA
:100B5000DF9300D000D01F92CDB7DEB74091B00335
:100B60005091B1036091B2037091B3032FB7F89421
:100B70008091290190912A01A0912B01B0912C0123
:100B80002FBF481B590B6A0B7B0B8091AF0390E082
:100B9000A0E0B0E00091AB031091AC032091AD0355
:100BA0003091AE0384179507A607B70730F40115F7
:100BB00011052105310509F03AC3012B022B032B46
:100BC00009F033C38091470381508E3FC0F5809177
:100BD00046038130C9F580915A038F5F60915B03B2
:100BE00087FD09C0082E000C990B70E06F5F7F4FE6
:100BF0000E944D14682F60935A0387E193E090930D
:100C0000B5038093B40388E48093B60380E00E9428
:100C1000260A80E391E0909363038093620310922D
:100C200068031092670381E08093560389E0809304
:100C30006B0310926E0310927003109272038091F6
:100C4000470381508E3F70F480914503813009F055
:100C50009AC38AE093E09093B5038093B40388E449
:100C60008093B60380E00E94540B80915603882342
:100C700009F4ABC080916A038111A7C0809162031F
:100C800090916303E0916703F0916803EE0FFF1FFB
:100C9000E80FF91F4591549141155105F1F4209148
:100CA0006603222331F01092680310926703FC015F
:100CB00012C01092560380915503882341F080E0C2
:100CC0000E94540BE0916703F09168032DC080E00F
:100CD0000E94110A7AC0459154919A013695279540
:100CE0003695279540FF51C0CA0116E09695879525
:100CF0001A95E1F78F71952F969596959695905147
:100D00002F70223071F1F8F4211117C08B3008F0E8
:100D10008AE080936B03E0916703F091680331965A
:100D2000F0936803E0936703EE0FFF1F8091620367
:100D300090916303E80FF91FCECF213061F760E097
:100D40000E94BE0BE8CF2330B1F0243021F7209170
:100D50005903829F802D1124809372039093730313
:100D6000DACF20915903829F802D112480936E0346
:100D700090936F03D0CF20915903829F802D11242F
:100D80008093700390937103C6CF2F7320936903F0
:100D900080915903859F802D112480936A031092BE
:100DA0007A03109279031092780381E080936C03A8
:100DB00080932D0310926D038091670390916803D7
:100DC0000196909368038093670380916C03882356
:100DD00009F4EEC080916A03811103C00E94110AD8
:100DE000E7C0815080936A0380917A03811146C0E5
:100DF00020917803309179032F5F3F4FC901880F0D
:100E0000991FE0917403F0917503E80FF91F659144
:100E10007491862F877080937B03AB01E3E0569536
:100E20004795EA95E1F7CA0196958795972F96958C
:100E3000969590937C038F7390915903899F802D91
:100E4000112480937A0341704093280130937903F1
:100E5000209378038091760390E02817390770F08B
:100E600020917703222339F0821B91099093790313
:100E70008093780303C080E00E94110A80917A0376
:100E8000815080937A0380916D0321E0280F209395
:100E90006D034091690330917C03340F80916103AD
:100EA000380F3093570360917003662371F070E040
:100EB000822F022E000C990B0E944D148091710319
:100EC000869F300D1124309357038091570390E093
:100ED000849664E270E00E944D1480935703309131
:100EE0006B033093580360916E03662381F0062EE6
:100EF000000C770B822F022E000C990B0E944D14D0
:100F000080916F03869F300D1124309358036091B8
:100F100072036623A1F0822F220F990B70E00E94CA
:100F20004D14CB0162E070E00E944D1420917303D8
:100F300090915803289F900D11249093580380910D
:100F400058034F3341F08A300CF089E087FD80E090
:100F50008093580302C010925803F894E09157030D
:100F6000F0E0EA5CFE4FE491E093270130915803F2
:100F700020917D0332039001112440917B034203B1
:100F8000C001439F900D112400905A0302C0880FA6
:100F9000991F0A94E2F797FF02C081589F4F880F6C
:100FA000892F881F990B80932E0380932F037894A9
:100FB0008091B603882309F48DC08C3020F49CE026
:100FC000E92EE81A01C0E12CFF24F394F092860385
:100FD00010929E0310929F03309183034DE2D42E12
:100FE0001D2D131B1E0D03E0030F2EE4412F63E0A4
:100FF0008EE793E03D830E9496043D810CEF030F42
:101000001D5F202F41E0612F80E50E948F0C202F73
:1010100042E0612F83E00E948F0CF0929E03F092D9
:101020009F030091830313E0100FD01ADE0C23E01E
:101030004D2D622F8EE793E02D830E943E042D817B
:101040002F5F2135A9F71D0DFF24FA94F10E23E03F
:101050004F2D622F8EE793E02D830E943E042D8159
:101060002F5F2135A9F7035033E0D30E402F6D2DAC
:1010700080E00E94770C402F6D2D83E50E94770C55
:1010800041E06D2D83E00E94F90B42E06D2D80E57B
:101090000E94F90B145044E0612F80E50E94F90B87
:1010A00048E0612F83E00E94F90B84E0809387037E
:1010B00080918303E81A8E2D815D8093880380914F
:1010C000B4039091B5030E94F00A8091B603815059
:1010D0008093B60380914C0390914D03892B09F4C2
:1010E0007CC011E010939E0310929F0390918203A5
:1010F00085E5891B809387031092880380914903BB
:10110000813009F44DC030F090914803853008F0EB
:101110005FC05AC080E00E94260A10938603E8E868
:10112000F1E0E491EF5FE0938203E9E8F1E0E4911C
:10113000EF5FE09383038AE891E090939D038093AF
:101140009C0310924D0310924C031092840318EAF2
:101150000E9499058823E1F38AE791E00E94F00A52
:1011600060914A0370914B0380E090E04AE00E9456
:10117000EA0C85E691E00E94F00A612F62956F709B
:1011800070E080E090E04AE00E94EA0C8AE591E09D
:101190000E94F00A80914503813009F0FAC01DC019
:1011A0008091A1039091A203A091A303B091A40305
:1011B0008F709927AA27BB270897A105B10510F4BE
:1011C00087E009C088E707C0992339F08B5F03C027
:1011D000992319F08FE20E942B0D0E94B00A809192
:1011E000840381110EC088EF91E0EDE2F1E0DF01B0
:1011F0009C011D9221503040E1F71092870310921C
:1012000088030E9440036093AB037093AC03809308
:10121000AD039093AE032091A7033091A803621B06
:10122000730B7093A6036093A50380E0CCC02FB727
:10123000F8948091290190912A01A0912B01B091FD
:101240002C012FBF2091AF03820F911DA11DB11D55
:101250008093B0039093B103A093B203B093B30310
:101260008091A1039091A203A091A303B091A40344
:101270000196A11DB11D8093A1039093A203A09399
:10128000A303B093A4031092AB031092AC0310928B
:10129000AD031092AE030E9440036093A7037093C6
:1012A000A8038093A9039093AA038091310390919E
:1012B00032032FE0289F8001299F100D112485E122
:1012C0000E942903800F911F24E0969587952A9507
:1012D000E1F790933203809331032091300322236E
:1012E00009F44BC060913403262F30E040E050E019
:1012F00029833A834B835C83C0903503D12CE12C46
:10130000F12C40913803509139034A01A12CB12CA2
:1013100020913603309137032901612C712C8217FB
:10132000930728F09C014817590708F49A01C9014E
:10133000A0E0B0E09C01AD01241935094609570928
:1013400069817A818B819C816C197D098E099F0945
:101350000E943114A5019401241935094609570941
:101360000E94A412C20ED31EE41EF51EC0923303C7
:101370006C2D70E085E00E94CA020E943D0A0E9426
:10138000360D81E020C0893209F06CCC0E941F0B21
:1013900069CC115009F0DCCE60E070E085E00E947D
:1013A000CA0283B7817F846083BF83B7816083BFB4
:1013B00083B7816083BF889583B78E7F83BF83B7F0
:1013C0008E7F83BFC5CE0F900F900F900F900F9020
:1013D000DF91CF911F910F91FF90EF90DF90CF9011
:1013E000BF90AF909F908F907F906F905F904F9045
:1013F0000895BC01009791F0FC0101900020E9F7ED
:101400003197AF01481B590BE0917E03F0917F03A8
:101410000280F381E02D8EE793E0099480E090E074
:101420000895811112C010926C0310926A031092F9
:1014300079031092780310926D0310922F0310928B
:101440002E0310922D030C94E9030895811114C00A
:1014500010926C0310926A03109279031092780331
:1014600010926D0310922F0310922E0310922D03F1
:101470000E94E903109256030895CF92DF92EF92F3
:10148000FF920F931F93CF93DF93CAE3D3E001E45E
:1014900013E0FF24FA9497E0E92EE00E62E08881E1
:1014A0000E948E02288130E0F901E356FC4F8491BE
:1014B000F901E757FC4FC490F901EB58FC4FD49069
:1014C000DD2071F081110E943502ED2DF0E0EE0F6C
:1014D000FF1FE559FC4FA591B491EC91EC21B1F4BB
:1014E000F80180818F5F808360E088810E948E0296
:1014F00021960F5F1F4FE012D1CFDF91CF911F9147
:101500000F91FF90EF90DF90CF900895F8018081C8
:10151000882371F3F8018F3F11F41082E5CFF08238
:10152000E3CFCF93C82FF89460E080918D030E94A1
:101530005E0280918E0318161CF460E00E945E0229
:10154000CEBD00000DB407FEFDCF8EB580918E0399
:1015500018161CF461E00E945E027894CF91089501
:101560000F931F93CF9380918A038F5F80938A0399
:101570000DE211E0C0E08C2F80640E94910A80E8A7
:101580000E94910A61E080918D030E945E02809129
:101590008E0318161CF460E00E945E0280E090E06A
:1015A000F801E80FF91F20812EBD00000DB407FEE1
:1015B000FDCF2EB501968435910591F780918E036C
:1015C00018161CF461E00E945E02CF5F0C5A1F4F98
:1015D000C63089F680E4CF911F910F910C94910A47
:1015E0000F931F93CF93DF938C01C0E0D0E0F801FD
:1015F000EC0FFD1F6491662371F0E0917E03F09182
:101600007F030190F081E02D8EE793E00995892B0F
:1016100011F02196ECCFCE01DF91CF911F910F9168
:101620000895CF93DF930E94F00AEC0183E191E0EB
:101630000E94F9098C0F9D1FDF91CF91089588EFCB
:1016400091E0EDE2F1E0DF019C011D92215030407C
:10165000E1F7109287031092880383E493E00E94DD
:10166000F00A0E94B00A8CB583608CBD8DB58E7F68
:101670008DBD86E191E0EEEFFFE3099510928403C2
:101680008EE193E00E94110B0E94B00A0E943D0A75
:1016900080914503813039F062E370E080E090E0B2
:1016A0000E946503F3CF0895AF92BF92CF92DF926D
:1016B000EF92FF920F931F93CF93DF93C82ED12CFD
:1016C000E601C05DDC4F9DA1992309F44CC07E0169
:1016D0009FEFE91AF90AF70195A1911144C09EA55F
:1016E0008601000F111F005D1C4FF80134A525A5D0
:1016F000E32FF22FE90FF11DE90FF11D2591349130
:101700002F3FFFEF3F0711F41DA22DC039ABF601AB
:10171000EE0FFF1FE65CFC4F3327220F331F05A09F
:10172000F6A1E02DE20FF31FA590B490811117C030
:101730000E94260AF801B3AAA2AAF601EE0FFF1F23
:10174000EE5BFC4F16A215A281E0F70185A389E0AC
:101750008BAF1EAEFE017B9615A2329615A229967E
:101760008DA18F5F8DA3DF91CF911F910F91FF907E
:10177000EF90DF90CF90BF90AF90089570E0DB01C5
:10178000AA0FBB1FA05DBC4FD4962C91D497D596C1
:101790009C91D597E22FF92FE80FF11DE80FF11D6D
:1017A000259134915F9696963C932E939597F901E7
:1017B0008591949190915903989F802D1124605D9B
:1017C0007C4FFB01B19685A3F901A591B4914B2FF4
:1017D00050E0E82FF0E04E175F0720F4F901259163
:1017E0003491832FFB01B296899F802D112485A30C
:1017F0000895AF92BF92CF92DF92EF92FF920F9334
:101800001F93CF93DF93182F062FC1E0D3E08AEF09
:10181000D82E9EEFE92E842F8470C82E842F8270DC
:10182000B82E842F8870A82E4170F42E8C2F880F2C
:101830008F5FE80ECC2081F04D2F400F6C2F610F91
:101840008EE793E00E943E044C2F400F6D2F610FF6
:101850008EE793E00E943E04BB2081F0402F4D1B99
:101860006C2F610F8EE793E00E943E04402F4C1BCB
:101870006D2F610F8EE793E00E943E04AA2081F055
:101880004C2F400F612F6D1B8EE793E00E943E04AA
:101890004D2F400F612F6C1B8EE793E00E943E049A
:1018A000FF2081F0402F4C1B612F6D1B8EE793E0D2
:1018B0000E943E04402F4D1B612F6C1B8EE793E06E
:1018C0000E943E04CD1744F4E7FC04C0D150D394E9
:1018D000D394ED0CCF5FAACFDF91CF911F910F91E1
:1018E000FF90EF90DF90CF90BF90AF9008950F934F
:1018F0001F93CF93DF93182F062FD42FC0E0CD175F
:101900004CF44C2F400F612F8EE793E00E943E0471
:10191000CF5FF5CFDF91CF911F910F9108959F92E7
:10192000AF92BF92CF92DF92EF92FF920F931F93ED
:10193000CF93DF93F82EE62EB22E03E0020FD0E015
:10194000C3E08AEFC82E1EEF842F8170982EAA2440
:10195000A394A20E4270D42EDF5F802F8B19180F34
:10196000992081F04C2F440F4A0D6E2D6C1B8D2F4A
:101970008F0D0E94770C402F6E2D6D1B8C2F8F0DBD
:101980000E94770CDD2081F04C2F440F4A0D6E2D04
:101990006C1B8F2D8D1B0E94770C402F6E2D6D1BA5
:1019A0008F2D8C1B0E94770CDC1744F417FD04C0AC
:1019B000C150C394C3941C0D0E5FCECFDF91CF9165
:1019C0001F910F91FF90EF90DF90CF90BF90AF905D
:1019D0009F9008958F929F92AF92BF920F931F9303
:1019E000CF93DF93CDB7DEB7A1970FB6F894DEBFE4
:1019F0000FBECDBF19A2423008F44AE08E010F5D40
:101A00001F4F842E912CA12CB12CA50194010E9472
:101A1000D612E62FB901CA0101501109EA3014F4B7
:101A2000E05D01C0E95CD801EC93232B242B252B2E
:101A300061F7C8010E94F909A1960FB6F894DEBFBC
:101A40000FBECDBFDF91CF911F910F91BF90AF908F
:101A50009F908F900895E0917E03F0917F03019015
:101A6000F081E02D682F8EE793E0099480914C037C
:101A700090914D03892BB1F1809154038F7169F5D9
:101A800084E10E942903BC01990F880B990B0E94E5
:101A9000381326EE3FE34EEC50E40E949C130E9464
:101AA00007139B0170934B0360934A03672B91F0DC
:101AB00084E080934903ECE4F3E080E041915191AC
:101AC0002417350718F48093490308958F5F8430F5
:101AD000A9F703C08FEF80934903809154038F5F70
:101AE000809354030895789484B5826084BD84B54E
:101AF000816084BD85B5826085BD85B5816085BD09
:101B000080916E00816080936E00109281008091C0
:101B10008100826080938100809181008160809348
:101B20008100809180008160809380008091B1006D
:101B300084608093B1008091B00081608093B00098
:101B400080917A00846080937A0080917A0082602C
:101B500080937A0080917A00816080937A008091EE
:101B60007A00806880937A001092C10082E38093AB
:101B7000AF0381E090E0A0E0B0E08093AB039093EE
:101B8000AC03A093AD03B093AE038FEF8093A0039B
:101B9000E0E8F7E7259134912130304C09F049C055
:101BA000E6E9F7E7E491E0938903E7E9F7E7E491F1
:101BB000E0933403E8E9F7E7E491E0933503E9E9DA
:101BC000F7E7859194919093370380933603EBE97F
:101BD000F7E785919491909339038093380387E0D8
:101BE00080935B03EEE9F7E7E491E0935A03EFE9B2
:101BF000F7E7E491E093A003E0EAF7E78591949199
:101C000090934D0380934C03E2EAF7E7859194911A
:101C100090934F0380934E03E4EAF7E78591949104
:101C20009093510380935003E6EAF7E785919491EE
:101C30002CC09CE390938903109234038093350366
:101C400080E293E0909337038093360384ED93E032
:101C5000909339038093380387E080935B038093EC
:101C60005A038CEA9DE090934D0380934C038EEDD4
:101C70009DE090934F0380934E0384E79EE0909302
:101C80005103809350038CE39FE090935303809320
:101C90005203C1E0C09330036FEF70E085E00E9413
:101CA000CA0288E080933A0389E080933B0387E08F
:101CB00080933C0386E080933D03D4E0D0933E03C1
:101CC00082E080933F0381E1809340030E943D0ABC
:101CD0008CE39FE090934B0380934A03D093490396
:101CE000C09354038BE080938C038DE080938B032F
:101CF00080E180938D038EE080938F038FE080934B
:101D00008E03C0938603C0939E0310929F03C093DB
:101D10008503E8E8F1E0E491EF5FE0938203E9E80E
:101D2000F1E0E491EF5FE09383038AE891E0909320
:101D30009D0380939C03CFB7F89480912401811177
:101D400027C0EFE7F3E08491E3E9F3E09491E82F13
:101D5000F0E0EE0FFF1FEC58FF4FA591B491EC910E
:101D6000E92321F461E08AE00E945E0261E08AE0FA
:101D70000E948E028CB580618CBD8CB580648CBD58
:101D800061E08DE00E948E0261E08BE00E948E0295
:101D9000809124018F5F80932401CFBF8CB58F7D0C
:101DA0008CBD8CB58C7F81608CBD8DB581608DBD07
:101DB0008CB58C608CBD61E080918C030E948E029A
:101DC00061E080918B030E948E0261E080918D031F
:101DD0000E948E0280918F0318161CF461E00E940D
:101DE0008E0280918E0318161CF461E00E948E0210
:101DF00080918F03181674F460E00E945E026AE01E
:101E000070E080E090E00E94650361E080918F03C4
:101E10000E945E0280918B03082E000C990BFC013E
:101E2000EB58FC4FE491F0E0EE0FFF1FE258FF4F3C
:101E3000259134913093930320939203FC01E7574B
:101E4000FC4FE491E093990380918C03082E000CE1
:101E5000990BFC01EB58FC4FE491F0E0EE0FFF1FF3
:101E6000E258FF4F259134913093910320939003D2
:101E7000FC01E757FC4FE491E093980380918E03B7
:101E8000082E000C990BFC01EB58FC4FE491F0E09C
:101E9000EE0FFF1FE258FF4F2591349130939503C9
:101EA00020939403FC01E757FC4FE491E0939A03DD
:101EB00080918D03082E000C990BFC01EB58FC4F10
:101EC000E491F0E0EE0FFF1FE258FF4F25913491AF
:101ED0003093970320939603FC01E757FC4FE4915E
:101EE000E0939B0381E20E94910A84E10E94910A9F
:101EF0008091890387FF03C08FE7809389038091D6
:101F0000890380680E94910A80E20E94910A8CE015
:101F10000E94910A0E94B00AC1E0C093590384E074
:101F200080937D0380E790E0909365038093640342
:101F300060E080E00E94BE0B61E070E083E00E9400
:101F4000CA028091B100887F81608093B100F894CB
:101F500010928000109281001092850010928400EF
:101F600088E191E0909389008093880080918100BE
:101F700088608093810080918100816080938100DE
:101F800080916F00826080936F0078940E94360D7C
:101F900080914603813019F410925A031CC080913D
:101FA00049038823C9F380E00E94260A88E890E06C
:101FB0009093630380936203109268031092670307
:101FC000C093560389E080936B0310926E031092C6
:101FD0007003109272038091A003882309F48CC1CE
:101FE00081E08093860310928503109284031092FF
:101FF000480380939E0380939F0333EB232E30E0AE
:10200000332E40E3442E41E0542EDD24D394C1E02E
:10201000DCE00E9499058823E1F3E2E2F1E084919B
:10202000E2EBF0E08491F101849000919E03082E90
:10203000000C990B5C01F7E0AF0EB11CB7FE04C0B9
:102040005C012EE0A20EB11C23E0B594A7942A9562
:10205000E1F7181619060CF110928703D093880344
:1020600082E291E00E94F00A80918203982F990FFA
:10207000890F81958D5A8093870380918303982FD0
:10208000990F890F8195835D809388038091A103C7
:1020900084FF9BC08EEA90E09AC01814ECF6482D9D
:1020A00041330CF040E38535910514F084E590E070
:1020B000F0908A0310E02DE231E091E064EB70E0F3
:1020C000842E440F9908BB24412F50E04815590530
:1020D0001CF6FB01E4900130B9F4D90140E8542F1B
:1020E0005E2119F05C91592B5C9350E05595479512
:1020F0004115510519F43196E49040E811965A2F94
:10210000521B581760F358C001111AC0C92EC09451
:10211000FB01D90140E8542F5E2119F05C915C214C
:102120005C9350E0559547954115510519F431964A
:10213000E49040E811965A2F521B581760F33CC0A8
:10214000033019F5792E7094FB01D90140E8C22EB5
:102150006A2E621A542F5E2141F06F245C9160FE5A
:1021600002C0592B01C057215C9350E0559547950B
:102170004115510519F43196E49040E811965A2F13
:102180005C19581728F3FD2417C0FB01D90140E85A
:10219000542F5E2119F05C9159275C9350E05595BE
:1021A00047954115510519F43196E49040E8119690
:1021B0005A2F521B581760F3990F19F42C5A3F4F9E
:1021C00091E01F5F6A0D7B1D7FCF8AEA90E00E943D
:1021D000110B80918203982F990F890F81958D5A49
:1021E00080938703809188038F5F80938803809119
:1021F0005A03882319F086EA90E002C082EA90E050
:102200000E94110B80918203982F990F890F81955D
:102210008D5A80938703809188038F5F8093880312
:102220008EE990E00E94110B80914603813041F5C8
:1022300080915A038F5F60915B0387FD09C0082E70
:10224000000C990B70E06F5F7F4F0E944D14682F58
:1022500060935A0380E00E94260A509263034092E2
:1022600062031092680310926703C093560389E0DB
:1022700080936B0310926E0310927003109272039E
:10228000809145038130B9F08091A003482F50E040
:1022900060E070E00091A1031091A2032091A303DC
:1022A0003091A403041715072607370708F4C9C09F
:1022B0008F3F09F4C6C08FEF8093A00380E00E9497
:1022C000260A80E00E94260A86E990E09093630344
:1022D00080936203109268031092670381E08093F9
:1022E000560399E090936B0310926E031092700363
:1022F0001092720380934803C0904A03D0904B031E
:10230000C094D094E12CF12C0E9440034B015C015D
:102310000E944003A5019401209530954095509569
:1023200060957095809590950E9431149B01AC0149
:10233000C701B6010E9431144B015C018091310349
:10234000909132036C01E12CF12C0E944003C60EE7
:10235000D71EE81EF91EC701B601680D791D8A1D3A
:102360009B1D611571058105910511F00E949B125D
:102370001092480382E080938603C0E0D0E00E9480
:102380009905882309F457C08091420381508E3FFC
:1023900068F48091010190910201823091050CF462
:1023A00058C00297909302018093010180914403E9
:1023B00081508E3F68F480910101909102018F312C
:1023C00091050CF049C0029690930201809301019F
:1023D0008091450381508E3F60F48091250190915A
:1023E000260182309105DCF10297909326018093BB
:1023F00025018091460381508E3F60F48091250134
:10240000909126018F3191056CF5029690932601EB
:102410008093250100E123E04091010160E08EE717
:1024200093E00E94960423E04091250161E58EE748
:1024300093E00E949604209709F4A1CF0E94000027
:102440009ECF80914703813009F0E3CD0E941F0B9E
:10245000DCCD80E090E0A6CF80E290E0B5CF80E0D8
:1024600090E0C3CF80E290E0D1CF10928103109230
:1024700080038BE091E090937F0380937E038091B3
:102480000101909102019093260180932501089506
:102490008F929F92AF92BF92CF92DF92EF92FF9274
:1024A000CF93DF93EC01688179818A819B816115EB
:1024B00071058105910521F464E279ED8BE597E0E2
:1024C0002DE133EF41E050E00E94A41249015A018E
:1024D0009B01AC01A7EAB1E40E94C3126B017C012D
:1024E000ACEEB4EFA50194010E94D112DC01CB0146
:1024F0008C0D9D1DAE1DBF1DB7FF03C00197A10927
:10250000B04888839983AA83BB83BC01CD019F77A0
:10251000DF91CF91FF90EF90DF90CF90BF90AF9081
:102520009F908F9008950E944812089583E091E053
:102530000E944812089560930301709304018093F0
:102540000501909306010895052E97FB1EF4009453
:102550000E94BB1257FD07D00E94D61207FC03D081
:102560004EF40C94BB1250954095309521953F4FF9
:102570004F4F5F4F089590958095709561957F4F6F
:102580008F4F9F4F08950E94F812A59F900DB49F02
:10259000900DA49F800D911D11240895B7FF0C94F8
:1025A000C3120E94C312821B930B0895A1E21A2E3C
:1025B000AA1BBB1BFD010DC0AA1FBB1FEE1FFF1FE7
:1025C000A217B307E407F50720F0A21BB30BE40B37
:1025D000F50B661F771F881F991F1A9469F760957E
:1025E0007095809590959B01AC01BD01CF01089538
:1025F000A29FB001B39FC001A39F700D811D112444
:10260000911DB29F700D811D1124911D08950E948E
:102610007B1388F09F5798F0B92F9927B751B0F0E6
:10262000E1F0660F771F881F991F1AF0BA95C9F756
:1026300014C0B13091F00E949513B1E008950C944C
:102640009513672F782F8827B85F39F0B93FCCF3FF
:10265000869577956795B395D9F73EF490958095D3
:10266000709561957F4F8F4F9F4F0895E89409C0F3
:1026700097FB3EF490958095709561957F4F8F4FB5
:102680009F4F9923A9F0F92F96E9BB279395F695CB
:10269000879577956795B795F111F8CFFAF4BB0F49
:1026A00011F460FF1BC06F5F7F4F8F4F9F4F16C0AD
:1026B000882311F096E911C0772321F09EE8872F37
:1026C000762F05C0662371F096E8862F70E060E0F3
:1026D0002AF09A95660F771F881FDAF7880F96956C
:1026E000879597F9089557FD9058440F551F59F055
:1026F0005F3F71F04795880F97FB991F61F09F3FEF
:1027000079F087950895121613061406551FF2CF17
:102710004695F1DF08C0161617061806991FF1CF67
:1027200086957105610508940895E894BB2766278E
:102730007727CB0197F908950E94AF130C942014CA
:102740000E94121438F00E94191420F0952311F001
:102750000C9409140C940F1411240C9496130E94D9
:10276000731370F3959FC1F3950F50E0551F629F4F
:10277000F001729FBB27F00DB11D639FAA27F00DDA
:10278000B11DAA1F649F6627B00DA11D661F829F01
:102790002227B00DA11D621F739FB00DA11D621FE6
:1027A000839FA00D611D221F749F3327A00D611D03
:1027B000231F849F600D211D822F762F6A2F1124E5
:1027C0009F5750409AF0F1F088234AF0EE0FFF1F18
:1027D000BB1F661F771F881F91505040A9F79E3F6F
:1027E000510580F00C9409140C9496135F3FE4F3A8
:1027F000983ED4F3869577956795B795F795E795C5
:102800009F5FC1F7FE2B880F911D9695879597F9CD
:10281000089597F99F6780E870E060E008959FEF62
:1028200080EC089500240A94161617061806090667
:10283000089500240A941216130614060506089536
:10284000092E0394000C11F4882352F0BB0F40F4BE
:10285000BF2B11F460FF04C06F5F7F4F8F4F9F4FFE
:102860000895DB018F939F930E94C312BF91AF9194
:10287000A29F800D911DA39F900DB29F900D1124DA
:102880000895991B79E004C0991F961708F0961BCC
:10289000881F7A95C9F78095089597FB072E16F43F
:1028A000009407D077FD09D00E94611407FC05D081
:1028B0003EF4909581959F4F0895709561957F4F57
:1028C0000895AA1BBB1B51E107C0AA1FBB1FA61777
:1028D000B70710F0A61BB70B881F991F5A95A9F7C9
:1028E00080959095BC01CD010895EE0FFF1F0590D6
:1028F000F491E02D099481E090E0F8940C94801418
:04290000F894FFCF79
:102904000110000100000000000000CD04040230AA
:0E291400022F020D0A004C4F414445520000B4
:00000001FF
