:100000000C9453030C947B030C947B030C947B03A0
:100010000C947B030C947B030C947B030C947B0368
:100020000C947B030C947B030C947B030C940C0CBE
:100030000C947B030C947B030C947B030C947B0348
:100040000C94C20B0C947B030C947B030C947B03E9
:100050000C947B030C947B030C947B030C947B0328
:100060000C947B030C947B030101FF030101F70354
:100070006C00680000000000240027002A00000037
:100080000000250028002B000500893008023802F6
:10009000497868140000401E0000000000000000C5
:1000A00007FFE40001880008040024000284001017
:1000B0000400240004820020040024000881004081
:1000C0000400240010808880040024002080550053
:1000D00004002400408022000400240080800000EE
:1000E00004002400008008000400240000800800B0
:1000F000040024000080080007FFE40000800800DE
:1001000004000400008008000400040000800800CF
:1001100004000400008008000400040000800800BF
:1001200004000400008008000400040000800000B7
:1001300004000400008180200400040000814020AD
:10014000040004000081202004000400008110202D
:100150000400040000810820040004000081042041
:10016000040004000081022004000400008101203A
:1001700004000400008100A0040007FF008100606B
:10018000000000000000000000401E000000000011
:1001900000000007FFE4000008000804002400003D
:1001A000040010040024000E0200200400240011AA
:1001B00001004004002400208088800400240040C6
:1001C0004055000400240080202200040024010087
:1001D0004000000400240100800800040024000105
:1001E000000800040024000200080007FFE40004E7
:1001F00000080004000400080008000400040010C7
:10020000000800040004002020080004000400404E
:10021000200800040004007FE0080004000400003F
:10022000000000040004000001802004000400001D
:10023000014020040004000001202004000400000C
:100240000110200400040000010820040004000044
:100250000104200400040000010220040004000046
:1002600001012004000400000100A0040007FF00B9
:1002700001006000000000000000000005006801AF
:1002800038010000050038016801000017534400E0
:1002900016137800161314001510200015201000F6
:1002A000540A03E181867F3E186D830F0F0E018390
:1002B000866033186DC3198F1803C38E6033186DB1
:1002C000E330CF1803C39E603630CDE360CF3006F5
:1002D000C79E7E3E30CDB360CF300CC6F660333063
:1002E000D9B660CF33CFCCF66061B0DB1E60CF30C3
:1002F000D86CE6C061B0DB1E618F19986CC6C06314
:10030000B19B0E330F0FB078C6FF7E1F1B061E0F6A
:10031000F6E8DBCFC3B8AEA49B928A827B746E688A
:10032000625C57524E4945413E3A3734312E2C29B2
:10033000272523210A0A153A49676E6F7265006DF9
:10034000560A0A504C45415345205455524E204FB1
:10035000464620004C4F57204241545445525921A3
:10036000200003053F213F1208120A100A0E1C0E3E
:100370000C1E0C141A14161F161E131E1E1B1E1EF6
:100380001F1E3F213F3A2F3A173D173F213F181FAD
:1003900002040A041F0E04040E1F0A1F0A0E0E1F79
:1003A00004110E2E252E2F2A2E262929021F02087F
:1003B0001F08150E04040E150E15151B151B04063B
:1003C00004040C040000000017000300031F0A1FB0
:1003D00016371A1904130A153A000300000E1111FA
:1003E0000E000A040A040E04003000040404001085
:1003F000001804031F111F121F101D151711151FC0
:1004000007041F17151D1F151D01011F1F151F179D
:10041000151F000A00003200040A110A0A0A110A14
:10042000040115020E11171E051E1F150A0E110AD2
:100430001F110E1F15111F05010E111D1F041F1185
:100440001F1108100F1F041B1F10101F061F1E0472
:100450000F0E110E1F09060E112E1F051A12150977
:10046000011F011F101F0F180F1F0C1F1B041B0360
:100470001C03191513001F11030418111F0002019A
:10048000022020200001020C121E1F120C0C12125E
:100490000C121F0C1A14041E05242A1E1F021C1401
:1004A0001D1020201D1F0814111F101E041E1E02E7
:1004B0001C0C120C3E0A040C123E1E040214160AF6
:1004C000020F120E101E0E100E1E081E120C122607
:1004D000281E322A26041E21001F00211E040102AC
:1004E000013F213F172B152010204C4F414445520E
:1004F00000172B1620131400506F6E6720666F7262
:10050000203220706C61796572730A2042593A205A
:10051000526F6B204B6F7300401E00000000000004
:1005200000000000000000000000000000000000CB
:1005300000000000000000000000000000000000BB
:10054000000003FFFF0000000000020001000000A7
:100550000000020001000000000002000100000095
:100560000000020001000000000002000100000085
:100570000000020001000000000002000100000075
:100580000000020001000000000002000100000065
:10059000000003FFFF000000000002000000000058
:1005A0000000020001FFE7FCFF80020001002404BC
:1005B00080800200010024048080020001002404E5
:1005C00080800200010024048080020001002404D5
:1005D00080800200010024048080020001FFE40406
:1005E000FF8000000000000000800000000000000C
:1005F00000800000000000000080000000000000FB
:100600000080000000000000FF800045006801003D
:10061000000A4E6F2053442063617264206F720A97
:100620006E6F204C4F414445522E4845580A0A15DA
:100630003A45786974001D20466C617368696E677D
:100640000A20206C6F616465722E2E2E0A0A444FB8
:100650004E2754205455524E204F4646210000004C
:1006600000002300260029000404040404040404F8
:10067000020202020202030303030303010204084D
:1006800010204080010204081020010204081020FC
:100690000000000800020100000304070000000041
:1006A00000000000051611241FBECFEFD8E0DEBF0A
:1006B000CDBF11E0A0E0B1E0E4ECF0E302C00590B2
:1006C0000D92A432B107D9F723E0A4E2B1E001C052
:1006D0001D92A73CB207E1F713E0C3E5D3E004C0E5
:1006E0002197FE010E945518C235D107C9F70E9413
:1006F000A5110C9460180C940000CF92DF92EF9239
:10070000FF920F931F93CF93DF936C017A018B01BC
:10071000C0E0D0E0CE15DF0589F0D8016D918D01E4
:10072000D601ED91FC910190F081E02DC601099573
:10073000892B11F47E0102C02196ECCFC701DF9115
:10074000CF911F910F91FF90EF90DF90CF90089580
:100750000E945B188F929F92AF92BF92EF92FF928E
:100760000F931F93CF93DF932091B003222309F4BB
:10077000CAC08B01EC0181E080939603109295032F
:1007800010929403109258038093AE038093AF03AA
:100790008CE0F82E0E94DE048823E1F3FE018491B0
:1007A000882319F0E090930301C0E12C60EA72E025
:1007B00080E00E9442090115110529F0B8018CE082
:1007C0008E0D0E94420910929703F0929803CE0179
:1007D0000E94D60F80919203982F990F890F8195CF
:1007E0008D5A8093970380919303982F990F890FC7
:1007F0008195835D809398038091B10384FF03C04A
:100800008CE992E002C088E992E00E94F70F8091A3
:100810009203982F990F890F81958D5A8093970392
:10082000809198038F5F8093980380916A03882357
:1008300019F084E992E002C080E992E00E94F70F8B
:1008400080919203982F990F890F81958D5A8093EB
:100850009703809198038F5F809398038CE892E0D0
:100860000E94F70F809156038130B9F480916A039A
:100870008F5F20916B0387FD0AC0082E000C990B37
:1008800030E0B9016F5F7F4F0E942D18282F209311
:100890006A0385E693E00E94940C809155038130B1
:1008A000A9F08091B003482F50E060E070E08090A4
:1008B000B1039090B203A090B303B090B403841638
:1008C0009506A606B706B8F08F3FA9F08FEF809384
:1008D000B00360E085E693E00E944F0C109266033F
:1008E00040E064E872E085E693E00E94600C81E0FD
:1008F0008093580308C080915703813009F04ACF94
:100900000E94071047CFDF91CF911F910F91FF9069
:10091000EF90BF90AF909F908F9008954F925F920D
:100920006F927F92EF92FF920F931F93CF93DF937B
:10093000CDB7DEB7A1970FB6F894DEBF0FBECDBF1F
:100940007C01FA01CB0119A2223008F42AE08E01C1
:100950000F5D1F4F422E512C612C712CBF01A30142
:1009600092010E94B616F901CA01015011096A30BC
:1009700014F4605D01C0695CD8016C93232B242BB7
:10098000252B61F7B801C7010E94430AA1960FB653
:10099000F894DEBF0FBECDBFDF91CF911F910F91B5
:1009A000FF90EF907F906F905F904F900895DC01E3
:1009B000ED91FC910190F081E02D09944F925F92AE
:1009C0006F927F928F929F92AF92BF92CF92DF925F
:1009D000EF92FF920F931F93CF93DF9300D000D03D
:1009E0001F92CDB7DEB74091C0035091C103609113
:1009F000C2037091C3032FB7F89480913601909190
:100A00003701A0913801B09139012FBF481B590B14
:100A10006A0B7B0B8091BF0390E0A0E0B0E00091F7
:100A2000BB031091BC032091BD033091BE0384171A
:100A30009507A607B70730F4011511052105310503
:100A400009F03EC3012B022B032B09F037C3809121
:100A5000570381508E3F18F580915603813021F560
:100A600080916A038F5F60916B0387FD09C0082E38
:100A7000000C990B70E06F5F7F4F0E942D18682F5C
:100A800060936A0381EF94E09093C5038093C4035D
:100A900088E48093C60385E693E00E94940C8091DD
:100AA000570381508E3F70F480915503813009F0D7
:100AB000B3C384EE94E09093C5038093C40388E4A9
:100AC0008093C60380E00E943C10809166038823D7
:100AD00009F4ADC080917A038111A9C0809172039D
:100AE00090917303E0917703F0917803EE0FFF1F6D
:100AF000E80FF91F459154914115510501F52091D9
:100B00007603222331F01092780310927703FC01D0
:100B100014C01092660380916503882341F080E041
:100B20000E943C10E0917703F09178032FC060E0C1
:100B300085E693E00E944F0C7AC0459154919A014A
:100B4000369527953695279540FF51C0CA0116E086
:100B5000969587951A95E1F78F71952F96959695AD
:100B6000969590512F70223071F1F8F4211117C031
:100B70008B3008F08AE080937B03E0917703F0915B
:100B800078033196F0937803E0937703EE0FFF1F1D
:100B90008091720390917303E80FF91FCECF21303B
:100BA00061F760E00E947D10E8CF2330B1F024307F
:100BB00021F720916903829F802D11248093820365
:100BC00090938303DACF20916903829F802D1124B3
:100BD00080937E0390937F03D0CF20916903829FFF
:100BE000802D11248093800390938103C6CF2F73AF
:100BF0002093790380916903859F802D1124809330
:100C00007A0310928A03109289031092880381E07C
:100C100080937C038093310110927D038091770350
:100C20009091780301969093780380937703809155
:100C30007C03882309F4F3C080917A03811106C0F4
:100C400060E085E693E00E944F0CE9C081508093FC
:100C50007A0380918A03811148C0209188033091E2
:100C600089032F5F3F4FC901880F991FE0918403CB
:100C7000F0918503E80FF91F65917491862F8770B5
:100C800080938B03AB01E3E056954795EA95E1F736
:100C9000CA0196958795972F9695969590938C0374
:100CA0008F7390916903899F802D112480938A030B
:100CB00041704093350130938903209388038091DC
:100CC000860390E02817390780F0209187032223BC
:100CD00039F0821B9109909389038093880305C0A2
:100CE00060E085E693E00E944F0C80918A0381507A
:100CF00080938A0380917D0321E0280F20937D0358
:100D00004091790330918C03340F80917103380F37
:100D10003093670360918003662371F070E0822F47
:100D2000022E000C990B0E942D1880918103869F42
:100D3000300D1124309367038091670390E084960F
:100D400064E270E00E942D188093670330917B036A
:100D50003093680360917E03662381F0062E000CB9
:100D6000770B822F022E000C990B0E942D18809178
:100D70007F03869F300D11243093680360918203B6
:100D80006623A1F0822F220F990B70E00E942D188C
:100D9000CB0162E070E00E942D18209183039091B6
:100DA0006803289F900D1124909368038091680335
:100DB0004F3341F08A300CF089E087FD80E080936A
:100DC000680302C010926803F894E0916703F0E0B2
:100DD000E05FFC4FE491E09334013091680320918F
:100DE0008D0332039001112440918B034203C00113
:100DF000439F900D112400906A0302C0880F991F31
:100E00000A94E2F797FF02C081589F4F880F892FFD
:100E1000881F990B809333018093320178948091DD
:100E2000C603882309F496C08C3020F49CE0C92EB8
:100E3000C81A01C0C12CDD24D394D092960310921D
:100E4000AE031092AF03E09093033DE2B32E1B2D4F
:100E50001E191C0D03E00E0D2EE4412F63E08EE8F9
:100E600093E00E94F10C4CEFF42EFE0C1D5FEF2C72
:100E700001E023E0412F60E58EE893E00E94170E29
:100E800002E023E0412F63E08EE893E00E94170E1A
:100E9000D092AE03D092AF030091930313E0100FF2
:100EA000EB2CE01AEC0C23E04E2D622F8EE893E041
:100EB0002D830E94990C2D812F5F2135A9F71E0DDE
:100EC000FF24FA94F10E23E04F2D622F8EE893E079
:100ED0002D830E94990C2D812F5F2135A9F7035096
:100EE00033E0E30E202F4E2D60E08EE893E00E9469
:100EF000F40D202F4E2D63E58EE893E00E94F40D53
:100F000041E06E2D83E00E94B81042E06E2D80E536
:100F10000E94B810145044E0612F80E50E94B81080
:100F200048E0612F83E00E94B81084E0809397032B
:100F300080919303C81A8C2D815D809398038091D2
:100F4000C4039091C5030E94D60F8091C6038150BF
:100F50008093C60380915C0390915D03892B09F413
:100F600085C011E01093AE031092AF0390919203ED
:100F700085E5891B8093970310929803609159032C
:100F8000613009F454C030F080915803653008F0A6
:100F900066C061C060E085E693E00E944F0C10924D
:100FA000660310939603E2E6F3E0E491EF5FE093CB
:100FB0009203E3E6F3E0E491EF5FE093930384E6CA
:100FC00093E09093AD038093AC0310925D03109275
:100FD0005C031092940318EA0E94DE048823E1F374
:100FE00084E593E00E94D60F40915A0350915B0331
:100FF00060E070E02AE08EE893E00E948E048FE3C8
:1010000093E00E94D60F412F42954F7050E060E070
:1010100070E08EE893E00E94361184E393E00E9432
:10102000D60F80915503813009F0FCC01FC080911C
:10103000B1039091B203A091B303B091B4038F7048
:101040009927AA27BB270897A105B10510F467E0E7
:1010500009C068E707C0882349F06B5F03C0882395
:1010600029F06FE28EE893E00E94D7040E94960F69
:101070008091940381110EC088EF91E0E0E4F1E0EB
:10108000DF019C011D9221503040E1F7109297033F
:10109000109298030E94630B6093BB037093BC0390
:1010A0008093BD039093BE032091B7033091B803A2
:1010B000621B730B7093B6036093B50380E0CCC0E2
:1010C0002FB7F8948091360190913701A0913801A3
:1010D000B09139012FBF2091BF03820F911DA11D37
:1010E000B11D8093C0039093C103A093C203B0933A
:1010F000C3038091B1039091B203A091B303B09167
:10110000B4030196A11DB11D8093B1039093B20366
:10111000A093B303B093B4031092BB031092BC032B
:101120001092BD031092BE030E94630B6093B7033D
:101130007093B8038093B9039093BA0380914103ED
:10114000909142032FE0289F8001299F100D1124C8
:1011500085E10E944C0B800F911F24E096958795A6
:101160002A95E1F790934203809341032091400335
:10117000222309F44BC060914403262F30E040E065
:1011800050E029833A834B835C83C0904503D12C84
:10119000E12CF12C40914803509149034A01A12CC4
:1011A000B12C20914603309147032901612C712C09
:1011B0008217930728F09C014817590708F49A01F1
:1011C000C901A0E0B0E09C01AD0124193509460930
:1011D000570969817A818B819C816C197D098E09FF
:1011E0009F090E941118A501940124193509460987
:1011F00057090E948416C20ED31EE41EF51EC0922B
:1012000043036C2D70E085E00E94ED0A0E94230FDD
:101210000E94681181E020C0893209F053CC0E94FD
:10122000071050CC115009F0D7CE60E070E085E097
:101230000E94ED0A83B7817F846083BF83B781609A
:1012400083BF83B7816083BF889583B78E7F83BF59
:1012500083B78E7F83BFC0CE0F900F900F900F90FB
:101260000F90DF91CF911F910F91FF90EF90DF9042
:10127000CF90BF90AF909F908F907F906F905F9036
:101280004F9008958F929F92AF92BF92CF92DF922C
:10129000EF92FF920F931F93CF93DF93FB01249163
:1012A0003196C490F090AE03022E000C330B121650
:1012B00013060CF0D7C080330CF0D4C0482F082E92
:1012C000000C550BFA01EC0DF11DC7FCFA951E162A
:1012D0001F060CF0C7C06E5F7F4FD901179693E0D1
:1012E000B595A7959A95E1F787FF0BC0C80EA49F07
:1012F000C001A59F900DB49F900D1124681B790B20
:1013000080E04C2D0C2C000C550B480F511D87FD17
:101310005A95413351051CF090E3C92EC81A253562
:10132000310514F024E530E010919A031827982F26
:10133000977031E001C0330F9A95EAF7859585954E
:101340008595F4E58F02C0011124805C9E4F00E07A
:101350000C2C000CDD08BB24B394402F50E04C153E
:101360005D050CF07FC0FB01E490F1E0FF1218C0B6
:10137000FB01EC0140E8542F5E2119F05881532BFA
:10138000588350E0559547954115510519F431960C
:10139000E49040E821965C2F581B521760F359C027
:1013A000F1101AC0A32EA094FB01EC0140E8542FC9
:1013B0005E2119F058815A21588350E05595479580
:1013C0004115510519F43196E49040E821965C2FBF
:1013D000581B521760F33DC043E0F41223C0932E14
:1013E0009094FB01EC0140E8A82E8C2E881A542F13
:1013F0005E2141F08126588180FE02C0532B01C03E
:101400005921588350E0559547954115510519F4D8
:101410003196E49040E821965C2F5A19521728F330
:101420001B2517C0FB01EC0140E8542F5E2119F089
:1014300058815327588350E05595479541155105DC
:1014400019F43196E49040E821965C2F581B52170E
:1014500060F3330F19F48C5A9F4F31E00F5F6A0F1E
:101460007B1F7BCFDF91CF911F910F91FF90EF906A
:10147000DF90CF90BF90AF909F908F900895089588
:1014800080E090E008956115710579F0FB0101900D
:101490000020E9F73197AF01461B570BDC01ED91B6
:1014A000FC910280F381E02D099480E090E00895A2
:1014B000833081F028F4813099F08230A1F00895D2
:1014C0008730A9F08830B9F08430D1F48091800061
:1014D0008F7D03C0809180008F7780938000089576
:1014E00084B58F7702C084B58F7D84BD08958091C7
:1014F000B0008F7703C08091B0008F7D8093B000E3
:1015000008951F93CF93DF93282F30E0F901E05720
:10151000F94F8491F901E458F94FD491F901E85950
:10152000F94FC491CC23C9F0162F81110E94580A9B
:10153000EC2FF0E0EE0FFF1FE258FF4FA591B491A2
:101540008FB7F894111105C09C91ED2FE095E92318
:1015500002C0EC91ED2BEC938FBFDF91CF911F91E7
:101560000895CF93DF9390E0FC01E458F94F249164
:10157000FC01E859F94F8491882361F190E0880FCC
:10158000991FFC01EC58FF4FC591D491FC01E25822
:10159000FF4FA591B491611109C09FB7F89488815C
:1015A000209582238883EC912E230BC0623061F456
:1015B0009FB7F8943881822F809583238883EC919C
:1015C0002E2B2C939FBF06C08FB7F894E8812E2B4B
:1015D00028838FBFDF91CF9108951F93CF93DF931F
:1015E000182FEB0161E00E94B10A209711F460E02E
:1015F00004C0CF3FD10539F461E0812FDF91CF9155
:101600001F910C94810AE12FF0E0E057F94FE4912B
:10161000E330F9F048F4E130B9F0E230A1F584B5F7
:10162000806284BDC8BD34C0E730E9F0E83019F10C
:10163000E43049F580918000806280938000D093EF
:101640008B00C0938A0024C084B5806884BDC7BD68
:101650001FC080918000806880938000D0938900B3
:10166000C093880015C08091B00080688093B0005E
:10167000C093B3000DC08091B00080628093B00031
:10168000C093B40005C0C038D1050CF0B5CFAFCFC2
:10169000DF91CF911F9108958E3008F08E508770A2
:1016A000806480937C0080917A00806480937A00CB
:1016B00080917A0086FDFCCF80917800209179009E
:1016C00090E0922B08953FB7F89480913C0190915F
:1016D0003D01A0913E01B0913F0126B5A89B05C0F8
:1016E0002F3F19F00196A11DB11D3FBFBA2FA92FA1
:1016F000982F8827820F911DA11DB11DBC01CD011E
:1017000042E0660F771F881F991F4A95D1F7089509
:101710008F929F92AF92BF92CF92DF92EF92FF9201
:101720006B017C010E94630B4B015C01C114D1046D
:10173000E104F104F1F00E94630BDC01CB01881994
:101740009909AA09BB09883E9340A105B10570F328
:1017500021E0C21AD108E108F10888EE880E83E082
:10176000981EA11CB11CC114D104E104F10419F7A5
:10177000DDCFFF90EF90DF90CF90BF90AF909F9024
:101780008F9008951F920F920FB60F9211242F93EE
:101790003F938F939F93AF93BF9380913601909126
:1017A0003701A0913801B091390130913B0123E01C
:1017B000230F2D3720F40196A11DB11D05C026E889
:1017C000230F0296A11DB11D20933B01809336018A
:1017D00090933701A0933801B093390180913C0177
:1017E00090913D01A0913E01B0913F010196A11D54
:1017F000B11D80933C0190933D01A0933E01B093B5
:101800003F01BF91AF919F918F913F912F910F9089
:101810000FBE0F901F9018951F920F920FB60F9248
:1018200011242F936F937F938F939F936091330134
:10183000662359F180913A018F5F80933A0190912C
:101840003401891710F12091310181E0282720937C
:10185000310110923A0180913501882369F080911D
:10186000080193E4899F802D1124895B80930801EE
:101870000E94211890933201222329F08091320195
:101880008093B40002C080E0FBCF9F918F917F9145
:101890006F912F910F900FBE0F901F901895FC0124
:1018A00061110DC0178A158A14A213A2108E10920E
:1018B000320110923301109231011092B400089558
:1018C000EF92FF920F931F93CF93DF931F92CDB7A9
:1018D000DEB77C018B01411105C060E049830E94A5
:1018E0004F0C498150E0FA01EE0FFF1FEE0DFF1D76
:1018F00016870587DA011996AA0FBB1FAE0DBF1D0B
:101900001D921C92F701E40FF51F81E0818389E0AD
:10191000868B118E138E158E0F90DF91CF911F91B4
:101920000F91FF90EF90089540E06BE076E00C940B
:10193000600CFC01643508F053C0403308F050C01F
:1019400090A1742F759575957595262F062E000C10
:10195000330B542F57709230A1F4F901E05CFE4F25
:1019600084E57802E00DF11D1124808190E0052EC0
:1019700002C0959587950A94E2F78095982F91700B
:101980000AC0933041F484858170462740954170A8
:10199000841303C014C0911112C084E57802200D95
:1019A000311D1124F901E05CFE4F81E090E001C09F
:1019B000880F5A95EAF780959081892310C084E5B5
:1019C0007802200D311D1124F901E05CFE4F81E009
:1019D00090E001C0880F5A95EAF79081892B8083A7
:1019E0000895BF92CF92DF92EF92FF920F931F93D1
:1019F000CF93DF931F92CDB7DEB77C01D62EC42ED6
:101A0000002E000C110B040F111D47FD1A954C2DD3
:101A10000C2C000C550B401751077CF4B12CB2165E
:101A200054F46B2D6D0D4C2DC70129830E94990C28
:101A3000B3942981F4CFC394EACF0F90DF91CF9173
:101A40001F910F91FF90EF90DF90CF90BF9008957E
:101A50006F927F928F929F92AF92BF92CF92DF92BE
:101A6000EF92FF920F931F93CF93DF93EC016A30B5
:101A700019F42D819885A1C06D3009F4A4C0188592
:101A8000BA84D98488A083E58D150CF47FC08FE2D9
:101A90008B150CF47BC08C8190E00197189F90010E
:101AA000199F300D1124C9018D0D911DD7FC9A95F8
:101AB000181619060CF06AC08D81819FC00111248F
:101AC0008B0D911DB7FC9A95181619060CF05EC087
:101AD0009D2CCD2CE62EF12CEC2DED190E2E000CAC
:101AE000FF0B8C8190E0E817F9070CF04EC00197CE
:101AF000E817F90779F0E89E9001E99E300DF89E0D
:101B0000300D1124E20FF31F8E8D9F8DE80FF91F0A
:101B1000749001C0712C6B2CAB2C2A2D2B19022E2A
:101B2000000C330B8D8190E0281739075CF570FEAF
:101B300010C0113031F44A2D6C2DCE010E94990C49
:101B40001DC0012F212F462D692DCE010E94F10CC1
:101B500015C089A198A1891789F088A3113031F4A3
:101B60004A2D6C2DCE010E94990C07C0012F212F08
:101B7000462D692DCE010E94F10C88A27694A39483
:101B8000610ECBCFC394910EA7CF88A228853C814C
:101B90008985329F800D112489879F81992399F02F
:101BA000082E000C990B44E550E0239F4019510981
:101BB0001124481759073CF49D818A85299F800D7F
:101BC00011248A87198681E090E0DF91CF911F91DF
:101BD0000F91FF90EF90DF90CF90BF90AF909F90CC
:101BE0008F907F906F900895DF92EF92FF920F9306
:101BF0001F93CF93DF931F92CDB7DEB78C01D62E04
:101C0000F42EE12CE21654F44E2D4F0D6D2DC8012B
:101C100029830E94990CE3942981F4CF0F90DF91DE
:101C2000CF911F910F91FF90EF90DF9008958F92C9
:101C30009F92AF92BF92CF92DF92EF92FF920F935B
:101C40001F93CF93DF936C01B62EA42EC22F11E009
:101C5000121BF22EF194FF0CD1E0802F8170882EA0
:101C6000992493949E0C02708FEF8D0F8C17C4F5FE
:101C700017FD04C0C150F394F3941F0D8D2F880FEE
:101C80008F5F180F882099F02C2F220F290D4A2DD5
:101C90004C1B6D2F6B0DC6010E94F40D23E02E0D21
:101CA0004A2D4D1B6C2F6B0DC6010E94F40D0023B5
:101CB00099F02C2F220F290D4A2D4C1B6B2D6D1BDB
:101CC000C6010E94F40D23E02E0D4A2D4D1B6B2DF5
:101CD0006C1BC6010E94F40DDF5FE394E394C4CF54
:101CE000DF91CF911F910F91FF90EF90DF90CF90F8
:101CF000BF90AF909F908F9008951092580382E00C
:101D000080939603109225011092240110922701CE
:101D10001092260180E190E09093070180930601E4
:101D200090932F0180932E0128E230E0309305013B
:101D30002093040190932D0180932C010E9476162C
:101D400022E030E040E050E00E948416672B682BD0
:101D5000692B19F08DEF9FEF02C083E090E0909324
:101D60000301809302010E94761622E030E040E0F9
:101D700050E00E948416672B682B692B19F08DEFB9
:101D80009FEF02C083E090E09093010180930001F7
:101D900008958F929F92AF92BF92CF92DF92EF926F
:101DA000FF9268E175E08AE096E00E94AA0360E095
:101DB00070E088EF94E00E94AA03C0905A03D0908C
:101DC0005B03C094D094E12CF12C0E94630B4B0177
:101DD0005C010E94630BA50194012095309540950C
:101DE000509560957095809590950E9411189B0173
:101DF000AC01C701B6010E9411184B015C01809132
:101E00004103909142036C01E12CF12C0E94630B81
:101E1000C60ED71EE81EF91EC701B601680D791D52
:101E20008A1D9B1D611571058105910511F00E94A8
:101E30007B16FF90EF90DF90CF90BF90AF909F9078
:101E40008F900C947D0ECF92DF92EF92FF920F93C2
:101E50001F93CF93DF93CAE4D3E001E513E0FF249F
:101E6000FA9497E0E92EE00E62E088810E94B10AC0
:101E7000288130E0F901E057F94F8491F901E458E5
:101E8000F94FC490F901E859F94FD490DD2071F071
:101E900081110E94580AED2DF0E0EE0FFF1FE25A6B
:101EA000F94FA591B491EC91EC21B1F4F801808146
:101EB0008F5F808360E088810E94B10A21960F5F66
:101EC0001F4FE012D1CFDF91CF911F910F91FF9063
:101ED000EF90DF90CF900895F8018081882371F30F
:101EE000F8018F3F11F41082E5CFF082E3CFCF935A
:101EF000C82FF89460E080919D030E94810A809130
:101F00009E0318161CF460E00E94810ACEBD0000FA
:101F10000DB407FEFDCF8EB580919E0318161CF4FC
:101F200061E00E94810A7894CF9108950F931F93E6
:101F3000CF9380919A038F5F80939A0300E411E01E
:101F4000C0E08C2F80640E94770F80E80E94770F9A
:101F500061E080919D030E94810A80919E03181682
:101F60001CF460E00E94810A80E090E0F801E80F34
:101F7000F91F20812EBD00000DB407FEFDCF2EB548
:101F800001968435910591F780919E0318161CF4F3
:101F900061E00E94810ACF5F0C5A1F4FC63089F65C
:101FA00080E4CF911F910F910C94770F0F931F93A3
:101FB000CF93DF938C01C0E0D0E0F801EC0FFD1F60
:101FC0006491662371F0E0918E03F0918F0301908C
:101FD000F081E02D8EE893E00995892B11F0219690
:101FE000ECCFCE01DF91CF911F910F910895CF9348
:101FF000DF930E94D60FEC0169E171E08EE893E077
:102000000E94430A8C0F9D1FDF91CF91089588EFA6
:1020100091E0E0E4F1E0DF019C011D9221503040AD
:10202000E1F7109297031092980386E396E00E94DE
:10203000D60F0E94960F8CB583608CBD8DB58E7FB8
:102040008DBD8CE191E0EEEFFFE3099510929403D2
:1020500081E196E00E94F70F0E94960F0E94230FE5
:1020600080915503813039F062E370E080E090E0C8
:102070000E94880BF3CF0895CF93DF93482F50E051
:10208000EA01C05CDC4F9DA19923A1F19EA19111B1
:1020900031C09EA5FA01EE0FFF1FE95BFC4F35A191
:1020A00026A1E32FF22FE90FF11DE90FF11D259174
:1020B00034912F3F9FEF390711F41DA21BC039AB9C
:1020C000440F551FFA01E65BFC4F3327220F331FE5
:1020D00005A0F6A1E02DE20FF31F65917491811127
:1020E00005C040E085E693E00E94600C29968DA132
:1020F0008F5F8DA3DF91CF91089570E0DB01AA0F70
:10210000BB1FA05CBC4FD4962C91D497D5969C91C4
:10211000D597E22FF92FE80FF11DE80FF11D25915A
:1021200034915F9696963C932E939597F9018591FD
:10213000949190916903989F802D1124605C7C4F4D
:10214000FB01B19685A3F901A591B4914B2F50E005
:10215000E82FF0E04E175F0720F4F9012591349144
:10216000832FFB01B296899F802D112485A30895AA
:10217000AF92BF92CF92DF92EF92FF920F931F9395
:10218000CF93DF93182F062FC1E0D3E08AEFD82E2C
:102190009EEFE92E842F8470C82E842F8270B82E73
:1021A000842F8870A82E4170F42E8C2F880F8F5F9B
:1021B000E80ECC2081F04D2F400F6C2F610F8EE880
:1021C00093E00E94990C4C2F400F6D2F610F8EE809
:1021D00093E00E94990CBB2081F0402F4D1B6C2F87
:1021E000610F8EE893E00E94990C402F4C1B6D2FDD
:1021F000610F8EE893E00E94990CAA2081F04C2F89
:10220000400F612F6D1B8EE893E00E94990C4D2FBB
:10221000400F612F6C1B8EE893E00E94990CFF2009
:1022200081F0402F4C1B612F6D1B8EE893E00E94C4
:10223000990C402F4D1B612F6C1B8EE893E00E9480
:10224000990CCD1744F4E7FC04C0D150D394D39437
:10225000ED0CCF5FAACFDF91CF911F910F91FF902F
:10226000EF90DF90CF90BF90AF900895CF92DF9224
:10227000EF92FF920F931F93CF93DF9377FF1DC0D1
:102280006A017B01EC016DE20E94D7048C014427B6
:102290005527BA014C195D096E097F092AE0CE0164
:1022A0000E948E04800F911FDF91CF911F910F919B
:1022B000FF90EF90DF90CF9008952AE0DF91CF91CB
:1022C0001F910F91FF90EF90DF90CF900C948E04B0
:1022D00080915C0390915D03892BB1F1809164033F
:1022E0008F7169F584E10E944C0BBC01990F880B3A
:1022F000990B0E94181726EE3FE34EEC50E40E9423
:102300007C170E94E7169B0170935B0360935A034E
:10231000672B91F084E080935903ECE5F3E080E0D3
:10232000419151912417350718F48093590308956A
:102330008F5F8430A9F703C08FEF8093590380919A
:1023400064038F5F809364030895789484B58260FA
:1023500084BD84B5816084BD85B5826085BD85B549
:10236000816085BD80916E00816080936E001092C7
:102370008100809181008260809381008091810042
:1023800081608093810080918000816080938000D3
:102390008091B10084608093B1008091B000816031
:1023A0008093B00080917A00846080937A0080915D
:1023B0007A00826080937A0080917A0081608093B5
:1023C0007A0080917A00806880937A001092C10030
:1023D00082E38093BF0381E090E0A0E0B0E08093CF
:1023E000BB039093BC03A093BD03B093BE038FEFD8
:1023F0008093B003E0E8F7E7259134912130304C29
:1024000009F049C0E6E9F7E7E491E0939903E7E9C9
:10241000F7E7E491E0934403E8E9F7E7E491E09318
:102420004503E9E9F7E785919491909347038093F9
:102430004603EBE9F7E785919491909349038093E4
:10244000480387E080936B03EEE9F7E7E491E093BC
:102450006A03EFE9F7E7E491E093B003E0EAF7E716
:102460008591949190935D0380935C03E2EAF7E792
:102470008591949190935F0380935E03E4EAF7E77C
:10248000859194919093610380936003E6EAF7E766
:10249000859194912CC09CE39093990310924403EE
:1024A0008093450380E293E0909347038093460333
:1024B00084ED93E0909349038093480387E08093F1
:1024C0006B0380936A038CEA9DE090935D03809395
:1024D0005C038EED9DE090935F0380935E0384E741
:1024E0009EE090936103809360038CE39FE0909360
:1024F000630380936203C1E0C09340036FEF70E019
:1025000085E00E94ED0A88E080934A0389E0809389
:102510004B0387E080934C0386E080934D03D4E027
:10252000D0934E0382E080934F0381E18093500368
:102530000E94230F8CE39FE090935B0380935A03E8
:10254000D0935903C09364038BE080939C038DE088
:1025500080939B0380E180939D038EE080939F0393
:102560008FE080939E03C0939603C093AE031092B6
:10257000AF03C0939503E2E6F3E0E491EF5FE093ED
:102580009203E3E6F3E0E491EF5FE093930384E6E4
:1025900093E09093AD038093AC03CFB7F894809110
:1025A0003001811127C0E2E7F6E08491E6E8F6E029
:1025B0009491E82FF0E0EE0FFF1FEC58FF4FA5912C
:1025C000B491EC91E92321F461E08AE00E94810A50
:1025D00061E08AE00E94B10A8CB580618CBD8CB547
:1025E00080648CBD61E08DE00E94B10A61E08BE007
:1025F0000E94B10A809130018F5F80933001CFBF7C
:102600008CB58F7D8CBD8CB58C7F81608CBD8DB57C
:1026100081608DBD8CB58C608CBD61E080919C0328
:102620000E94B10A61E080919B030E94B10A61E0BF
:1026300080919D030E94B10A80919F0318161CF49B
:1026400061E00E94B10A80919E0318161CF461E0BB
:102650000E94B10A80919F03181674F460E00E94F2
:10266000810A6AE070E080E090E00E94880B61E0FF
:1026700080919F030E94810A80919B03082E000C89
:10268000990BFC01E859F94FE491F0E0EE0FFF1FC0
:10269000E258FF4F259134913093A3032093A20376
:1026A000FC01E458F94FE491E093A90380919C0365
:1026B000082E000C990BFC01E859F94FE491F0E069
:1026C000EE0FFF1FE258FF4F259134913093A10385
:1026D0002093A003FC01E458F94FE491E093A80390
:1026E00080919E03082E000C990BFC01E859F94FCC
:1026F000E491F0E0EE0FFF1FE258FF4F2591349177
:102700003093A5032093A403FC01E458F94FE4910E
:10271000E093AA0380919D03082E000C990BFC0105
:10272000E859F94FE491F0E0EE0FFF1FE258FF4F38
:10273000259134913093A7032093A603FC01E4581C
:10274000F94FE491E093AB0381E20E94770F84E1BB
:102750000E94770F8091990387FF03C08FE78093D2
:1027600099038091990380680E94770F80E20E940C
:10277000770F8CE00E94770F0E94960F81E0809384
:10278000690384E080938D0380E790E09093750364
:102790008093740360E080E00E947D1061E070E04F
:1027A00083E00E94ED0A8091B100887F8160809370
:1027B000B100F89410928000109281001092850070
:1027C0001092840088E191E09093890080938800C2
:1027D0008091810088608093810080918100816078
:1027E0008093810080916F00826080936F00789465
:1027F0000E94681180915603813019F410926A0387
:102800000BC0809159038823C9F340E068E870E069
:1028100085E693E00E94600C0E94C90E9CE2492E5E
:10282000512C612C712C2DEF222E33243A9433E05D
:10283000832E912C44E0C42ED12C5CE2A52EB12C29
:1028400088E0F82E0E94DE04882309F49BC1809161
:10285000520381508E3F68F48091060190910701E8
:10286000823091050CF496C10297909307018093F2
:1028700006018091540381508E3F68F480910601D7
:10288000909107018F3191050CF087C102969093CA
:102890000701809306018091560381508E3F68F4B2
:1028A00080912E0190912F01823091050CF478C116
:1028B000029790932F0180932E01809155038150B0
:1028C0008E3F68F480912E0190912F018F319105F8
:1028D0000CF069C1029690932F0180932E01C09154
:1028E0000201D091030100910401109105010C0F28
:1028F0001D1F109305010093040180910001909128
:10290000010120912C0130912D01280F391F3093A6
:102910002D0120932C012D3231057CF0919581956C
:1029200091099093010180930001B0922D01A09232
:102930002C0185E693E00E94940C80912C019091EB
:102940002D0104979CF480910001909101019195D3
:10295000819591099093010180930001D0922D01FE
:10296000C0922C0185E693E00E94940C073011057B
:1029700094F420912C0130912D01809106019091C9
:102980000701AC01405F5F4F4217530724F08217E5
:1029900093070CF40BC180910401909105018E34D2
:1029A000910594F020912C0130912D0180912E0100
:1029B00090912F01AC01405F5F4F4217530724F005
:1029C000821793070CF406C100E123E04091060151
:1029D00060E08EE893E00E94F10C23E040912E012C
:1029E00061E58EE893E00E94F10C10912C01C091FA
:1029F0000401D09105014CEF410F29E06C2F8EE8C6
:102A000093E00E94F40DE12C03E024E0412F6C2FB1
:102A10008EE893E00E94170E10E004E022E0412FC0
:102A200069E28EE893E00E94F10C185F1033A9F779
:102A300001E024E540E060E08EE893E00E94F10CC4
:102A400024E54FE260E08EE893E00E94F10CCC3F79
:102A5000DF4FBCF480912A0190912B0190930501E6
:102A600080930401909203018092020180912601DB
:102A7000909127010196909327018093260121E0F0
:102A800001C020E0809104019091050189359105F4
:102A9000B4F08091280190912901909305018093D1
:102AA000040130920301209202018091240190914F
:102AB00025010196909325018093240102C02223D1
:102AC00089F00E947616A30192010E9484167093E9
:102AD0002D0160932C0140E06CE772E085E693E005
:102AE0000E94600C95E190939703F09298034091B7
:102AF000240150912501052E000C660B770B8EE802
:102B000093E00E94361189E380939703F092980333
:102B10004091260150912701052E000C660B770B82
:102B20008EE893E00E943611209124013091250116
:102B300080912601909127012B30310524F48B30B0
:102B4000910564F41AC0A901481B590B4230510584
:102B50002CF066E970E088E891E00BC08B309105BD
:102B600064F0821B930B029744F069E871E08BE7F5
:102B700092E00E94AA030E947D0E8091570381304B
:102B800009F440C080E090E0892B09F45BCE0E94FC
:102B9000000056CE80E090E068CE80E290E077CEF4
:102BA00080E090E086CE80E290E095CED195C19510
:102BB000D109D0930301C093020180912A01909121
:102BC0002B01909305018093040185E693E00E9418
:102BD000940CE1CE80910201909103019195819531
:102BE00091099093030180930201809128019091B3
:102BF0002901909305018093040185E693E00E94EA
:102C0000940CE2CE0E94C90EBDCF10929103109297
:102C1000900381E191E090938F0380938E038091E4
:102C200006019091070190932F0180932E019093BC
:102C30002D0180932C0188E090E090932B018093EC
:102C40002A018CE490E09093290180932801089553
:102C50008F929F92AF92BF92CF92DF92EF92FF92AC
:102C6000CF93DF93EC01688179818A819B81611523
:102C700071058105910521F464E279ED8BE597E01A
:102C80002DE133EF41E050E00E94841649015A01E2
:102C90009B01AC01A7EAB1E40E94A3166B017C0181
:102CA000ACEEB4EFA50194010E94B116DC01CB019A
:102CB0008C0D9D1DAE1DBF1DB7FF03C00197A1095F
:102CC000B04888839983AA83BB83BC01CD019F77D9
:102CD000DF91CF91FF90EF90DF90CF90BF90AF90BA
:102CE0009F908F9008950E942816089589E091E0A2
:102CF0000E94281608956093090170930A01809339
:102D00000B0190930C010895052E97FB1EF400947F
:102D10000E949B1657FD07D00E94B61607FC03D0F1
:102D20004EF40C949B1650954095309521953F4F4D
:102D30004F4F5F4F089590958095709561957F4FA7
:102D40008F4F9F4F08950E94D816A59F900DB49F56
:102D5000900DA49F800D911D11240895B7FF0C9430
:102D6000A3160E94A316821B930B0895A1E21A2EAC
:102D7000AA1BBB1BFD010DC0AA1FBB1FEE1FFF1F1F
:102D8000A217B307E407F50720F0A21BB30BE40B6F
:102D9000F50B661F771F881F991F1A9469F76095B6
:102DA0007095809590959B01AC01BD01CF01089570
:102DB000A29FB001B39FC001A39F700D811D11247C
:102DC000911DB29F700D811D1124911D08950E94C7
:102DD0005B1788F09F5798F0B92F9927B751B0F03B
:102DE000E1F0660F771F881F991F1AF0BA95C9F78F
:102DF00014C0B13091F00E947517B1E008950C94A1
:102E00007517672F782F8827B85F39F0B93FCCF353
:102E1000869577956795B395D9F73EF4909580950B
:102E2000709561957F4F8F4F9F4F0895E89409C02B
:102E300097FB3EF490958095709561957F4F8F4FED
:102E40009F4F9923A9F0F92F96E9BB279395F69503
:102E5000879577956795B795F111F8CFFAF4BB0F81
:102E600011F460FF1BC06F5F7F4F8F4F9F4F16C0E5
:102E7000882311F096E911C0772321F09EE8872F6F
:102E8000762F05C0662371F096E8862F70E060E02B
:102E90002AF09A95660F771F881FDAF7880F9695A4
:102EA000879597F9089557FD9058440F551F59F08D
:102EB0005F3F71F04795880F97FB991F61F09F3F27
:102EC00079F087950895121613061406551FF2CF50
:102ED0004695F1DF08C0161617061806991FF1CFA0
:102EE00086957105610508940895E894BB276627C7
:102EF0007727CB0197F908950E948F170C9400183B
:102F00000E94F21738F00E94F91720F0952311F073
:102F10000C94E9170C94EF1711240C9476170E9467
:102F2000531770F3959FC1F3950F50E0551F629FA3
:102F3000F001729FBB27F00DB11D639FAA27F00D12
:102F4000B11DAA1F649F6627B00DA11D661F829F39
:102F50002227B00DA11D621F739FB00DA11D621F1E
:102F6000839FA00D611D221F749F3327A00D611D3B
:102F7000231F849F600D211D822F762F6A2F11241D
:102F80009F5750409AF0F1F088234AF0EE0FFF1F50
:102F9000BB1F661F771F881F91505040A9F79E3FA7
:102FA000510580F00C94E9170C9476175F3FE4F319
:102FB000983ED4F3869577956795B795F795E795FD
:102FC0009F5FC1F7FE2B880F911D9695879597F906
:102FD000089597F99F6780E870E060E008959FEF9B
:102FE00080EC089500240A941616170618060906A0
:102FF000089500240A94121613061406050608956F
:10300000092E0394000C11F4882352F0BB0F40F4F6
:10301000BF2B11F460FF04C06F5F7F4F8F4F9F4F36
:103020000895DB018F939F930E94A316BF91AF91E8
:10303000A29F800D911DA39F900DB29F900D112412
:103040000895991B79E004C0991F961708F0961B04
:10305000881F7A95C9F78095089597FB072E16F477
:10306000009407D077FD09D00E94411807FC05D0D5
:103070003EF4909581959F4F0895709561957F4F8F
:103080000895AA1BBB1B51E107C0AA1FBB1FA617AF
:10309000B70710F0A61BB70B881F991F5A95A9F701
:1030A00080959095BC01CD010895EE0FFF1F05900E
:1030B000F491E02D099481E090E0F8940C9460186C
:0430C000F894FFCFB2
:1030C40003000300280010000101000000000000BC
:1030D40000280D7D03400A3F0A0D0A004C4F41446D
:0430E4004552000051
:00000001FF
