:100000000C9453030C947B030C947B030C947B03A0
:100010000C947B030C947B030C947B030C947B0368
:100020000C947B030C947B030C947B030C94A70629
:100030000C947B030C947B030C947B030C947B0348
:100040000C9423060C947B030C947B030C947B038D
:100050000C947B030C947B030C947B030C947B0328
:100060000C947B030C947B030101FF030101F70354
:10007000506F6E6720666F72203220706C617965F8
:1000800072730A2042593A20526F6B204B6F7300F3
:10009000401E000000000000000000000000000002
:1000A0000000000000000000000000000000000050
:1000B0000000000000000000000003FFFF0000003F
:1000C000000002000100000000000200010000002A
:1000D000000002000100000000000200010000001A
:1000E000000002000100000000000200010000000A
:1000F00000000200010000000000020001000000FA
:100100000000020001000000000003FFFF000000EB
:1001100000000200000000000000020001FFE7FCF8
:10012000FF800200010024048080020001002404FA
:100130008080020001002404808002000100240469
:100140008080020001002404808002000100240459
:100150008080020001FFE404FF8000000000000036
:10016000008000000000000000800000000000008F
:10017000008000000000000000800000000000007F
:10018000FF80004500680100006C0068000000006E
:1001900000240027002A0000000000250028002B72
:1001A00000050089300802380249786814000040D0
:1001B0001E000000000000000007FFE400018800AE
:1001C00008040024000284001004002400048200BB
:1001D00020040024000881004004002400108088CE
:1001E0008004002400208055000400240040802268
:1001F0000004002400808000000400240000800827
:10020000000400240000800800040024000080088E
:100210000007FFE4000080080004000400008008DC
:1002200000040004000080080004000400008008AE
:10023000000400040000800800040004000080089E
:10024000000400040000800000040004000081801D
:1002500020040004000081402004000400008120EC
:100260002004000400008110200400040000810824
:100270002004000400008104200400040000810226
:10028000200400040000810120040004000081001B
:10029000A0040007FF0081006000000000000000D3
:1002A0000000401E000000000000000007FFE40006
:1002B00000080008040024000004001004002400CA
:1002C0000E0200200400240011010040040024005C
:1002D0002080888004002400404055000400240051
:1002E00080202200040024010040000004002401BA
:1002F000008008000400240001000800040024001D
:100300000200080007FFE4000400080004000400E5
:1003100008000800040004001000080004000400A5
:10032000202008000400040040200800040004000D
:100330007FE0080004000400000000000400040046
:10034000000180200400040000014020040004009B
:10035000000120200400040000011020040004001B
:10036000000108200400040000010420040004002F
:100370000001022004000400000101200400040028
:10038000000100A0040007FF000100600000000061
:1003900000000000000500680138010000F6E8DBFD
:1003A000CFC3B8AEA49B928A827B746E68625C579E
:1003B000524E4945413E3A3734312E2C29272523C8
:1003C000210A0A153A49676E6F7265006D560A0A6E
:1003D000504C45415345205455524E204F464620DF
:1003E000004C4F572042415454455259212000039C
:1003F000053F213F1208120A100A0E1C0E0C1E0C9B
:10040000141A14161F161E131E1E1B1E1E1F1E3F1F
:10041000213F3A2F3A173D173F213F181F02040A88
:10042000041F0E04040E1F0A1F0A0E0E1F04110ED5
:100430002E252E2F2A2E262929021F02081F0815D5
:100440000E04040E150E15151B151B040604040CD2
:10045000040000000017000300031F0A1F16371ACC
:100460001904130A153A000300000E11110E000AB8
:10047000040A040E040030000404040010001804F0
:10048000031F111F121F101D151711151F07041F21
:1004900017151D1F151D01011F1F151F17151F0003
:1004A0000A00003200040A110A0A0A110A0401159E
:1004B000020E11171E051E1F150A0E110A1F110E1E
:1004C0001F15111F05010E111D1F041F111F1108FB
:1004D000100F1F041B1F10101F061F1E040F0E11EC
:1004E0000E1F09060E112E1F051A121509011F01F4
:1004F0001F101F0F180F1F0C1F1B041B031C0319B9
:100500001513001F11030418111F000201022020FF
:10051000200001020C121E1F120C0C12120C121FD2
:100520000C1A14041E05242A1E1F021C141D102060
:10053000201D1F0814111F101E041E1E021C0C1269
:100540000C3E0A040C123E1E040214160A020F127C
:100550000E101E0E100E1E081E120C1226281E3221
:100560002A26041E21001F00211E040102013F2132
:100570003F172B152010204C4F4144455200172B9C
:1005800016201314000A4E6F2053442063617264D6
:10059000206F720A6E6F204C4F414445522E4845E1
:1005A000580A0A153A45786974001D20466C617333
:1005B00068696E670A20206C6F616465722E2E2E4A
:1005C0000A0A444F4E2754205455524E204F464657
:1005D0002100000000002300260029000404040478
:1005E00004040404020202020202030303030303DD
:1005F00001020408102040800102040810200102BA
:100600000408102000000008000201000003040795
:100610000000000000000000050038016801000033
:1006200017534400161378001613140015102000F9
:1006300015201000540A03E181867F3E186D830F58
:100640000F0E0183866033186DC3198F1803C38E94
:100650006033186DE330CF1803C39E603630CDE3AE
:1006600060CF3006C79E7E3E30CDB360CF300CC623
:10067000F6603330D9B660CF33CFCCF66061B0DBF3
:100680001E60CF30D86CE6C061B0DB1E618F199858
:100690006CC6C063B19B0E330F0FB078C6FF7E1FD0
:1006A0001B061E0F3C1611241FBECFEFD8E0DEBF85
:1006B000CDBF11E0A0E0B1E0E2E3F1E302C00590BC
:1006C0000D92A432B107D9F723E0A4E2B1E001C052
:1006D0001D92A73CB207E1F713E0C3E5D3E004C0E5
:1006E0002197FE010E948C18C235D107C9F70E94DC
:1006F000D5110C9497180C940000CF92DF92EF92D2
:10070000FF920F931F93CF93DF936C017A018B01BC
:10071000C0E0D0E0CE15DF0589F0D8016D918D01E4
:10072000D601ED91FC910190F081E02DC601099573
:10073000892B11F47E0102C02196ECCFC701DF9115
:10074000CF911F910F91FF90EF90DF90CF90089580
:10075000089580E090E008951092580382E080931D
:10076000960310922C0110922B0110922E011092E0
:100770002D0180E190E09093080180930701909310
:1007800036018093350128E230E030930601209352
:10079000050190933401809333010E94AD1622E04D
:1007A00030E040E050E00E94BB16672B682B692BBD
:1007B00019F08DEF9FEF02C083E090E09093040169
:1007C000809303010E94AD1622E030E040E050E04B
:1007D0000E94BB16672B682B692B19F08DEF9FEFDA
:1007E00002C083E090E0909302018093010108959C
:1007F0000E949218DC01ED91FC910190F081E02DB6
:1008000009946115710579F0FB0101900020E9F769
:100810003197AF01461B570BDC01ED91FC91028033
:10082000F381E02D099480E090E008954F925F926B
:100830006F927F92EF92FF920F931F93CF93DF936C
:10084000CDB7DEB7A1970FB6F894DEBF0FBECDBF10
:100850007C01FA01CB0119A2223008F42AE08E01B2
:100860000F5D1F4F422E512C612C712CBF01A30133
:1008700092010E94ED16F901CA01015011096A3076
:1008800014F4605D01C0695CD8016C93232B242BA8
:10089000252B61F7B801C7010E940104A1960FB68C
:1008A000F894DEBF0FBECDBFDF91CF911F910F91A6
:1008B000FF90EF907F906F905F904F9008958330FE
:1008C00081F028F4813099F08230A1F008958730CA
:1008D000A9F08830B9F08430D1F4809180008F7D08
:1008E00003C0809180008F7780938000089584B545
:1008F0008F7702C084B58F7D84BD08958091B0004C
:100900008F7703C08091B0008F7D8093B0000895F1
:100910001F93CF93DF93282F30E0F901EC5FF94F5D
:100920008491F901E051FA4FD491F901E452FA4F60
:10093000C491CC23C9F0162F81110E945F04EC2FC3
:10094000F0E0EE0FFF1FE956FE4FA591B4918FB76F
:10095000F894111105C09C91ED2FE095E92302C098
:10096000EC91ED2BEC938FBFDF91CF911F91089508
:10097000CF93DF9390E0FC01E051FA4F2491FC010A
:10098000E452FA4F8491882361F190E0880F991F17
:10099000FC01E357FE4FC591D491FC01E956FE4F8F
:1009A000A591B491611109C09FB7F89488812095F1
:1009B00082238883EC912E230BC0623061F49FB7B1
:1009C000F8943881822F809583238883EC912E2B95
:1009D0002C939FBF06C08FB7F894E8812E2B2883F5
:1009E0008FBFDF91CF9108951F93CF93DF93182F7F
:1009F000EB0161E00E94B804209711F460E004C0AC
:100A0000CF3FD10539F461E0812FDF91CF911F9164
:100A10000C948804E12FF0E0EC5FF94FE491E330AF
:100A2000F9F048F4E130B9F0E230A1F584B5806224
:100A300084BDC8BD34C0E730E9F0E83019F1E430D6
:100A400049F580918000806280938000D0938B0074
:100A5000C0938A0024C084B5806884BDC7BD1FC010
:100A600080918000806880938000D0938900C0933B
:100A7000880015C08091B00080688093B000C0935A
:100A8000B3000DC08091B00080628093B000C0932D
:100A9000B40005C0C038D1050CF0B5CFAFCFDF91A1
:100AA000CF911F9108958E3008F08E50877080642A
:100AB00080937C0080917A00806480937A0080919A
:100AC0007A0086FDFCCF809178002091790090E03B
:100AD000922B08953FB7F8948091260190912701B9
:100AE000A0912801B091290126B5A89B05C02F3FF0
:100AF00019F00196A11DB11D3FBFBA2FA92F982F44
:100B00008827820F911DA11DB11DBC01CD0142E0BE
:100B1000660F771F881F991F4A95D1F708958F9206
:100B20009F92AF92BF92CF92DF92EF92FF926B01B2
:100B30007C010E946A054B015C01C114D104E104EF
:100B4000F104F1F00E946A05DC01CB0188199909D2
:100B5000AA09BB09883E9340A105B10570F321E0C5
:100B6000C21AD108E108F10888EE880E83E0981EC9
:100B7000A11CB11CC114D104E104F10419F7DDCFAB
:100B8000FF90EF90DF90CF90BF90AF909F908F90AD
:100B900008958F929F92AF92BF92CF92DF92EF9281
:100BA000FF9260E970E082E891E00E94C21060E08C
:100BB00070E080E790E00E94C210C0905A03D0908D
:100BC0005B03C094D094E12CF12C0E946A054B0188
:100BD0005C010E946A05A50194012095309540951D
:100BE000509560957095809590950E9448189B014E
:100BF000AC01C701B6010E9448184B015C0180910D
:100C00004103909142036C01E12CF12C0E946A0592
:100C1000C60ED71EE81EF91EC701B601680D791D64
:100C20008A1D9B1D611571058105910511F00E94BA
:100C3000B216FF90EF90DF90CF90BF90AF909F9053
:100C40008F900C94AC031F920F920FB60F92112449
:100C50002F933F938F939F93AF93BF9380913C01CA
:100C600090913D01A0913E01B0913F01309125014D
:100C700023E0230F2D3720F40196A11DB11D05C0DF
:100C800026E8230F0296A11DB11D20932501809314
:100C90003C0190933D01A0933E01B0933F018091B0
:100CA000260190912701A0912801B0912901019678
:100CB000A11DB11D8093260190932701A0932801C7
:100CC000B0932901BF91AF919F918F913F912F9147
:100CD0000F900FBE0F901F90189550E0DA01AA0FE9
:100CE000BB1FA80FB91F1F963C911F9750962C91C0
:100CF0005097E32FF22FE60FF11DE60FF11D6591DE
:100D0000749190967C936E935F97FB01259134913B
:100D1000FC013481329F202D1124DC01A40FB51F6A
:100D200091962C939197FB0185919491E92FF0E096
:100D3000822F90E0E817F90720F4FB018591949148
:100D4000292F239F202D112492962C9308951F92D2
:100D50000F920FB60F9211242F936F937F938F935F
:100D60009F9360913901662359F1809124018F5F2F
:100D70008093240190913A01891710F12091370155
:100D800081E02827209337011092240180913B01B4
:100D9000882369F08091000193E4899F802D1124BC
:100DA000895B809300010E94581890933801222398
:100DB00029F0809138018093B40002C080E0FBCF1D
:100DC0009F918F917F916F912F910F900FBE0F90F8
:100DD0001F901895FC0161110DC0178A158A14A285
:100DE00013A2108E1092380110923901109237011F
:100DF0001092B4000895EF92FF920F931F93CF9338
:100E0000DF931F92CDB7DEB77C018B01411105C086
:100E100060E049830E94EA06498150E0FA01EE0F42
:100E2000FF1FEE0DFF1D16870587DA011996AA0F21
:100E3000BB1FAE0DBF1D1D921C92F701E40FF51FE5
:100E400081E0818389E0868B118E138E158E0F9041
:100E5000DF91CF911F910F91FF90EF90089540E0A7
:100E600063E871E00C94FB06FC01643508F053C0A4
:100E7000403308F050C090A1742F75957595759505
:100E8000262F062E000C330B542F57709230A1F4EE
:100E9000F901E05CFE4F84E57802E00DF11D1124BC
:100EA000808190E0052E02C0959587950A94E2F71F
:100EB0008095982F91700AC0933041F48485817099
:100EC000462740954170841303C014C0911112C08D
:100ED00084E57802200D311D1124F901E05CFE4FFC
:100EE00081E090E001C0880F5A95EAF780959081E3
:100EF000892310C084E57802200D311D1124F901E9
:100F0000E05CFE4F81E090E001C0880F5A95EAF75F
:100F10009081892B80830895BF92CF92DF92EF92C8
:100F2000FF920F931F93CF93DF931F92CDB7DEB73E
:100F30007C01D62EC42E002E000C110B040F111DA7
:100F400047FD1A954C2D0C2C000C550B40175107E2
:100F50007CF4B12CB21654F46B2D6D0D4C2DC701E1
:100F600029830E943407B3942981F4CFC394EACF34
:100F70000F90DF91CF911F910F91FF90EF90DF9035
:100F8000CF90BF9008956F927F928F929F92AF9271
:100F9000BF92CF92DF92EF92FF920F931F93CF9366
:100FA000DF93EC016A3019F42D819885A1C06D3072
:100FB00009F4A4C01885BA84D98488A083E58D1566
:100FC0000CF47FC08FE28B150CF47BC08C8190E019
:100FD0000197189F9001199F300D1124C9018D0DA3
:100FE000911DD7FC9A95181619060CF06AC08D81D0
:100FF000819FC00111248B0D911DB7FC9A95181685
:1010000019060CF05EC09D2CCD2CE62EF12CEC2D9B
:10101000ED190E2E000CFF0B8C8190E0E817F907FC
:101020000CF04EC00197E817F90779F0E89E90019F
:10103000E99E300DF89E300D1124E20FF31F8E8DC6
:101040009F8DE80FF91F749001C0712C6B2CAB2C95
:101050002A2D2B19022E000C330B8D8190E02817BE
:1010600039075CF570FE10C0113031F44A2D6C2D3B
:10107000CE010E9434071DC0012F212F462D692D5E
:10108000CE010E948C0715C089A198A1891789F00B
:1010900088A3113031F44A2D6C2DCE010E94340703
:1010A00007C0012F212F462D692DCE010E948C07EC
:1010B00088A27694A394610ECBCFC394910EA7CF50
:1010C00088A228853C818985329F800D11248987DB
:1010D0009F81992399F0082E000C990B44E550E06C
:1010E000239F401951091124481759073CF49D8149
:1010F0008A85299F800D11248A87198681E090E0D6
:10110000DF91CF911F910F91FF90EF90DF90CF90E3
:10111000BF90AF909F908F907F906F900895DF92D7
:10112000EF92FF920F931F93CF93DF931F92CDB750
:10113000DEB78C01D62EF42EE12CE21654F44E2D9F
:101140004F0D6D2DC80129830E943407E394298136
:10115000F4CF0F90DF91CF911F910F91FF90EF90FF
:10116000DF9008958F929F92AF92BF92CF92DF92BD
:10117000EF92FF920F931F93CF93DF936C01B62EE4
:10118000A42EC22F11E0121BF22EF194FF0CD1E01D
:10119000802F8170882E992493949E0C02708FEF7B
:1011A0008D0F8C17C4F517FD04C0C150F394F39450
:1011B0001F0D8D2F880F8F5F180F882099F02C2F0F
:1011C000220F290D4A2D4C1B6D2F6B0DC6010E945D
:1011D0008F0823E02E0D4A2D4D1B6C2F6B0DC60181
:1011E0000E948F08002399F02C2F220F290D4A2DE1
:1011F0004C1B6B2D6D1BC6010E948F0823E02E0D2A
:101200004A2D4D1B6B2D6C1BC6010E948F08DF5FA2
:10121000E394E394C4CFDF91CF911F910F91FF909E
:10122000EF90DF90CF90BF90AF909F908F900895F8
:101230004F925F926F927F928F929F92AF92BF92E6
:10124000CF92DF92EF92FF920F931F93CF93DF9392
:1012500000D000D01F92CDB7DEB74091C0035091AF
:10126000C1036091C2037091C3032FB7F8948091BA
:101270003C0190913D01A0913E01B0913F012FBFF3
:10128000481B590B6A0B7B0B8091BF0390E0A0E0D9
:10129000B0E00091BB031091BC032091BD033091DD
:1012A000BE0384179507A607B70730F4011511058B
:1012B0002105310509F040C3012B022B032B09F056
:1012C00039C38091570381508E3F18F580915603A2
:1012D000813021F580916A038F5F60916B0387FDF8
:1012E00009C0082E000C990B70E06F5F7F4F0E94C1
:1012F0006418682F60936A038EE795E09093C503A6
:101300008093C40388E48093C60385E693E00E943B
:101310002F078091570381508E3F70F480915503C1
:10132000813009F0B5C381E795E09093C5038093C0
:10133000C40388E48093C60380E00E94940F8091E8
:101340006603882309F4AFC080917A038111ABC092
:101350008091720390917303E0917703F091780389
:10136000EE0FFF1FE80FF91F25913491211531056C
:1013700001F520917603222331F010927803109228
:101380007703FC0114C010926603809165038823E3
:1013900041F080E00E94940FE0917703F091780390
:1013A0002FC060E085E693E00E94EA067CC02591AC
:1013B0003491C901969587959695879520FF53C0DE
:1013C000B90116E0769567951A95E1F76F71932F3D
:1013D00096959695969590518F70823081F108F58B
:1013E000811117C06B3008F06AE060937B03E091D5
:1013F0007703F09178033196F0937803E0937703C5
:10140000EE0FFF1F8091720390917303E80FF91F95
:10141000CECF813061F740E085E693E00E946D0613
:10142000E6CF8330B1F0843011F780916903689F73
:10143000602D11246093820390938303D8CF809111
:101440006903689F602D112460937E0390937F034E
:10145000CECF80916903689F602D11246093800333
:1014600090938103C4CF8F73809379038091690334
:10147000839F802D112480937A0310928A03109207
:1014800089031092880381E080937C038093370165
:1014900010927D0380917703909178030196909349
:1014A00078038093770380917C03882309F4F3C049
:1014B00080917A03811106C060E085E693E00E9486
:1014C000EA06E9C0815080937A0380918A038111F2
:1014D00048C020918803309189032F5F3F4FC90195
:1014E000880F991FE0918403F0918503E80FF91F9D
:1014F00065917491862F877080938B03AB01E3E035
:1015000056954795EA95E1F7CA0196958795972FE5
:101510009695969590938C038F7390916903899F0C
:10152000802D112480938A03417040933B013093B6
:101530008903209388038091860390E02817390758
:1015400080F020918703222339F0821B9109909328
:1015500089038093880305C060E085E693E00E94DC
:10156000EA0680918A03815080938A0380917D03EB
:1015700021E0280F20937D034091790330918C0363
:10158000340F80917103380F3093670360918003AB
:10159000662371F070E0822F022E000C990B0E94DE
:1015A000641880918103869F300D11243093670366
:1015B0008091670390E0849664E270E00E94641872
:1015C0008093670330917B033093680360917E03BF
:1015D000662381F0062E000C770B822F022E000C62
:1015E000990B0E94641880917F03869F300D11240F
:1015F00030936803609182036623A1F0822F220F4B
:10160000990B70E00E946418CB0162E070E00E94C8
:1016100064182091830390916803289F900D1124F2
:1016200090936803809168034F3341F08A300CF047
:1016300089E087FD80E08093680302C01092680310
:10164000F894E0916703F0E0E356FC4FE491E093F7
:101650003A013091680320918D03320390011124E7
:1016600040918B034203C001439F900D11240090D1
:101670006A0302C0880F991F0A94E2F797FF02C01D
:1016800081589F4F880F892F881F990B80933901AC
:101690008093380178948091C603882309F496C01A
:1016A0008C3020F49CE0C92EC81A01C0C12CDD2466
:1016B000D394D09296031092AE031092AF03E090B1
:1016C00093033DE2B32E1B2D1E191C0D03E00E0DDE
:1016D0002EE4412F63E08EE893E00E948C074CEFEC
:1016E000F42EFE0C1D5FEF2C01E023E0412F60E59E
:1016F0008EE893E00E94B20802E023E0412F63E00D
:101700008EE893E00E94B208D092AE03D092AF036D
:101710000091930313E0100FEB2CE01AEC0C23E084
:101720004E2D622F8EE893E02D830E9434072D8189
:101730002F5F2135A9F71E0DFF24FA94F10E23E047
:101740004F2D622F8EE893E02D830E9434072D8168
:101750002F5F2135A9F7035033E0E30E202F4E2DE4
:1017600060E08EE893E00E948F08202F4E2D63E505
:101770008EE893E00E948F0841E06E2D83E00E9486
:10178000D50F42E06E2D80E50E94D50F145044E045
:10179000612F80E50E94D50F48E0612F83E00E9411
:1017A000D50F84E08093970380919303C81A8C2D02
:1017B000815D809398038091C4039091C5030E943A
:1017C0002E0F8091C60381508093C60380915C03E5
:1017D00090915D03892B09F485C011E01093AE034D
:1017E0001092AF039091920385E5891B8093970334
:1017F0001092980360915903613009F454C030F09D
:1018000080915803653008F066C061C060E085E6ED
:1018100093E00E94EA061092660310939603EFEE9F
:10182000F3E0E491EF5FE0939203E0EFF3E0E49103
:10183000EF5FE093930381EF93E09093AD03809388
:10184000AC0310925D0310925C031092940318EAAB
:101850000E9418098823E1F381EE93E00E942E0F85
:1018600040915A0350915B0360E070E02AE08EE8FB
:1018700093E00E9416048CEC93E00E942E0F412FFF
:1018800042954F7050E060E070E08EE893E00E9477
:10189000531081EC93E00E942E0F8091550381300C
:1018A00009F0FCC01FC08091B1039091B203A091D8
:1018B000B303B091B4038F709927AA27BB27089769
:1018C000A105B10510F467E009C068E707C08823E7
:1018D00049F06B5F03C0882329F06FE28EE893E044
:1018E0000E94FA030E94EE0E8091940381110EC0B3
:1018F00088EF91E0E0E4F1E0DF019C011D922150CE
:101900003040E1F710929703109298030E946A0505
:101910006093BB037093BC038093BD039093BE039D
:101920002091B7033091B803621B730B7093B60319
:101930006093B50380E0CCC02FB7F89480913C0150
:1019400090913D01A0913E01B0913F012FBF2091A8
:10195000BF03820F911DA11DB11D8093C003909301
:10196000C103A093C203B093C3038091B1039091CC
:10197000B203A091B303B091B4030196A11DB11DB0
:101980008093B1039093B203A093B303B093B403D5
:101990001092BB031092BC031092BD031092BE03C1
:1019A0000E946A056093B7037093B8038093B903EC
:1019B0009093BA0380914103909142032FE0289FB6
:1019C0008001299F100D112485E10E945305800F8D
:1019D000911F24E0969587952A95E1F7909342030D
:1019E0008093410320914003222309F44BC060916E
:1019F0004403262F30E040E050E029833A834B83B4
:101A00005C83C0904503D12CE12CF12C409148031C
:101A1000509149034A01A12CB12C209146033091E9
:101A200047032901612C712C8217930728F09C0130
:101A30004817590708F49A01C901A0E0B0E09C01D9
:101A4000AD01241935094609570969817A818B81CD
:101A50009C816C197D098E099F090E944818A50177
:101A6000940124193509460957090E94BB16C20E74
:101A7000D31EE41EF51EC09243036C2D70E085E07A
:101A80000E94F4040E947B0E0E94851081E020C019
:101A9000893209F051CC0E945F0F4ECC115009F0F1
:101AA000D7CE60E070E085E00E94F40483B7817FC8
:101AB000846083BF83B7816083BF83B7816083BF46
:101AC000889583B78E7F83BF83B78E7F83BFC0CE59
:101AD0000F900F900F900F900F90DF91CF911F916B
:101AE0000F91FF90EF90DF90CF90BF90AF909F90BD
:101AF0008F907F906F905F904F9008958F929F92FC
:101B0000AF92BF92CF92DF92EF92FF920F931F930B
:101B1000CF93DF93FB0124913196C490F090AE03F4
:101B2000022E000C330B121613060CF0D7C08033B4
:101B30000CF0D4C0482F082E000C550BFA01EC0D08
:101B4000F11DC7FCFA951E161F060CF0C7C06E5F8C
:101B50007F4FD901179693E0B595A7959A95E1F730
:101B600087FF0BC0C80EA49FC001A59F900DB49F16
:101B7000900D1124681B790B80E04C2D0C2C000C6F
:101B8000550B480F511D87FD5A95413351051CF0E7
:101B900090E3C92EC81A2535310514F024E530E04C
:101BA00010919A031827982F977031E001C0330FD6
:101BB0009A95EAF7859585958595F4E58F02C0019C
:101BC0001124805C9E4F00E00C2C000CDD08BB242F
:101BD000B394402F50E04C155D050CF07FC0FB0125
:101BE000E490F1E0FF1218C0FB01EC0140E8542F33
:101BF0005E2119F05881532B588350E05595479535
:101C00004115510519F43196E49040E821965C2F76
:101C1000581B521760F359C0F1101AC0A32EA0949C
:101C2000FB01EC0140E8542F5E2119F058815A2144
:101C3000588350E0559547954115510519F4319653
:101C4000E49040E821965C2F581B521760F33DC08A
:101C500043E0F41223C0932E9094FB01EC0140E882
:101C6000A82E8C2E881A542F5E2141F0812658818F
:101C700080FE02C0532B01C05921588350E0559576
:101C800047954115510519F43196E49040E82196A5
:101C90005C2F5A19521728F31B2517C0FB01EC01C2
:101CA00040E8542F5E2119F058815327588350E0A3
:101CB000559547954115510519F43196E49040E842
:101CC00021965C2F581B521760F3330F19F48C5A6E
:101CD0009F4F31E00F5F6A0F7B1F7BCFDF91CF916A
:101CE0001F910F91FF90EF90DF90CF90BF90AF903A
:101CF0009F908F900895CF92DF92EF92FF920F9373
:101D00001F93CF93DF93CAE4D3E001E513E0FF24F0
:101D1000FA9497E0E92EE00E62E088810E94B80410
:101D2000288130E0F901EC5FF94F8491F901E0512D
:101D3000FA4FC490F901E452FA4FD490DD2071F0CB
:101D400081110E945F04ED2DF0E0EE0FFF1FEE52B7
:101D5000FA4FA591B491EC91EC21B1F4F801808196
:101D60008F5F808360E088810E94B80421960F5FB6
:101D70001F4FE012D1CFDF91CF911F910F91FF90B4
:101D8000EF90DF90CF900895F8018081882371F360
:101D9000F8018F3F11F41082E5CFF082E3CFCF93AB
:101DA000C82FF89460E080919D030E948804809180
:101DB0009E0318161CF460E00E948804CEBD00004B
:101DC0000DB407FEFDCF8EB580919E0318161CF44E
:101DD00061E00E9488047894CF9108950F931F9337
:101DE000CF9380919A038F5F80939A0300E411E070
:101DF000C0E08C2F80640E94CF0E80E80E94CF0E3E
:101E000061E080919D030E94880480919E031816D2
:101E10001CF460E00E94880480E090E0F801E80F84
:101E2000F91F20812EBD00000DB407FEFDCF2EB599
:101E300001968435910591F780919E0318161CF444
:101E400061E00E948804CF5F0C5A1F4FC63089F6AC
:101E500080E4CF911F910F910C94CF0E0F931F939D
:101E6000CF93DF938C01C0E0D0E0F801EC0FFD1FB1
:101E70006491662371F0E0918E03F0918F030190DD
:101E8000F081E02D8EE893E00995892B11F02196E1
:101E9000ECCFCE01DF91CF911F910F910895CF9399
:101EA000DF930E942E0FEC0169E171E08EE893E070
:101EB0000E9401048C0F9D1FDF91CF91089588EF40
:101EC00091E0E0E4F1E0DF019C011D9221503040FF
:101ED000E1F710929703109298038AEA95E00E9426
:101EE0002E0F0E94EE0E8CB583608CBD8DB58E7F5B
:101EF0008DBD8CE191E0EEEFFFE309951092940324
:101F000085E895E00E944F0F0E94EE0E0E947B0E26
:101F100080915503813039F062E370E080E090E019
:101F20000E948F05F3CF0895CF93DF93482F50E0A1
:101F3000EA01C05CDC4F9DA19923A1F19EA1911102
:101F400031C09EA5FA01EE0FFF1FE95BFC4F35A1E2
:101F500026A1E32FF22FE90FF11DE90FF11D2591C5
:101F600034912F3F9FEF390711F41DA21BC039ABED
:101F7000440F551FFA01E65BFC4F3327220F331F36
:101F800005A0F6A1E02DE20FF31F65917491811178
:101F900005C040E085E693E00E94FB0629968DA1EE
:101FA0008F5F8DA3DF91CF910895AF92BF92CF92B3
:101FB000DF92EF92FF920F931F93CF93DF93182F2F
:101FC000062FC1E0D3E08AEFD82E9EEFE92E842FB2
:101FD0008470C82E842F8270B82E842F8870A82E0B
:101FE0004170F42E8C2F880F8F5FE80ECC2081F08B
:101FF0004D2F400F6C2F610F8EE893E00E94340745
:102000004C2F400F6D2F610F8EE893E00E94340734
:10201000BB2081F0402F4D1B6C2F610F8EE893E0A9
:102020000E943407402F4C1B6D2F610F8EE893E008
:102030000E943407AA2081F04C2F400F612F6D1BA6
:102040008EE893E00E9434074D2F400F612F6C1BE8
:102050008EE893E00E943407FF2081F0402F4C1B54
:10206000612F6D1B8EE893E00E943407402F4D1BBB
:10207000612F6C1B8EE893E00E943407CD1744F467
:10208000E7FC04C0D150D394D394ED0CCF5FAACF1A
:10209000DF91CF911F910F91FF90EF90DF90CF9044
:1020A000BF90AF900895CF92DF92EF92FF920F937F
:1020B0001F93CF93DF9377FF1DC06A017B01EC0173
:1020C0006DE20E94FA038C0144275527BA014C198E
:1020D0005D096E097F092AE0CE010E941604800F77
:1020E000911FDF91CF911F910F91FF90EF90DF90A3
:1020F000CF9008952AE0DF91CF911F910F91FF902B
:10210000EF90DF90CF900C94160480915C03909137
:102110005D03892BB1F1809164038F7169F584E1CE
:102120000E945305BC01990F880B990B0E944F1711
:1021300026EE3FE34EEC50E40E94B3170E941E17B8
:102140009B0170935B0360935A03672B91F084E0CB
:1021500080935903ECE5F3E080E04191519124171D
:10216000350718F48093590308958F5F8430A9F7D9
:1021700003C08FEF80935903809164038F5F809336
:10218000640308958F929F92AF92BF92EF92FF9255
:102190000F931F93CF93DF932091B003222309F471
:1021A000CAC08B01EC0181E08093960310929503E5
:1021B00010929403109258038093AE038093AF0360
:1021C0008CE0F82E0E9418098823E1F3FE01849127
:1021D000882319F0E090930301C0E12C64E376E0DA
:1021E00080E00E947E0D0115110529F0B8018CE0F8
:1021F0008E0D0E947E0D10929703F0929803CE01EF
:102200000E942E0F80919203982F990F890F81952C
:102210008D5A8093970380919303982F990F890F7C
:102220008195835D809398038091B10384FF03C0FF
:1022300080E396E002C08CE296E00E944F0F80910E
:102240009203982F990F890F81958D5A8093970348
:10225000809198038F5F8093980380916A0388230D
:1022600019F088E296E002C084E296E00E944F0FE7
:1022700080919203982F990F890F81958D5A8093A1
:102280009703809198038F5F8093980380E296E094
:102290000E944F0F809156038130B9F480916A03F8
:1022A0008F5F20916B0387FD0AC0082E000C990BED
:1022B00030E0B9016F5F7F4F0E946418282F209390
:1022C0006A0385E693E00E942F07809155038130D1
:1022D000A9F08091B003482F50E060E070E080905A
:1022E000B1039090B203A090B303B090B4038416EE
:1022F0009506A606B706B8F08F3FA9F08FEF80933A
:10230000B00360E085E693E00E94EA06109266035F
:1023100040E068E176E085E693E00E94FB0681E01C
:102320008093580308C080915703813009F04ACF49
:102330000E945F0F47CFDF91CF911F910F91FF90C8
:10234000EF90BF90AF909F908F900895CF93DF93C1
:10235000C0E4D3E083E08BAF40E060E085E693E04B
:102360000E946D0689A5982F990F990F90937E036F
:102370009BEF90937F038093800391E3909381037D
:1023800096E099AF880F880F880F8AAF10928A0362
:10239000109289031092880381E08CAF80933701FB
:1023A00010927D03DF91CF910895789484B5826077
:1023B00084BD84B5816084BD85B5826085BD85B5E9
:1023C000816085BD80916E00816080936E00109267
:1023D00081008091810082608093810080918100E2
:1023E0008160809381008091800081608093800073
:1023F0008091B10084608093B1008091B0008160D1
:102400008093B00080917A00846080937A008091FC
:102410007A00826080937A0080917A008160809354
:102420007A0080917A00806880937A001092C100CF
:1024300082E38093BF0381E090E0A0E0B0E080936E
:10244000BB039093BC03A093BD03B093BE038FEF77
:102450008093B003E0E8F7E7259134912130304CC8
:1024600009F049C0E6E9F7E7E491E0939903E7E969
:10247000F7E7E491E0934403E8E9F7E7E491E093B8
:102480004503E9E9F7E78591949190934703809399
:102490004603EBE9F7E78591949190934903809384
:1024A000480387E080936B03EEE9F7E7E491E0935C
:1024B0006A03EFE9F7E7E491E093B003E0EAF7E7B6
:1024C0008591949190935D0380935C03E2EAF7E732
:1024D0008591949190935F0380935E03E4EAF7E71C
:1024E000859194919093610380936003E6EAF7E706
:1024F000859194912CC09CE390939903109244038E
:102500008093450380E293E09093470380934603D2
:1025100084ED93E0909349038093480387E0809390
:102520006B0380936A038CEA9DE090935D03809334
:102530005C038EED9DE090935F0380935E0384E7E0
:102540009EE090936103809360038CE39FE09093FF
:10255000630380936203C1E0C09340036FEF70E0B8
:1025600085E00E94F40488E080934A0389E0809328
:102570004B0387E080934C0386E080934D03D4E0C7
:10258000D0934E0382E080934F0381E18093500308
:102590000E947B0E8CE39FE090935B0380935A0331
:1025A000D0935903C09364038BE080939C038DE028
:1025B00080939B0380E180939D038EE080939F0333
:1025C0008FE080939E03C0939603C093AE03109256
:1025D000AF03C0939503EFEEF3E0E491EF5FE09378
:1025E0009203E0EFF3E0E491EF5FE093930381EF78
:1025F00093E09093AD038093AC03CFB7F8948091B0
:102600002A01811127C0E6EEF5E08491EAEFF5E0BA
:102610009491E82FF0E0EE0FFF1FE357FE4FA591D6
:10262000B491EC91E92321F461E08AE00E948804EE
:1026300061E08AE00E94B8048CB580618CBD8CB5E5
:1026400080648CBD61E08DE00E94B80461E08BE0A5
:102650000E94B80480912A018F5F80932A01CFBF26
:102660008CB58F7D8CBD8CB58C7F81608CBD8DB51C
:1026700081608DBD8CB58C608CBD61E080919C03C8
:102680000E94B80461E080919B030E94B80461E05D
:1026900080919D030E94B80480919F0318161CF43A
:1026A00061E00E94B80480919E0318161CF461E05A
:1026B0000E94B80480919F03181674F460E00E9491
:1026C00088046AE070E080E090E00E948F0561E09D
:1026D00080919F030E94880480919B03082E000C28
:1026E000990BFC01E452FA4FE491F0E0EE0FFF1F6A
:1026F000E956FE4F259134913093A3032093A20312
:10270000FC01E051FA4FE491E093A90380919C030E
:10271000082E000C990BFC01E452FA4FE491F0E012
:10272000EE0FFF1FE956FE4F259134913093A10320
:102730002093A003FC01E051FA4FE491E093A80339
:1027400080919E03082E000C990BFC01E452FA4F75
:10275000E491F0E0EE0FFF1FE956FE4F2591349112
:102760003093A5032093A403FC01E051FA4FE491B8
:10277000E093AA0380919D03082E000C990BFC01A5
:10278000E452FA4FE491F0E0EE0FFF1FE956FE4FDE
:10279000259134913093A7032093A603FC01E051C7
:1027A000FA4FE491E093AB0381E20E94CF0E84E103
:1027B0000E94CF0E8091990387FF03C08FE780931B
:1027C00099038091990380680E94CF0E80E20E9455
:1027D000CF0E8CE00E94CF0E0E94EE0E81E080931F
:1027E000690384E080938D0389E891E090937503F9
:1027F0008093740340E060E085E693E00E946D06FC
:1028000061E070E083E00E94F4048091B100887F71
:1028100081608093B100F894109280001092810042
:10282000109285001092840088E191E090938900D5
:1028300080938800809181008860809381008091DE
:10284000810081608093810080916F00826080931D
:102850006F0078940E94851080915603813019F49E
:1028600010926A030BC0809159038823C9F340E09A
:1028700061EA71E085E693E00E94FB060E94C905CB
:102880009CE2492E512C612C712C2DEF222E3324E9
:102890003A9433E0832E912C44E0C42ED12C5CE298
:1028A000A52EB12C88E0F82E0E941809882309F47F
:1028B000A0C18091520381508E3F68F4809107013E
:1028C00090910801823091050CF49BC1029790937E
:1028D0000801809307018091540381508E3F68F472
:1028E00080910701909108018F3191050CF08CC106
:1028F00002969093080180930701809156038150BE
:102900008E3F68F4809135019091360182309105B7
:102910000CF47DC10297909336018093350180912C
:10292000550381508E3F68F48091350190913601B6
:102930008F3191050CF06EC1029690933601809311
:1029400035010091030110910401C0910501D0915E
:102950000601C00FD11FD0930601C09305018091DD
:102960000101909102012091330130913401280F2F
:10297000391F30933401209333012D3231057CF01F
:102980009195819591099093020180930101B092F4
:102990003401A092330185E693E00E942F078091D5
:1029A00033019091340104979CF48091010190913E
:1029B0000201919581959109909302018093010103
:1029C000D0923401C092330185E693E00E942F0734
:1029D0002497249790F42091330130913401809111
:1029E000070190910801AC01405F5F4F4217530708
:1029F00024F0821793070CF410C180910501909187
:102A000006018D549109049790F42091330130917F
:102A100034018091350190913601AC01405F5F4FE8
:102A20004217530724F0821793070CF40AC100E100
:102A300023E04091070160E08EE893E00E948C075C
:102A400023E04091350161E58EE893E00E948C0718
:102A500010913301C0910501D09106014CEF410F57
:102A600029E06C2F8EE893E00E948F08E12C03E0B0
:102A700024E0412F6C2F8EE893E00E94B20810E012
:102A800004E022E0412F69E28EE893E00E948C0787
:102A9000185F1033A9F701E024E540E060E08EE81C
:102AA00093E00E948C0724E54FE260E08EE893E01B
:102AB0000E948C07CC3FDF4FBCF480913101909194
:102AC0003201909306018093050190920401809257
:102AD000030180912D0190912E01019690932E017A
:102AE00080932D0121E001C020E0809105019091AB
:102AF000060189359105B4F080912F019091300144
:102B00009093060180930501309204012092030105
:102B100080912B0190912C01019690932C01809330
:102B20002B0102C0222389F00E94AD16A30192015D
:102B30000E94BB16709334016093330140E065E955
:102B400073E085E693E00E94FB0695E1909397037E
:102B5000F092980340912B0150912C01052E000C0E
:102B6000660B770B8EE893E00E94531089E3809305
:102B70009703F092980340912D0150912E01052E5C
:102B8000000C660B770B8EE893E00E9453102091A7
:102B90002B0130912C0180912D0190912E012B3031
:102BA000310524F48B30910574F41EC0A901481B33
:102BB000590B423051053CF00E94A6116FEA71E0BA
:102BC00081EA92E00DC08B30910574F0821B930B6B
:102BD000029754F00E94A61162EA72E084E993E041
:102BE0000E94C2100E94AC0380915703813009F407
:102BF00040C080E090E0892B09F456CE0E9400008E
:102C000051CE80E090E063CE80E290E072CE80E032
:102C100090E081CE80E290E090CE1195019511096F
:102C200010930401009303018091310190913201CE
:102C3000909306018093050185E693E00E942F079B
:102C4000DCCE8091030190910401919581959109C9
:102C5000909304018093030180912F0190913001A2
:102C6000909306018093050185E693E00E942F076B
:102C7000DECE0E94C905BDCF109291031092900341
:102C800081E191E090938F0380938E0380910701FF
:102C9000909108019093360180933501909334010F
:102CA0008093330188E090E090933201809331016A
:102CB0008CE490E09093300180932F0108958F92DF
:102CC0009F92AF92BF92CF92DF92EF92FF92CF93FB
:102CD000DF93EC01688179818A819B81611571059F
:102CE0008105910521F464E279ED8BE597E02DE112
:102CF00033EF41E050E00E94BB1649015A019B01AD
:102D0000AC01A7EAB1E40E94DA166B017C01ACEEDB
:102D1000B4EFA50194010E94E816DC01CB018C0DF3
:102D20009D1DAE1DBF1DB7FF03C00197A109B0488F
:102D300088839983AA83BB83BC01CD019F77DF91F0
:102D4000CF91FF90EF90DF90CF90BF90AF909F908A
:102D50008F9008950E945F16089589E091E00E9487
:102D60005F1608956093090170930A0180930B0127
:102D700090930C010895052E97FB1EF400940E9479
:102D8000D21657FD07D00E94ED1607FC03D04EF473
:102D90000C94D21650954095309521953F4F4F4F4A
:102DA0005F4F089590958095709561957F4F8F4FF7
:102DB0009F4F08950E940F17A59F900DB49F900DEF
:102DC000A49F800D911D11240895B7FF0C94DA166D
:102DD0000E94DA16821B930B0895A1E21A2EAA1BF9
:102DE000BB1BFD010DC0AA1FBB1FEE1FFF1FA217BB
:102DF000B307E407F50720F0A21BB30BE40BF50BB8
:102E0000661F771F881F991F1A9469F76095709540
:102E1000809590959B01AC01BD01CF010895A29FC3
:102E2000B001B39FC001A39F700D811D1124911D9E
:102E3000B29F700D811D1124911D08950E9492175B
:102E400088F09F5798F0B92F9927B751B0F0E1F06B
:102E5000660F771F881F991F1AF0BA95C9F714C01B
:102E6000B13091F00E94AC17B1E008950C94AC170A
:102E7000672F782F8827B85F39F0B93FCCF3869554
:102E800077956795B395D9F73EF4909580957095B1
:102E900061957F4F8F4F9F4F0895E89409C097FB2E
:102EA0003EF490958095709561957F4F8F4F9F4F21
:102EB0009923A9F0F92F96E9BB279395F695879565
:102EC00077956795B795F111F8CFFAF4BB0F11F428
:102ED00060FF1BC06F5F7F4F8F4F9F4F16C08823CF
:102EE00011F096E911C0772321F09EE8872F762F05
:102EF00005C0662371F096E8862F70E060E02AF046
:102F00009A95660F771F881FDAF7880F9695879531
:102F100097F9089557FD9058440F551F59F05F3F9A
:102F200071F04795880F97FB991F61F09F3F79F0EB
:102F300087950895121613061406551FF2CF46956D
:102F4000F1DF08C0161617061806991FF1CF8695EF
:102F50007105610508940895E894BB2766277727D3
:102F6000CB0197F908950E94C6170C9437180E9458
:102F7000291838F00E94301820F0952311F00C9495
:102F800020180C94261811240C94AD170E948A174F
:102F900070F3959FC1F3950F50E0551F629FF001AC
:102FA000729FBB27F00DB11D639FAA27F00DB11DC5
:102FB000AA1F649F6627B00DA11D661F829F22274E
:102FC000B00DA11D621F739FB00DA11D621F839FD5
:102FD000A00D611D221F749F3327A00D611D231FAB
:102FE000849F600D211D822F762F6A2F11249F57F9
:102FF00050409AF0F1F088234AF0EE0FFF1FBB1FFC
:10300000661F771F881F91505040A9F79E3F5105BA
:1030100080F00C9420180C94AD175F3FE4F3983EB9
:10302000D4F3869577956795B795F795E7959F5F64
:10303000C1F7FE2B880F911D9695879597F90895F6
:1030400097F99F6780E870E060E008959FEF80EC5B
:10305000089500240A9416161706180609060895FE
:1030600000240A9412161306140605060895092E64
:103070000394000C11F4882352F0BB0F40F4BF2BD3
:1030800011F460FF04C06F5F7F4F8F4F9F4F089513
:10309000DB018F939F930E94DA16BF91AF91A29F9D
:1030A000800D911DA39F900DB29F900D1124089546
:1030B000991B79E004C0991F961708F0961B881F8A
:1030C0007A95C9F78095089597FB072E16F400941A
:1030D00007D077FD09D00E94781807FC05D03EF490
:1030E000909581959F4F0895709561957F4F0895B4
:1030F000AA1BBB1B51E107C0AA1FBB1FA617B7071E
:1031000010F0A61BB70B881F991F5A95A9F7809539
:103110009095BC01CD010895EE0FFF1F0590F4912D
:10312000E02D099481E090E0F8940C949718F894BD
:02313000FFCFCF
:10313200010300030028001000010000000000004D
:1031420000C3077D03A903A8030D0A004C4F4144A5
:0431520045520000E2
:00000001FF
